:020000040800F2
:10000000484A00204501000863170008AB140008A7
:1000100061170008D5010008711D000800000000EC
:100020000000000000000000000000009B19000814
:10003000D701000800000000851700089D1900087E
:100040005F0100085F0100085F0100085F01000810
:100050005F0100085F0100085F0100085F01000800
:100060005F0100085F0100085F0100085F010008F0
:100070005F0100085F0100085F0100085F010008E0
:100080005F0100085F0100085F0100085F010008D0
:100090005F0100085F0100085F0100085F010008C0
:1000A0005F0100084D1A00085F0100085F010008A9
:1000B0005F0100085F0100085F0100085F010008A0
:1000C0005F0100085F0100085F0100085F01000890
:1000D0005F0100085F0100085F0100085F01000880
:1000E0005F0100085F0100085F0100085F01000870
:1000F0005F0100085F0100085F0100085F01000860
:100100005F0100085F0100085F0100085F0100084F
:100110005F0100085F0100085F0100085F0100083F
:100120005F0100085F0100085F0100085F0100082F
:10013000DFF80CD000F03CF800480047AD21000883
:10014000484A00200648804706480047FEE7FEE789
:10015000FEE7FEE7FEE7FEE7FEE7FEE7FEE7FEE777
:10016000051A0008310100080649074A086850438B
:1001700043F23902104408604008704701490860A2
:1001800070470000B00000206D4EC641D2B201E0C1
:1001900000F8012B491EFBD270470022F6E710B58C
:1001A00013460A4604461946FFF7F0FF204610BDE5
:1001B000064C074D06E0E06840F0010394E80700B4
:1001C00098471034AC42F6D3FFF7B6FF040D02088F
:1001D000240D0208FEE770472DE9F84FDFF8B8A1BB
:1001E00000220AF1040B144601274FF00F090BF10E
:1001F000040E00BF0B6807FA04F52B40AB4274D124
:10020000DFF898C14E68A6EB0C0866452BD00DDCD4
:10021000032E34D005DC36B3012E19D0022E2FD197
:100220001BE0112E16D0122E2AD119E0B8F5881F26
:1002300019D006DCB8F5803F15D0B8F5801F1FD166
:1002400011E0B8F5001F0ED0B8F5041F18D10AE070
:10025000CA6815E0CA68121D12E0CA6808320FE0C9
:10026000CA680C320CE08A682AB1012A4FF00802F1
:1002700003D0456104E0042202E0056100E00022B1
:10028000FF2B01D8064601E000F104064FEA840581
:1002900001D9A5F12005D6F800C009FA05F82CEA25
:1002A000080C02FA05F54CEA050CC6F800C04D68CA
:1002B000ED006AD53A4DAE6946F00106AE61AD6912
:1002C00024F0030605F001050095364D06EB050CFC
:1002D000DCF80850A6074FEA167809FA08F6B54385
:1002E000314EB04202D100261AE04EE02F4EB0420D
:1002F00001D1012614E02E4EB04201D102260FE0BA
:100300002C4EB04201D103260AE02B4EB04201D15F
:10031000042605E0294EB04201D1052600E006265C
:1003200006FA08F62E43CCF808604D68DAF800604B
:10033000ED03554601D51E4300E09E432E604D68F7
:10034000AD0305D5DBF800601E43CBF8006004E088
:10035000DBF800509D43CBF800504D68DEF800609C
:10036000ED02754601D51E4300E09E432E604D68A8
:10037000AD0205D5084D0C352E681E432E6004E0F5
:10038000054E0C3635689D433560641C102CFFF417
:1003900031AFBDE8F88F00000004014000001110EB
:1003A000001002400000014000080140000C014024
:1003B000001001400014014000180140001C0140E1
:1003C0000AB1016170470904FBE700000148806839
:1003D00070470000A00000200248816802781144A4
:1003E00081607047A0000020074810B5016841F007
:1003F00010010160032000F073F8002000F006F8FF
:1004000000F024F8002010BD0020024070B50D4D12
:1004100004464FF47A712878B1FBF0F00A49096874
:10042000B1FBF0F000F0A5FD48B9102C07D2002276
:100430002146501E00F034F800206C6070BD012091
:1004400070BD0000A0000020AC0000200C4808B5E2
:10045000816941F001018161816901F0010100912F
:10046000C16941F08051C161C06900F080500090C5
:100470000448416821F0E06141F00071416008BD2D
:10048000001002400000014000F01F0201219140D5
:100490004009800000F1E020C0F800117047000022
:1004A000F0B40E4B1B680C46C3F30223C3F10705DF
:1004B000042D00D90425191D072901D2002300E0CD
:1004C000DB1E012606FA05F1491E214099409E4097
:1004D000761E16403143F0BC01F044B90CED00E04B
:1004E000064900F0070208684FF6FF03184040EA8B
:1004F0000220034A10430860704700000CED00E042
:100500000000FA05014901200862704700000E4210
:1005100010B52CA401461DCC86B08DE81D002DA081
:100520002D4C00680490002004292FD00BDC0129F9
:100530002FD0022928D100F081F96168C1F38131FF
:10054000491C49001EE0082920D010291CD16168EF
:100550002268D20118D5C1F38342C9031DF80200F5
:1005600009D5616804AAC1F34041515C1B4AB2FB42
:10057000F1F1484301E01A4948436168490203D454
:1005800040000321B0FBF1F006B010BD00F066F9A9
:10059000FAE7226AC2F30121012903D1920701D5AA
:1005A000C803F1E7022905D1626A920702D549F62C
:1005B0004040E9E70329E7D121688903E4D54FF2F8
:1005C0002440E1E702030405060708090A0B0C0DA5
:1005D0000E0F1010010200000010024000127A00FD
:1005E00000093D002DE9F84305460078354CC00769
:1005F00054D0E0690026C00008D4E06940F0805083
:10060000E061E069012600F0805000902E4801680A
:10061000C90512D40168804641F480710160FFF77A
:10062000D5FE074605E000BFFFF7D0FEC01B6428DB
:1006300023D8D8F80000C005F6D5206A10F4407021
:1006400021D0A98801F4407181421CD0206A1F4941
:10065000012220F440700A6000220A602062C00774
:1006600011D0FFF7B3FE074641F2883808E000BF1B
:10067000FFF7ACFEC11B414502D90320BDE8F8835A
:10068000206A8007F4D5206A696820F44070084326
:1006900020621EB1E06920F08050E0612878800778
:1006A00005D56068A96820F4404008436060287858
:1006B000C00605D56068696920F480000843606061
:1006C0000020DBE70010024000700040400442427E
:1006D0002DE9F047DFF8548105460E46D8F80000B2
:1006E00000F00700B0420CD2D8F8001021F007014A
:1006F0003143C8F80010D8F8000000F00700B042FD
:100700006FD128684A4C810712D5400703D560682D
:1007100040F4E06060602878000703D5606840F42A
:10072000605060606068A96820F0F0000843606075
:100730002878C00744D06868012816D021680228AC
:1007400016D0890700294CDA616821F003010143C2
:100750006160FFF73BFE6968074641F28830012976
:100760000ED00229814618D026E021688903E9E7E6
:100770008901E7E7FFF72AFEC11B494501D918E0C7
:1007800081466068C0F381000128F3D118E000BF02
:10079000FFF71CFEC11B49450BD86068C0F3810000
:1007A0000228F5D10CE000BFFFF710FEC11B494540
:1007B00002D90320BDE8F087606810F00C0FF3D178
:1007C000D8F80010404601F00701B1420BD901688A
:1007D00021F0070131430160006800F00700B042DA
:1007E00001D00120E6E72878400705D56068E96870
:1007F00020F4E060084360602878000706D5606850
:10080000296920F4605040EAC100606000F026F8D9
:100810006168084AC1F30311515CC8400649086089
:100820000020FFF7F3FD0020C4E700000020024095
:1008300000100240EA0C0208AC0000200448054900
:1008400000684968044AC1F3C221515CC84070473E
:10085000AC00002000100240FA0C020812A185B082
:100860000FC98DE80F0014A0144A00680490516865
:10087000134801F00C03042B10D0082B0ED1C1F348
:100880008343C9031DF803000AD5516804AAC1F3C4
:100890004041515C0A4A5043B0FBF1F005B070474B
:1008A00008494843FAE7000002030405060708095F
:1008B0000A0B0C0D0E0F1010010200000010024078
:1008C00000127A0000093D002DE9F84F0446007837
:1008D000B94DC00748D06868C0F38100012807D02F
:1008E0006868C0F38100022809D16868C00306D592
:1008F0002868800338D5606800286FD034E06068CD
:10090000B0F5803F0BD010B1B0F5A02F11D0286802
:1009100020F480302860286820F4802002E02868D5
:1009200040F480302860606888B1FFF74FFD0646CC
:1009300009E0286840F480202860F0E7FFF746FDD2
:10094000801B642875D828688003F7D50CE0FFF772
:100950003DFD064605E000BFFFF738FD801B64281B
:10096000F0D828688003F7D42078944E80074FF0A1
:1009700001094FF000083BD5686810F00C0F07D054
:100980006868C0F38100022809D16868C00306D4F2
:100990002868800714D5206901281FD110E020693C
:1009A000B0B1C6F80090FFF711FD074605E000BFA3
:1009B000FFF70CFDC01B0228C4D828688007F7D5B4
:1009C0002868616920F0F80040EAC10028600FE063
:1009D000C6F80080FFF7FAFC074606E0E9E000BF32
:1009E000FFF7F4FCC01B022823D828688007F7D43F
:1009F000207800072CD57248A169D9B1C0F80090C1
:100A0000FFF7E4FC074604E0FFF7E0FCC01B022808
:100A10000FD8686A8007F7D56A484FF4FA51006822
:100A2000B0FBF1F0009000BF0098411E0091FAD297
:100A30000EE080E0C0F80080FFF7C8FC074604E045
:100A4000FFF7C4FCC01B022875D8686A8007F7D47A
:100A50002078400760D5E8690027C00008D4E8691D
:100A600040F08050E861E869012700F08050009074
:100A700055480168C90513D40168834641F4807163
:100A80000160FFF7A3FC824606E000BFFFF79EFC73
:100A9000A0EB0A0064284ED8DBF80000C005F5D5AD
:100AA000E06801280AD008B1052813D0286A20F090
:100AB00001002862286A20F0040002E0286A40F061
:100AC00001002862E06841F2883B98B1FFF77EFCA4
:100AD00082460BE0286A40F004002862EEE700BF7F
:100AE000FFF774FCA0EB0A0159455AD8286A800721
:100AF000F6D50CE0FFF76AFC824605E0FFF766FCDE
:100B0000A0EB0A0159454CD8286A8007F6D41FB1DA
:100B1000E86920F08050E861E06988B36968C1F352
:100B20008101022945D00228C6F8608004D0FFF771
:100B30004DFC044638E034E0FFF748FC074604E08B
:100B4000FFF744FCC01B02282BD828688001F7D48B
:100B5000206AB0F5803F05D16868A16820F40030B4
:100B600008436860D4E908010843696821F47411F6
:100B700008436860C6F86090FFF728FC044606E06A
:100B800015E000BFFFF722FC001B022809D82868E7
:100B90008001F7D50BE000BFFFF718FC001B02280F
:100BA00002D90320BDE8F88F28688001F4D4002022
:100BB000F8E70120F6E70000001002400000424282
:100BC00080044242AC00002000700040F8B50500EF
:100BD0004FF0000016460C46009006D02CB10022C3
:100BE0006946284600F019F808B10120F8BD287BB5
:100BF0002070E87BE070697B6170A97BA17056B1C1
:100C000000F0CAFDE070607800F0C6FD6070A0786A
:100C100000F0C2FDA0700020F8BD2DE9F04791461C
:100C20000C465FEA00084AD084B3D8F80000406858
:100C3000400744D4404600F04DFE4FF46162054643
:100C4000B0FBF2F1B0FBF2F302FB13503C23B0FB1C
:100C5000F3F0B5FBF2F6607002FB1650B0FBF3F256
:100C600003FB1200A070182931D31820B1FBF0F754
:100C7000B1FBF0F200FB12102070404600F023FEA2
:100C8000411C04D0A84202D9461B02E017E04FF0F5
:100C9000FF36A7EB071000EB4000C0EB001005EBA0
:100CA000C0152946404600F064FE40B9701C01D0D2
:100CB000711900E03146404600F047FE10B10120B6
:100CC000BDE8F0873946404600F071FD00E0217034
:100CD000B9F1000F0BD0207800F05EFD2070607835
:100CE00000F05AFD6070A07800F056FDA070002062
:100CF000E6E7000070B5040003D0607C002610B168
:100D000005E0012070BD2674204600F043F8022063
:100D10006074204600F010F9042578BB204600F0EE
:100D20009DFD58BB2068416821F007014160A06823
:100D300020B11748016821F0010101601448001F2B
:100D40000168A26821F46071114301606068411C70
:100D500004D10120FFF7DCFB80B1401E21688A68C6
:100D600022F00F0242EA10428A602168CA6860F3EA
:100D70000F02CA60204600F08BFD08B16574C0E721
:100D8000E67301206073A0736074002070BD0000E2
:100D9000306C004008B50068084988420DD1FFF763
:100DA000B1FB0748C16941F00061C161C0690549F3
:100DB00000F0006000900120086008BD002800409D
:100DC000001002403C0442422DE9F0410D4604006F
:100DD0003BD0C5B3207C01283AD04FF0010884F8FD
:100DE000108002206074E87872B300F0CCFCE073ED
:100DF000687800F0C8FC6073A87800F0C4FCA073A9
:100E0000C2B2617BE07B00F075FD20732870204644
:100E100000F060FD4FF46161B0FBF1F1002518298D
:100E20002DD91822B1FBF2F1A1EB011101EB410127
:100E3000C1EB011100EBC1163146204600F099FDCF
:100E40000427C8B90BE000E004E00120BDE8F08110
:100E50000220FBE7E07368786073A878CFE720464C
:100E600000F031FD411C0AD0B04208D206490144CD
:100E7000204600F06AFD10B167742574E5E784F838
:100E8000118025740020E1E7805101002DE9F04137
:100E90000D46040024D01DB3207C012823D04FF040
:100EA000010884F81080022060742878EAB100F00C
:100EB0006AFC4FF4616100FB01F6687800F063FCA6
:100EC000C0EB001006EB8006A87800F05CFC35183B
:100ED0002946204600F04DFD0026042710BB0FE0F8
:100EE0000120BDE8F0810220FBE74FF46161484337
:100EF0006978C1EB011100EB8100A9784518E7E79B
:100F00002068416821F005014160204600F0DBFCCB
:100F1000411C0AD0A84208D206490144204600F0EC
:100F200014FD10B167742674DAE784F81180267412
:100F30000020D6E78051010070B504000AD0206877
:100F4000416821F008014160FFF740FA05464FF47F
:100F50007A7608E0012070BDFFF738FA401BB042F6
:100F600001D9032070BD206840680007F4D5002037
:100F700070BD10B5401EB0F1807F01D3012010BDBF
:100F80004FF0E02460610F21601700F0EBFB0020C0
:100F9000A06107202061002010BD7047704730B568
:100FA00090F83C20012A20D0012280F83C20022326
:100FB00080F83D3003685C6824F070045C6003686E
:100FC0005C680D682C435C6003689C6824F08004B6
:100FD0009C6003689C6849680C439C6080F83D20D5
:100FE000002180F83C10084630BD022030BD10B50D
:100FF000040003D094F83D0010B107E0012010BDBB
:10100000002084F83C00204600F00CF8022084F810
:101010003D00211D206800F01FFD012084F83D00E7
:10102000002010BD08B5114A01681148914211D144
:10103000816941F4006181618069002200F40060EF
:10104000009011461920FFF72BFABDE8084019203F
:10105000FFF71ABAB1F1804F07D1C16941F0010120
:10106000C161C06900F00100009008BD002C014082
:1010700000100240022180F83D1001680A6842F029
:1010800001020A60012180F83D10002070470168CC
:10109000CA6842F00102CA600068016841F00101BB
:1010A00001600020704770B5044690F83C000128AC
:1010B00017D0012584F83C50022084F83D002068B8
:1010C000826822F0770222F47F428260086850280A
:1010D00037D00DDC202859D005DC88B3102841D149
:1010E00051E0022070BD302853D040283AD13FE073
:1010F00060282ED070280BD0B0F5805F03D0B0F5FB
:10110000005F2FD110E02068816821F0070115E011
:10111000CB68D1E90121206800F0EFFC21688868E4
:1011200040F0770088601DE0CB68D1E9012120689C
:1011300000F0E3FC2068816841F48041816011E0A7
:101140001EE0CA684968206800F0ACFD50212068A4
:1011500006E0CA684968206800F0B5FD6021206893
:1011600000F0D5FC84F83D50002084F83C0070BDB0
:10117000CA684968206800F095FD40212068EFE7C3
:1011800000212068ECE710212068E9E72021206891
:10119000E6E730212068E3E7704770B50446006851
:1011A00001694FF00005C943890715D4C168C943D7
:1011B000890711D4E91E0161012020772068806928
:1011C0008007204602D0FFF7E7FF04E000F0F3F8C5
:1011D000204600F00DF9257720680169C9434907C9
:1011E00017D4C168C943490713D46FF004010161E2
:1011F000022020772068806910F4407F204602D0CA
:10120000FFF7CAFF04E000F0D6F8204600F0F0F83F
:10121000257720680169C943090716D4C168C94305
:10122000090712D46FF008010161042020772068BB
:10123000C0698007204602D0FFF7AEFF04E000F04F
:10124000BAF8204600F0D4F8257720680169C94330
:10125000C90617D4C168C943C90613D46FF0100179
:101260000161082020772068C06910F4407F204683
:1012700002D0FFF791FF04E000F09DF8204600F057
:10128000B7F8257720680169C943C90708D1C16843
:10129000C943C90704D1891E0161204600F0C6F880
:1012A00020680169C943090609D4C168C943090610
:1012B00005D46FF0800101612046FFF76EFE2068C3
:1012C0000169C943490609D4C168C943490605D41F
:1012D0006FF040010161204600F0E6F820680169E6
:1012E000C94389060BD4C168C943890607D46FF086
:1012F000200101612046BDE87040FFF74FBE70BD80
:1013000000B585B000210091019102910391006820
:10131000B0F1804F1BD10F48816941F00401816118
:101320008069694600F0040004904FF4004000908A
:101330000220019003900848FEF74EFF07484168DD
:1013400021F4407141F0E06141F48071416005B0E9
:1013500000BD0000001002400008014000000140F4
:1013600070B5044690F83C0001280DD0012584F8A2
:101370003C50022084F83D0042B1042A0AD0082AD9
:101380000CD00C2A11D10DE0022070BD206800F0B5
:10139000C7FB0AE0206800F0F3FB06E0206800F0DD
:1013A00025FC02E0206800F055FC84F83D50002048
:1013B00084F83C0070BD704710B5040003D094F869
:1013C0003D0010B107E0012010BD002084F83C0072
:1013D000204600F00CF8022084F83D00211D206812
:1013E00000F03AFB012084F83D00002010BD70475A
:1013F0007047000010B504460068012200F072FB3F
:1014000008492068884202D00749884203D1416CCC
:1014100041F4004141642068016841F0010101602C
:10142000002010BD002C01400034014070B5006860
:10143000174988422BD11748174C0023027841786E
:1014400004EBC22404EB0125144CEE5C26602668F4
:1014500046F0400626605B1CFF2BF6DD104B1C6837
:1014600044F010041C600F4C094D2C3534F8114029
:101470002C601A60491CC9B24170082907D10021AB
:10148000521CD2B241700270042A00D1017070BDAA
:10149000002C014000000020BE1800200C14014068
:1014A0000C080140E0FB00087047FEE730B500285B
:1014B000039C0FDB00290DDB1F280BDC3F2909DC17
:1014C000054D05EB80104254084480F8003800F5C3
:1014D0008050047030BD0000BE0000202DE9FF4F99
:1014E00083B00020DDE910A99B4614460E468DF816
:1014F00008000546DFF83C8015E002A9204600F010
:10150000F5FB0746CDE900A93A465B46314603980C
:1015100000F012F89DF80800044418F8070081193B
:1015200028444EB245B220780028E6D107B02846BC
:10153000BDE8F08FEEFB00082DE9F84F0746DDE926
:101540000AB91A489A468846002500EB421600243C
:10155000E11704EB517105EBE101C4F10F00725C7E
:10156000C11700EB517121F00701401AC1B21046BA
:1015700000F07AFC88B105EBD57007EB600081289C
:1015800011D208EB0401FF290DD849B240B25B46E5
:101590005246CDF80090FFF789FF641C102CD7DB72
:1015A000AD1C202DD3DBBDE8F88F00006866000875
:1015B0002DE9F04186B000241C4800940194029467
:1015C0000394816941F004018161816901F00401A2
:1015D0000491816941F0200181618069144F00F01C
:1015E0002000049001221F213846FEF7E9FEDFF8B3
:1015F000448001227F214046FEF7E2FE1F200125A4
:101600000326CDE90005CDE9024669463846FEF7D6
:10161000E3FD7F20CDE90005CDE90246694640465D
:10162000FEF7DAFD06B0BDE8F081000000100240D0
:1016300000080140001401401CB500241548019425
:10164000134900940160611E416080218160FFF7B1
:1016500051FB0C208DF804008DF805408DF80640F4
:10166000002201A90B48FFF711FC02208DF80000B1
:1016700004208DF8010007208DF8020014208DF859
:101680000300002269460348FFF79EFB1CBD0000D3
:10169000002800408045002010B586B00024124884
:1016A000009401940294039404940E4905940160FB
:1016B00005214160102181602821C0E903144461A3
:1016C0008461FFF794FC4FF480500090694606480F
:1016D000FFF7E9FC049404A903480594FFF75FFCB5
:1016E00006B010BD002C01409445002010B58EB00E
:1016F00000240794089409940A940B941C216846CA
:101700000C94FEF74AFD15484FF08041C0E90014E3
:101710006421C0E9024104618461FFF768FC4FF471
:101720008050079007A90D48FFF7BDFC0B48FFF755
:1017300043FE0B940BA909480C94FFF730FC00946E
:10174000019402940022694604480494FFF708FEBD
:101750000248FFF7D5FD0EB010BD0000D4450020B3
:10176000FEE770470907090E002806DA00F00F00AF
:1017700000F1E02080F8141D704700F1E02080F8AF
:10178000001470477047010901EB810100F00F0060
:1017900000EB4100C0B27047002102E00A38C0B23D
:1017A000491C0A28FAD2090740EA116070472DE95E
:1017B000F04104460025C07B627BA37B42E0012A06
:1017C00016D0032A14D0052A12D0072A10D0082ACE
:1017D0000ED00A2A0CD00C2A0AD0042A10D0062ACD
:1017E0000ED0092A0CD00B2A0AD0022A0DD028E0EC
:1017F0001F2B0CD30C2A05D101221346401C20E0DC
:101800001E2B04D30123521C1BE01C2B02D203F11C
:10181000010316E011D183B29E0710D16426B3FBF9
:10182000F6F706FB173636B94FF4C876B3FBF6F772
:1018300006FB17331BB91D2303E01D2B01D1032227
:1018400001236D1C8D42BAD3D1B2E0736173DAB259
:10185000A27300F04FF82073BDE8F08170B5044624
:10186000FEF7B4FD05464FF47A7606E0FEF7AEFDCE
:10187000401BB04201D9032070BD2068406880063B
:10188000F4D52068416841F010014160002070BD2E
:1018900070B504460068416821F010014160FEF710
:1018A00095FD05464FF47A7607E000BFFEF78EFD02
:1018B000401BB04201D9032070BD206840688006FB
:1018C000F4D5002070BD0168086A496A89B241EA0E
:1018D00000407047006881698AB2C1698BB2816932
:1018E00089B28A4203D0C06961F31F40704743EA5E
:1018F00002407047F0B56424C1EBC1030927A5007D
:10190000072603EB01130329B3FBF7F100F5FA6097
:10191000114401440AD2401EB0FBF4F201EB9001E5
:10192000B0FBF5F0891A0844001D08E0B0FBF4F2A2
:1019300001EB9001B0FBF5F0891A0844801CB0FB64
:10194000F6F106FB1100C0B2F0BD70B50D460646BB
:101950000024FFF783FF48B93168280C086231681A
:10196000A8B248623046FFF793FF00B10124204639
:1019700070BD70B50D4606460024FFF76FFF48B9ED
:101980003168280C88613168A8B2C8613046FFF719
:101990007FFF00B10124204670BD7047FEF71CBDDB
:1019A00070B596B028216846FEF7F7FB14210AA807
:1019B000FEF7F3FB18210FA8FEF7EFFB01240A2026
:1019C00000901020CDE9044000254FF4601002265D
:1019D000CDE90850CDE906466846FEF775FF0F20B1
:1019E000CDE90A06A002CDE90C5002210AA80E9505
:1019F000FEF76EFE6002CDE90F400FA8FEF7F2FD84
:101A000016B070BD0D48016841F0010101604168E8
:101A10000B4A1140416001680A4A114001600168A7
:101A200021F480210160416821F4FE0141604FF4FE
:101A30001F0181600449C003086070470010024024
:101A40000000FFF8FFFFF6FE08ED00E00148FFF799
:101A5000A4BB000094450020F0B502681C4B1D4D4E
:101A60001D4E1E4F1E4C4FF0804C984209D0A04294
:101A700007D0604505D0A84203D0B04201D0B8429B
:101A800004D122F0700E4A6842EA0E02984209D050
:101A9000A04207D0604505D0A84203D0B04201D093
:101AA000B84203D122F44075CA682A4322F0800567
:101AB0004A692A4302608A68C2620A68826298425E
:101AC00001D0A04201D10969016301214161F0BD4A
:101AD000002C01400004004000080040000C0040C1
:101AE0000034014010B50123046A8B409C4304621A
:101AF000036A8A401343036210BD10B5846842EA4A
:101B0000032224F47F440A432243826010BD82688A
:101B100022F070020A4342F0070181607047000022
:101B2000F0B5026A22F001020262036A4268846927
:101B3000124E24F073050C682C4323F002058B68C9
:101B40002B430D4DA84201D0B04205D123F0080728
:101B5000CB683B4323F00403A84201D0B04205D137
:101B60004D6922F4407215438A692A4342608461B8
:101B7000496841630362F0BD002C0140003401401C
:101B8000F0B5026A22F010020262026A43688469B8
:101B90000D6824F4E64444EA05248D6822F020020E
:101BA00042EA05120F4D104EA84201D0B04206D1B4
:101BB000CF6822F0800242EA071222F04002A842D7
:101BC00001D0B04207D14D6923F4406343EA850355
:101BD0008D6943EA850343608461496881630262D9
:101BE000F0BD0000002C014000340140F0B5026A55
:101BF00022F480720262026A4368C46922F40072AD
:101C000024F073050C68124E2C438D6842EA0522BD
:101C10000E4DA84201D0B04206D1CF6822F4006236
:101C200042EA072222F48062A84201D0B04207D1E2
:101C30004D6923F4405343EA05138D6943EA0513C4
:101C40004360C4614968C1630262F0BD002C014079
:101C50000034014030B5026A22F480520262046A04
:101C60004268C3690D6823F4E64343EA05238D689F
:101C700024F4005444EA0534084DA84202D0084D2B
:101C8000A84204D14D6922F4804242EA85124260A2
:101C9000C36149680164046230BD0000002C01404A
:101CA0000034014010B5036A046A24F001040462A0
:101CB000846924F0F00444EA021423F00A020A437F
:101CC0008461026210BD10B5036A23F01003036241
:101CD0008369046A23F4704343EA023224F0A003C8
:101CE00043EA01118261016210BD000001220A7005
:101CF00003787F2B01D218467047002203F0F003CF
:101D0000C02B04D0E02B08D0F02B0FD01AE0022219
:101D10000A7001784278090213E003220A70017800
:101D20004278090441EA022182780AE004220A701A
:101D300001784278090641EA0241827841EA0221AB
:101D4000C2780A430949002051F82030934206D155
:101D50001F2801D2401C00E06030C0B27047401C18
:101D6000C0B29028F0D33F2070470000688400087C
:101D7000FEE702E008C8121F08C1002AFAD1704726
:101D80007047002001E001C1121F002AFBD17047FB
:101D90002DE9FF4F814682B03248324DDDE911BA5C
:101DA000407A38350F462E1DA8B100244FEA0408AA
:101DB000CDF80080CDF80480285D325D384441B212
:101DC00002EB090040B200230F9AFFF787FB641C67
:101DD00014F0FF04ECD0234E00247436CDE900BA91
:101DE00016F8240006EB840538446A7841B202EB09
:101DF0000900DDE90F2340B2FFF770FBC3B21948B9
:101E000018491B3038314370164A16F8240008551B
:101E10003C3269781155AA78104410F0FF0006F89A
:101E2000240095F803C06144C9B2697006D0DDF89A
:101E30001080A8EB0303DB1C984201D15042A8702C
:101E400019B105980938814202D1CCF10000E8703F
:101E5000641C14F0FF04C1D002480121417206B095
:101E6000BDE8F08F0000002001228A40024201D12B
:101E700000207047012070472DE9F84F984617461B
:101E8000894682460025204E25E0002420E000BF40
:101E9000B17F84EA050000EA010296F82000631B86
:101EA0004243D2B2009296F8282004EB050C9B1A0C
:101EB00062440B400A404343424304EB0A0041B2F0
:101EC00005EB0900DBB2D2B240B2FFF7EFFA641CB7
:101ED000BC42DDDD6D1C4545D7DD308D800501D070
:101EE000B06A0DE0FEF740F9F083FEF73DF90921F5
:101EF00090FBF1F201FB1200401C30840020B06224
:101F0000401CB062BDE8F88F000000202DE9F04FC2
:101F10000025AA4601204FF0020CDFF844E2AB4650
:101F200003E000BF4FF0000A01208E490EEBC522EE
:101F300001EB8519002402EB0A2101E0402C69D253
:101F400004F00702E30802EB03128B1801F802B059
:101F500083F808B019F80460064201D001268E54B7
:101F600009EB040696F80071074201D001271F72A1
:101F700096F80072074203D08F5C47F002078F5437
:101F800096F80073074203D01F7A47F002071F72CA
:101F900096F80078074203D08F5C47F004078F540F
:101FA00096F80079074203D01F7A47F004071F72A2
:101FB00096F8007A074203D08F5C47F008078F54E9
:101FC00096F8007B074203D01F7A47F008071F727C
:101FD00006F580563778074203D08F5C47F010072C
:101FE0008F5496F80071074203D01F7A47F010070C
:101FF0001F7296F80072074203D08F5C47F02007EB
:102000008F5496F80023024203D01A7A42F020023D
:102010001A728EE0C5F103030EEBC32304F007022E
:10202000E70803EB0A2302EB07129F18C4F17F08AD
:1020300003F802B009EB080687F808B096F80084A8
:1020400018EA000F01D087F808C096F8008518EA52
:10205000000F01D003F802C096F8008618EA000FBE
:1020600005D097F8088048F0010887F8088096F8AE
:10207000008718EA000F05D013F8028048F0010825
:1020800003F8028096F8008C18EA000F05D097F844
:10209000088048F0080887F8088096F8008D18EA4C
:1020A000000F05D013F8028048F0080803F80280FA
:1020B00096F8008E18EA000F05D097F8088048F0CF
:1020C000040887F8088096F8008F18EA000F05D0FA
:1020D00013F8028048F0040803F8028006F58056E1
:1020E00096F8008418EA000F05D097F8088048F0A9
:1020F000200887F8088096F8008518EA000F05D0B8
:1021000013F8028048F0200803F8028096F8008651
:1021100018EA000F05D097F8088048F0100887F8F3
:10212000088096F80067064203D09E5C46F01006D1
:102130009E54641CE4B2802CFFF400AF40060AF108
:102140000101000E01F0FF0ABAF1080FFFF4E8AE3A
:102150006D1CEDB2042DFFF4E5AEBDE8F08F00007C
:10216000BE180020BE00002010B500220D490E4808
:10217000FEF753FD0B4900220A310B48FEF726FDFE
:102180000849A1F122000A7882744A78C2748978D9
:10219000017500F12C018A7882754A78C275C97878
:1021A000017610BD22000020804500201FB5FEF7FB
:1021B0001BF9FFF7F5FBFFF7FBF9FFF76DFAFFF7E8
:1021C00095FAFFF739FA2348FEF761FF21484030BE
:1021D000FEF750FF1F4800214030FFF70BF91D4963
:1021E0002820403109684863FFF7BEFF1A4D0027D9
:1021F00005F10A06A5F122044FF0FF081548002258
:1022000015491438FEF709FD1349124800220A3116
:102210001438FEF7DBFC2878A0746878E074A8789E
:102220002075B078A0757078E075F0782076002180
:102230001F233F220846FFF71FFE08A18DE88201F9
:102240001C233E220121FE200397FFF7A1FDFFF78B
:102250005DFED3E79445002022000020C490E1BB3E
:10226000A963206D74000000000000000000000061
:10227000183C3C181800180036360000000000001A
:1022800036367F367F3636000C3E031E301F0C007C
:10229000006333180C6663001C361C6E3B336E0003
:1022A0000606030000000000180C0606060C1800C5
:1022B000060C1818180C060000663CFF3C6600006F
:1022C000000C0C3F0C0C000000000000000C0C0681
:1022D0000000003F0000000000000000000C0C00A7
:1022E0006030180C060301003E63737B6F673E008D
:1022F0000C0E0C0C0C0C3F001E33301C06333F0040
:102300001E33301C30331E00383C36337F307800AB
:102310003F031F3030331E001C06031F33331E00E3
:102320003F3330180C0C0C001E33331E33331E00A9
:102330001E33333E30180E00000C0C00000C0C0055
:10234000000C0C00000C0C06180C0603060C180000
:1023500000003F00003F0000060C1830180C06007B
:102360001E3330180C000C003E637B7B7B031E0089
:102370000C1E33333F3333003F66663E66663F00D4
:102380003C66030303663C001F36666666361F0024
:102390007F46161E16467F007F46161E16060F0045
:1023A0003C66030373667C003333333F33333300BF
:1023B0001E0C0C0C0C0C1E007830303033331E0019
:1023C0006766361E366667000F06060646667F009D
:1023D00063777F7F6B63630063676F7B7363630007
:1023E0001C36636363361C003F66663E06060F00BC
:1023F0001E3333333B1E38003F66663E3666670049
:102400001E33070E38331E003F2D0C0C0C0C1E0023
:102410003333333333333F0033333333331E0C0022
:102420006363636B7F7763006363361C1C366300F2
:102430003333331E0C0C1E007F6331184C667F0053
:102440001E06060606061E0003060C183060400035
:102450001E18181818181E00081C3663000000000B
:1024600000000000000000FF0C0C1800000000003D
:1024700000001E303E336E000706063E66663B00D7
:1024800000001E3303331E003830303E33336E00FD
:1024900000001E333F031E001C36060F06060F0009
:1024A00000006E33333E301F0706366E66666700E7
:1024B0000C000E0C0C0C1E00300030303033331E7C
:1024C000070666361E3667000E0C0C0C0C0C1E0040
:1024D0000000337F7F6B630000001F333333330012
:1024E00000001E3333331E0000003B66663E060FBD
:1024F00000006E33333E307800003B6E66060F00FE
:1025000000003E031E301F00080C3E0C0C2C18006F
:102510000000333333336E0000003333331E0C00BE
:102520000000636B7F7F3600000063361C3663005B
:1025300000003333333E301F00003F190C263F00AC
:10254000380C0C070C0C3800181818001818180054
:10255000070C0C380C0C07006E3B0000000000005C
:10256000000000000000000000000000000000006B
:10257000000000000000000000000000000000005B
:10258000000000000000000000000000000000004B
:10259000000000000000000000000000000000003B
:1025A000000000000000000000000000000000002B
:1025B000000000000000000000000000000000001B
:1025C000000000000000000000000000000000000B
:1025D00000000000000000000000000000000000FB
:1025E00000000000000000000000000000000000EB
:1025F00000000000000000000000000000000000DB
:1026000000000000000000000000000000000000CA
:1026100000000000000000000000000000000000BA
:1026200000000000000000000000000000000000AA
:10263000000000000000000000000000000000009A
:10264000000000000000000000000000000000008A
:10265000000000000000000000000000000000007A
:10266000000000000000000000000000000000006A
:10267000000000003FF03FF0F03CF03CF03CF03C4C
:10268000F3FCF3FCF3FCF3FCF3FCF3FCF3F0F3F0EA
:10269000F000F0003FF03FF00000000000000000FC
:1026A000000000000000000000000000000000002A
:1026B0001FF83FFC700EE007CC33CC33C003C003DF
:1026C000C003C003CC33CE73C7E3C3C3C003C0038E
:1026D000E007700E3FFC1FF8000000000000000043
:1026E00000000000000000000000000000000000EA
:1026F0001FF83FFC7FFEFFFFF3CFF3CFFFFFFFFF8D
:10270000FFFFFFFFF3CFF18FF81FFC3FFFFFFFFF3D
:10271000FFFF7FFE3FFC1FF80000000000000000EC
:1027200000000000000000000000000000000000A9
:10273000000000000000000038707CF8FFFCFFFC87
:10274000FFFCFFFCFFFCFFFC7FF87FF83FF01FE081
:102750000FC0078003000000000000000000000020
:102760000000000000000000000000000000000069
:102770000000000000000000030007800FC01FE001
:102780003FF07FF8FFFCFFFC7FF83FF01FE00FC039
:1027900007800300000000000000000000000000AF
:1027A0000000000000000000000000000000000029
:1027B0000000000003C003C00FF00FF00FF00FF097
:1027C000FC3FFC3FFC3FFC3FFC3FFC3F03C003C021
:1027D00003C003C00FF00FF0000000000000000075
:1027E00000000000000000000000000000000000E9
:1027F00000000000018003C007E00FF01FF83FFC5D
:102800007FFEFFFFFFFFFFFFFFFF7FFE3BDC03C0FC
:1028100003C003C00FF00FF0000000000000000034
:1028200000000000000000000000000000000000A8
:102830000000000000000000000000000000000098
:1028400003C007E00FF00FF00FF00FF007E003C038
:102850000000000000000000000000000000000078
:102860000000000000000000FFFFFFFFFFFFFFFF70
:10287000FFFFFFFFFFFFFFFFFFFFFFFFFFFFFFFF68
:10288000FC3FF81FF00FF00FF00FF00FF81FFC3FA8
:10289000FFFFFFFFFFFFFFFFFFFFFFFFFFFFFFFF48
:1028A000FFFFFFFFFFFFFFFF000000000000000030
:1028B0000000000000000000000000000FF01FF802
:1028C0003C3C381C300C300C300C300C381C3C3C80
:1028D0001FF80FF0000000000000000000000000E2
:1028E0000000000000000000FFFFFFFFFFFFFFFFF0
:1028F000FFFFFFFFFFFFFFFFFFFFFFFFF81FF00FCE
:10290000E3C7C7E3CFF3CFF3CFF3CFF3C7E3E3C717
:10291000F00FF81FFFFFFFFFFFFFFFFFFFFFFFFFAD
:10292000FFFFFFFFFFFFFFFF0000000000000000AF
:1029300003FC03FC007C00FC01FC03EC07CC0F8CC7
:102940003FC07FE0F9F0F0F0F0F0F0F0F0F0F0F0E0
:10295000F0F0F9F07FE03FC0000000000000000050
:102960000000000000000000000000000000000067
:102970000FF01FF83E7C3C3C3C3C3C3C3C3C3C3C2F
:102980003C3C3E7C1FF80FF003C003C03FFC3FFC03
:1029900003C003C003C003C000000000000000002B
:1029A0000000000000000000000000000000000027
:1029B0000FFF0FFF0F0F0F0F0FFF0FFF0F000F0085
:1029C0000F000F000F000F000F000F003F003F002F
:1029D000FF00FF00FC00FC00000000000000000001
:1029E00000000000000000000000000000000000E7
:1029F0003FFF3FFF3C0F3C0F3FFF3FFF3C0F3C0FB3
:102A00003C0F3C0F3C0F3C0F3C0F3C0F3C3F3C3F0E
:102A1000FC3FFC3FFC3CFC3CF000F00000000000F0
:102A200000000000000000000000000000000000A6
:102A30000000000003C003C003C003C0F3CFFBDFEE
:102A40001FF80FF0FC3FFC3F0FF01FF8FBDFF3CF48
:102A500003C003C003C003C000000000000000006A
:102A60000000000000000000000000008000C00026
:102A7000E000F000F800FC00FE00FF00FF80FFC057
:102A8000FFFCFFFCFFC0FF80FF00FE00FC00F80021
:102A9000F000E000C0008000000000000000000026
:102AA0000000000000000000000000000004000C16
:102AB000001C003C007C00FC01FC03FC07FC0FFC3C
:102AC000FFFCFFFC0FFC07FC03FC01FC00FC007C8E
:102AD000003C001C000C000400000000000000008E
:102AE00000000000000000000000000000000000E6
:102AF000018003C007E00FF01FF83FFC03C003C0D4
:102B000003C003C003C003C03FFC1FF80FF007E081
:102B100003C0018000000000000000000000000071
:102B200000000000000000000000000000000000A5
:102B30003C3C3C3C3C3C3C3C3C3C3C3C3C3C3C3CD5
:102B40003C3C3C3C3C3C3C3C3C3C3C3C00000000B5
:102B50003C3C3C3C3C3C3C3C000000000000000095
:102B60000000000000000000000000000000000065
:102B70003FFF7FFFFBCFF3CFF3CFF3CFF3CFFBCFFD
:102B80007FCF3FCF03CF03CF03CF03CF03CF03CFFD
:102B900003CF03CF03CF03CF0000000000000000ED
:102BA0000000000000000000000000003FF03FF0C7
:102BB000F03CF03C3C003C000FC00FC03CF03CF04F
:102BC000F03CF03CF03CF03C3CF03CF00FC00FC05F
:102BD00000F000F0F03CF03C3FF03FF0000000005F
:102BE00000000000000000000000000000000000E5
:102BF00000000000000000000000000000000000D5
:102C00000000000000000000FFFCFFFCFFFCFFFCD8
:102C1000FFFCFFFCFFFCFFFC0000000000000000C8
:102C200000000000000000000000000000000000A4
:102C3000018003C007E00FF01FF83FFC03C003C092
:102C400003C003C003C003C03FFC1FF80FF007E040
:102C500003C001803FFC3FFC0000000000000000BA
:102C60000000000000000000000000000000000064
:102C7000018003C007E00FF01FF83FFC03C003C052
:102C800003C003C003C003C003C003C003C003C02C
:102C900003C003C003C003C0000000000000000028
:102CA0000000000000000000000000000000000024
:102CB00003C003C003C003C003C003C003C003C0FC
:102CC00003C003C003C003C003C003C03FFC1FF820
:102CD0000FF007E003C001800000000000000000CA
:102CE00000000000000000000000000000000000E4
:102CF00000000000000000000000000001C000E033
:102D000000700038FFFCFFFC0038007000E001C0DC
:102D100000000000000000000000000000000000B3
:102D200000000000000000000000000000000000A3
:102D30000000000000000000000000000E001C0069
:102D400038007000FFFCFFFC700038001C000E0013
:102D50000000000000000000000000000000000073
:102D60000000000000000000000000000000000063
:102D70000000000000000000000000000000000053
:102D8000F000F000F000F000F000F000FFFCFFFCAD
:102D90000000000000000000000000000000000033
:102DA0000000000000000000000000000000000023
:102DB0000000000000000000000000000840186053
:102DC00038707878FFFCFFFC78783870186008401D
:102DD00000000000000000000000000000000000F3
:102DE00000000000000000000000000000000000E3
:102DF00000000000000000000300030007800780BF
:102E00000FC00FC01FE01FE03FF03FF07FF87FF8DA
:102E1000FFFCFFFC000000000000000000000000BC
:102E200000000000000000000000000000000000A2
:102E30000000000000000000FFFCFFFC7FF87FF8AE
:102E40003FF03FF01FE01FE00FC00FC0078007807A
:102E5000030003000000000000000000000000006C
:102E60000000000000000000000000000000000062
:102E70000000000000000000000000000000000052
:102E80000000000000000000000000000000000042
:102E90000000000000000000000000000000000032
:102EA0000000000000000000000000000000000022
:102EB00003C007E00FF00FF00FF00FF00FF00FF06E
:102EC00007E007E007E003C003C003C00000000004
:102ED00003C003C003C003C00000000000000000E6
:102EE0000000000000000000000000003C3C3C3CF2
:102EF0003C3C3C3C3C3C1C380C30000000000000DA
:102F000000000000000000000000000000000000C1
:102F100000000000000000000000000000000000B1
:102F200000000000000000000000000000000000A1
:102F3000000000003CF03CF03CF03CF0FFFCFFFCEB
:102F40003CF03CF03CF03CF03CF03CF0FFFCFFFC83
:102F50003CF03CF03CF03CF00000000000000000C1
:102F60000000000000000000078007800780078045
:102F70003FF07FF8F87CF03CF01CF000F000F80027
:102F80007FF03FF8007C003C003C003C003CE03C13
:102F9000F03CF87C7FF83FF00780078007800780CF
:102FA0000000000000000000000000000000000021
:102FB000000000007878FC78CCF0CCF0FDE079E0FF
:102FC00003C003C0078007800F000F001E781EFC9F
:102FD0003CCC3CCC78FC787800000000000000007D
:102FE00000000000000000000000000000000000E1
:102FF0000FC01FE03CF03CF03CF03CF01DE01FC077
:103000003F1C7FBCFBF8F1F0F0F0F0E0F0E0F0E006
:10301000F0F0F9F07FF83F3C0000000000000000F5
:103020000000000000000000000000000F000F0082
:103030000F001F003E003C000000000000000000E8
:103040000000000000000000000000000000000080
:103050000000000000000000000000000000000070
:103060000000000000000000000000000000000060
:10307000007000F001E003C0078007800F000F0020
:103080000F000F000F000F000F000F0007800780D8
:1030900003C001E000F0007000000000000000002C
:1030A0000000000000000000000000000000000020
:1030B0000E000F00078003C001E001E000F000F007
:1030C00000F000F000F000F000F000F001E001E09E
:1030D00003C007800F000E00000000000000000089
:1030E00000000000000000000000000000000000E0
:1030F00000000000000000000000000038703CF0FC
:103100001FE00FC07FF8FFFC7FF80FC01FE03CF00E
:103110003870000000000000000000000000000007
:10312000000000000000000000000000000000009F
:103130000000000000000000000000000780078081
:10314000078007807FF87FF87FF807800780078077
:1031500007800000000000000000000000000000E8
:10316000000000000000000000000000000000005F
:10317000000000000000000000000000000000004F
:10318000000000000000000000000000000000003F
:1031900003C003C003C007C00F800F000000000081
:1031A000000000000000000000000000000000001F
:1031B000000000000000000000000000000000000F
:1031C00000000000FFFCFFFCFFFC0000000000000E
:1031D00000000000000000000000000000000000EF
:1031E00000000000000000000000000000000000DF
:1031F00000000000000000000000000000000000CF
:1032000000000000000000000000000000000000BE
:1032100003C003C003C003C00000000000000000A2
:10322000000000000000000000000000000000009E
:10323000003C003C0078007800F000F001E001E084
:1032400003C003C0078007800F000F001E001E0090
:103250003C003C0078007800F000F0000000000026
:10326000000000000000000000000000000000005E
:103270001FE03FF07CF8F87CF03CF03CF03CF33C85
:10328000F7BCF7BCF7BCF7BCF33CF03CF03CF03CBF
:10329000F87C7CF83FF01FE0000000000000000018
:1032A000000000000000000000000000000000001E
:1032B00003C007C00FC01FC03FC003C003C003C08E
:1032C00003C003C003C003C003C003C003C003C0E6
:1032D00003C003C03FFC3FFC0000000000000000F2
:1032E00000000000000000000000000000000000DE
:1032F0003FF07FF8F87CF03CE03C003C007C00F8BC
:1033000001F003E007C00F801F003E007C00F800C2
:10331000F03CF03CFFFCFFFC00000000000000005F
:10332000000000000000000000000000000000009D
:103330003FF07FF8F87CF03C003C003C003C00781B
:103340000FF00FF00078003C003C003C003C003CDB
:10335000F03CF87C7FF83FF0000000000000000027
:10336000000000000000000000000000000000005D
:1033700000F001F003F007F00FF01FF03EF07CF0DA
:10338000F8F0F0F0FFFCFFFC00F000F000F000F0BF
:1033900000F000F003FC03FC00000000000000004F
:1033A000000000000000000000000000000000001D
:1033B000FFFCFFFCF000F000F000F000F000F00077
:1033C000FFF0FFF8007C003C003C003C003C003C6F
:1033D000F03CF87C7FF83FF00000000000000000A7
:1033E00000000000000000000000000000000000DD
:1033F0000FF01FF03E007C00F800F000F000F0003D
:10340000FFF0FFF8F87CF03CF03CF03CF03CF03C86
:10341000F03CF87C7FF83FF0000000000000000066
:10342000000000000000000000000000000000009C
:10343000FFFCFFFCF03CF03C003C003C007C00F852
:1034400001F003E007C00F800F000F000F000F0016
:103450000F000F000F000F00000000000000000030
:10346000000000000000000000000000000000005C
:103470003FF07FF8F87CF03CF03CF03CF03C787892
:103480003FF03FF07878F03CF03CF03CF03CF03C12
:10349000F03CF87C7FF83FF00000000000000000E6
:1034A000000000000000000000000000000000001C
:1034B0003FF07FF8F87CF03CF03CF03CF03CF87CCE
:1034C0007FFC3FFC003C003C003C003C003C007C9E
:1034D00000F801F03FE03FC00000000000000000E5
:1034E00000000000000000000000000000000000DC
:1034F000000000000000000003C003C003C003C0C0
:1035000000000000000000000000000003C003C035
:1035100003C003C000000000000000000000000025
:10352000000000000000000000000000000000009B
:10353000000000000000000003C003C003C003C07F
:10354000000000000000000000000000000000007B
:1035500003C003C003C007C00F800F0000000000BD
:10356000000000000000000000000000000000005B
:1035700000000000003C007C00F801F003E007C000
:103580000F801F003E003E001F000F8007C003E0B9
:1035900001F000F8007C003C00000000000000008A
:1035A000000000000000000000000000000000001B
:1035B0000000000000000000000000000000FFFC10
:1035C000FFFCFFFC000000000000FFFCFFFCFFFC14
:1035D00000000000000000000000000000000000EB
:1035E00000000000000000000000000000000000DB
:1035F000000000003C003E001F000F8007C003E0F9
:1036000001F000F8007C007C00F801F003E007C046
:103610000F801F003E003C00000000000000000082
:10362000000000000000000000000000000000009A
:103630003FF07FF8F87CF03CF03CF03C003C007C34
:1036400000F801F003E003C003C003C00000000065
:1036500003C003C003C003C000000000000000005E
:10366000000000000000000000000000000000005A
:10367000000000003FF07FF8F87CF03CF03CF03CAC
:10368000F1FCF3FCF3FCF3FCF3FCF3FCF3F0F1F0DE
:10369000F000F8007FF03FF00000000000000000A4
:1036A000000000000000000000000000000000001A
:1036B000030007800FC01FE03FF07CF8F87CF03C6F
:1036C000F03CF03CFFFCFFFCF03CF03CF03CF03CFC
:1036D000F03CF03CF03CF03C00000000000000003A
:1036E00000000000000000000000000000000000DA
:1036F000FFF0FFF83C7C3C3C3C3C3C3C3C3C3C7898
:103700003FF03FF03C783C3C3C3C3C3C3C3C3C3C4F
:103710003C3C3C7CFFF8FFF0000000000000000093
:103720000000000000000000000000000000000099
:103730001FF03FF87C7CF83CF01CF000F000F0003B
:10374000F000F000F000F000F000F000F000F01CDD
:10375000F83C7C7C3FF81FF00000000000000000F7
:103760000000000000000000000000000000000059
:10377000FFC0FFE03CF03C783C783C3C3C3C3C3CAF
:103780003C3C3C3C3C3C3C3C3C3C3C3C3C3C3C783D
:103790003C783CF0FFE0FFC00000000000000000AB
:1037A0000000000000000000000000000000000019
:1037B000FFFCFFFC3C3C3C1C3C0C3C003CC03CC0C7
:1037C0003FC03FC03CC03CC03C003C003C003C0C07
:1037D0003C1C3C3CFFFCFFFC000000000000000023
:1037E00000000000000000000000000000000000D9
:1037F000FFFCFFFC3C3C3C1C3C0C3C003CC03CC087
:103800003FC03FC03CC03CC03C003C003C003C00D2
:103810003C003C00FF00FF00000000000000000032
:103820000000000000000000000000000000000098
:103830001FF03FF87C7CF83CF01CF000F000F0003A
:10384000F000F000F1FCF1FCF03CF03CF03CF03C0E
:10385000F83C7C7C3FFC1FEC0000000000000000F6
:103860000000000000000000000000000000000058
:10387000F03CF03CF03CF03CF03CF03CF03CF03CE8
:10388000FFFCFFFCF03CF03CF03CF03CF03CF03C3A
:10389000F03CF03CF03CF03C000000000000000078
:1038A0000000000000000000000000000000000018
:1038B0001FE01FE0078007800780078007800780E0
:1038C00007800780078007800780078007800780C0
:1038D000078007801FE01FE00000000000000000DC
:1038E00000000000000000000000000000000000D8
:1038F00003FC03FC00F000F000F000F000F000F02A
:1039000000F000F000F000F0F0F0F0F0F0F0F0F077
:10391000F0F0F9F07FE03FC0000000000000000080
:103920000000000000000000000000000000000097
:10393000FC3CFC3C3C3C3C3C3C3C3C7C3CF83DF096
:103940003FE03FC03FC03FE03DF03CF83C7C3C3CAA
:103950003C3C3C3CFC3CFC3C000000000000000007
:103960000000000000000000000000000000000057
:10397000FF00FF003C003C003C003C003C003C00E1
:103980003C003C003C003C003C003C003C003C0C4B
:103990003C1C3C3CFFFCFFFC000000000000000061
:1039A0000000000000000000000000000000000017
:1039B000F03CF03CF87CF87CFCFCFCFCFFFCFFFCE1
:1039C000FFFCFFFCF7BCF7BCF33CF33CF03CF03CE5
:1039D000F03CF03CF03CF03C000000000000000037
:1039E00000000000000000000000000000000000D7
:1039F000F03CF83CF83CFC3CFC3CFE3CFE3CFF3C14
:103A0000FF3CF7BCF7BCF3FCF3FCF1FCF1FCF0FC71
:103A1000F0FCF07CF07CF03C0000000000000000B6
:103A20000000000000000000000000000000000096
:103A30003FF07FF8F87CF03CF03CF03CF03CF03C90
:103A4000F03CF03CF03CF03CF03CF03CF03CF03C16
:103A5000F03CF87C7FF83FF0000000000000000020
:103A60000000000000000000000000000000000056
:103A7000FFF0FFF83C7C3C3C3C3C3C3C3C3C3C7C10
:103A80003FF83FF03C003C003C003C003C003C0068
:103A90003C003C00FF00FF000000000000000000B0
:103AA0000000000000000000000000000000000016
:103AB0003FF07FF8F87CF03CF03CF03CF03CF03C10
:103AC000F03CF03CF03CF03CF03CF03CF33CF3BC10
:103AD000F3FCF9FC7FF83FF000E000F0007C003CD4
:103AE00000000000000000000000000000000000D6
:103AF000FFF0FFF83C7C3C3C3C3C3C3C3C3C3C7C90
:103B00003FF83FF03FE03DF03CF83C7C3C3C3C3C27
:103B10003C3C3C3CFC3CFC3C000000000000000045
:103B20000000000000000000000000000000000095
:103B30003FF07FF8F87CF03CF03CF03CF00078007F
:103B40003F000FC003F00078003C003CF03CF03C2C
:103B5000F03CF87C7FF83FF000000000000000001F
:103B60000000000000000000000000000000000055
:103B7000FFFCFFFCFFFCC78CC78C07800780078019
:103B800007800780078007800780078007800780FD
:103B9000078007801FE01FE0000000000000000019
:103BA0000000000000000000000000000000000015
:103BB000F03CF03CF03CF03CF03CF03CF03CF03CA5
:103BC000F03CF03CF03CF03CF03CF03CF03CF03C95
:103BD000F03CF87C7FF83FF000000000000000009F
:103BE00000000000000000000000000000000000D5
:103BF000F03CF03CF03CF03CF03CF03CF03CF03C65
:103C0000F03CF03CF03CF03CF03CF87C7CF83FF0C1
:103C10001FE00FC00780030000000000000000004C
:103C20000000000000000000000000000000000094
:103C3000F03CF03CF03CF03CF03CF03CF03CF03C24
:103C4000F33CF33CF33CF7BCF7BCFFFCFFFCFFFC90
:103C50007CF87CF83870387000000000000000002C
:103C60000000000000000000000000000000000054
:103C7000F03CF03C787878783CF03CF01FE01FE0B6
:103C80000FC00FC00FC00FC01FE01FE03CF03CF0A2
:103C900078787878F03CF03C0000000000000000EC
:103CA0000000000000000000000000000000000014
:103CB0003C3C3C3C3C3C3C3C3C3C3C3C3C3C3E7C02
:103CC0001FF80FF007E003C003C003C003C003C028
:103CD00003C003C00FF00FF0000000000000000060
:103CE00000000000000000000000000000000000D4
:103CF000FFFCFFFCF03CE03CC03C007C00F801F025
:103D000003E007C00F801F003E007C00F800F00CAD
:103D1000F01CF03CFFFCFFFC000000000000000075
:103D20000000000000000000000000000000000093
:103D30000FF00FF00F000F000F000F000F000F002B
:103D40000F000F000F000F000F000F000F000F00FB
:103D50000F000F000FF00FF0000000000000000047
:103D60000000000000000000000000000000000053
:103D7000F000F000780078003C003C001E001E00BF
:103D80000F000F000780078003C003C001E001E0BF
:103D900000F000F000780078003C003C00000000DB
:103DA0000000000000000000000000000000000013
:103DB0000FF00FF000F000F000F000F000F000F065
:103DC00000F000F000F000F000F000F000F000F073
:103DD00000F000F00FF00FF0000000000000000005
:103DE0000000000000000000030007800FC01FE07B
:103DF0003CF07878F03CE01C00000000000000007F
:103E000000000000000000000000000000000000B2
:103E100000000000000000000000000000000000A2
:103E20000000000000000000000000000000000092
:103E30000000000000000000000000000000000082
:103E40000000000000000000000000000000000072
:103E5000000000000000000000000000FFFFFFFF66
:103E60000000000000000000000000000F000F0034
:103E70000F000F8007C003C000000000000000001A
:103E80000000000000000000000000000000000032
:103E90000000000000000000000000000000000022
:103EA0000000000000000000000000000000000012
:103EB0000000000000000000000000003FC03FE0E4
:103EC00001F000F03FF07FF0F8F0F0F0F0F0F0F0EB
:103ED000F0F0F9F07FFC3F3C000000000000000023
:103EE00000000000000000000000000000000000D2
:103EF000FC00FC003C003C003C003C003F803FE0FC
:103F00003FF03CF83C7C3C3C3C3C3C3C3C3C3C3C3E
:103F10003C3C3C7C3FF83FF000000000000000000B
:103F20000000000000000000000000000000000091
:103F30000000000000000000000000003FF07FF8DB
:103F4000F87CF03CF000F000F000F000F000F00031
:103F5000F03CF87C7FF83FF000000000000000001B
:103F60000000000000000000000000000000000051
:103F700003F003F000F000F000F000F00FF01FF08D
:103F80003CF078F0F0F0F0F0F0F0F0F0F0F0F0F05D
:103F9000F0F079F03FFC1F3C000000000000000042
:103FA0000000000000000000000000000000000011
:103FB0000000000000000000000000003FF07FF85B
:103FC000F87CF03CF03CFFFCFFFCF000F000F0005F
:103FD000F03CF87C7FF83FF000000000000000009B
:103FE00000000000000000000000000000000000D1
:103FF0000FC01FE03FF03CF03C703C003C003C0038
:10400000FF00FF003C003C003C003C003C003C004A
:104010003C003C00FF00FF0000000000000000002A
:104020000000000000000000000000000000000090
:104030000000000000000000000000003F3C7FFC8A
:10404000F9F0F0F0F0F0F0F0F0F0F0F0F0F0F0F067
:10405000F0F0F8F07FF03FF000F000F0F0F0F9F051
:104060007FE03FC0000000000000000000000000F2
:10407000FC00FC003C003C003C003C003CF03FF8F5
:104080003FFC3F3C3C3C3C3C3C3C3C3C3C3C3C3CAA
:104090003C3C3C3CFC3CFC3C0000000000000000C0
:1040A0000000000000000000000000000000000010
:1040B0000780078007800780000000001F801F80A6
:1040C00007800780078007800780078007800780B8
:1040D000078007801FE01FE00000000000000000D4
:1040E00000000000000000000000000000000000D0
:1040F000003C003C003C003C0000000000FC00FCD8
:10410000003C003C003C003C003C003C003C003CCF
:10411000003C003C003C003C3C3C3C3C3C3C3E7C8D
:104120001FF80FF000000000000000000000000079
:10413000FC00FC003C003C003C003C003C3C3C7C67
:104140003CF83DF03FE03FC03FC03FE03DF03CF871
:104150003C7C3C3CFC3CFC3C0000000000000000BF
:10416000000000000000000000000000000000004F
:104170001F801F80078007800780078007800780D7
:1041800007800780078007800780078007800780F7
:10419000078007801FE01FE0000000000000000013
:1041A000000000000000000000000000000000000F
:1041B000000000000000000000000000FCF0FFF81C
:1041C000FFFCFFFCF33CF33CF33CF33CF33CF33CDF
:1041D000F33CF33CF03CF03C000000000000000029
:1041E00000000000000000000000000000000000CF
:1041F000000000000000000000000000F3F0FFF8E5
:104200003E7C3C3C3C3C3C3C3C3C3C3C3C3C3C3CAC
:104210003C3C3C3C3C3C3C3C0000000000000000BE
:10422000000000000000000000000000000000008E
:104230000000000000000000000000003FF07FF8D8
:10424000F87CF03CF03CF03CF03CF03CF03CF03CC6
:10425000F03CF87C7FF83FF0000000000000000018
:10426000000000000000000000000000000000004E
:10427000000000000000000000000000F3F0FFF864
:104280003E7C3C3C3C3C3C3C3C3C3C3C3C3C3C3C2C
:104290003C3C3C7C3FF83FF03C003C003C003C0098
:1042A000FF00FF0000000000000000000000000010
:1042B0000000000000000000000000003F3C7FFC08
:1042C000F9F0F0F0F0F0F0F0F0F0F0F0F0F0F0F0E5
:1042D000F0F0F8F07FF03FF000F000F000F000F0B8
:1042E00003FC03FC000000000000000000000000D0
:1042F000000000000000000000000000F3F0FFF8E4
:104300003F7C3E3C3C3C3C3C3C003C003C003C0098
:104310003C003C00FF00FF00000000000000000027
:10432000000000000000000000000000000000008D
:104330000000000000000000000000003FF07FF8D7
:10434000F07CF03C78003E001F8007E001F0007830
:10435000F03CF83C7FF83FF0000000000000000057
:10436000000000000000000000000000000000004D
:104370000100030007000F000F000F00FFF0FFF027
:104380000F000F000F000F000F000F000F000F00B5
:104390000F1C0FBC07F803F0000000000000000035
:1043A000000000000000000000000000000000000D
:1043B000000000000000000000000000F0F0F0F03D
:1043C000F0F0F0F0F0F0F0F0F0F0F0F0F0F0F0F0ED
:1043D000F0F0F9F07FFC3F3C00000000000000001E
:1043E00000000000000000000000000000000000CD
:1043F0000000000000000000000000003C3C3C3CCD
:104400003C3C3C3C3C3C3C3C3C3C3C3C3E7C1FF80B
:104410000FF007E003C00180000000000000000072
:10442000000000000000000000000000000000008C
:10443000000000000000000000000000F03CF03C24
:10444000F03CF03CF33CF33CF33CF7BCF7BCFFFC26
:10445000FFFCFFFC7CF8387000000000000000004A
:10446000000000000000000000000000000000004C
:10447000000000000000000000000000F03CF87C9C
:104480007CF83FF01FE00FC00FC00FC00FC01FE04F
:104490003FF07CF8F87CF03C0000000000000000D9
:1044A000000000000000000000000000000000000C
:1044B000000000000000000000000000F03CF03CA4
:1044C000F03CF03CF03CF03CF03CF03CF03CF03C8C
:1044D000F03CF83C7FFC3FFC003C007C00F801F025
:1044E000FFE0FFC00000000000000000000000002E
:1044F000000000000000000000000000FFFCFFFCC6
:10450000F0F8F1F003E007C00F801F003E007C00D0
:10451000F83CF03CFFFCFFFC000000000000000045
:10452000000000000000000000000000000000008B
:1045300000FC01FC03E003C003C003C003C007800C
:104540003F003F00078003C003C003C003C003C097
:1045500003C003E001FC00FC0000000000000000BC
:10456000000000000000000000000000000000004B
:1045700003C003C003C003C003C003C003C003C023
:104580000000000003C003C003C003C003C003C099
:1045900003C003C003C003C000000000000000000F
:1045A000000000000000000000000000000000000B
:1045B0003F003F8007C003C003C003C003C001E049
:1045C00000FC00FC01E003C003C003C003C003C043
:1045D00003C007C03F803F00000000000000000053
:1045E00000000000000000000000000000000000CB
:1045F0003C1C7F3CFFFCF3F8E0F0000000000000F2
:1046000000000000000000000000000000000000AA
:10461000000000000000000000000000000000009A
:10462000000000000000000000000000000000008A
:104630000000000000000000030007800FC01FE022
:104640003FF07CF8F87CF03CF03CF03CF03CF03C77
:10465000FFFCFFFC00000000000000000000000064
:10466000000000000000000000000000000000004A
:104670000FF00FF03C3C3C3CF00CF00CF000F00074
:10468000F000F000F000F000F00CF00C3C3C3C3C82
:104690000FF00FF000F000F0003C003C3FF03FF066
:1046A000000000000000000000000000000000000A
:1046B000F0F0F0F00000000000000000F0F0F0F07A
:1046C000F0F0F0F0F0F0F0F0F0F0F0F0F0F0F0F0EA
:1046D000F0F0F0F03F3C3F3C000000000000000024
:1046E00000000000000000000000000000F000F0EA
:1046F00003C003C00F000F00000000003FF03FF0B8
:10470000F03CF03CFFFCFFFCF000F000F000F0009B
:10471000F03CF03C3FF03FF00000000000000000E3
:104720000000000000000000000000000300030083
:104730000FC00FC03CF03CF0000000003FC03FC085
:1047400000F000F03FF03FF0F0F0F0F0F0F0F0F0AB
:10475000F0F0F0F03F3C3F3C0000000000000000A3
:104760000000000000000000000000000000000049
:10477000F0F0F0F000000000000000003FC03FC07B
:1047800000F000F03FF03FF0F0F0F0F0F0F0F0F06B
:10479000F0F0F0F03F3C3F3C000000000000000063
:1047A0000000000000000000000000003C003C0091
:1047B0000F000F0003C003C0000000003FC03FC057
:1047C00000F000F03FF03FF0F0F0F0F0F0F0F0F02B
:1047D000F0F0F0F03F3C3F3C000000000000000023
:1047E0000000000000000000000000000FC00FC02B
:1047F0003CF03CF00FC00FC0000000003FC03FC0C5
:1048000000F000F03FF03FF0F0F0F0F0F0F0F0F0EA
:10481000F0F0F0F03F3C3F3C0000000000000000E2
:104820000000000000000000000000000000000088
:1048300000000000000000000FF00FF03C3C3C3C8A
:104840003C003C003C003C003C3C3C3C0FF00FF08A
:1048500000F000F0003C003C0FF00FF00000000002
:104860000000000000000000000000000300030042
:104870000FC00FC03CF03CF0000000003FF03FF0E4
:10488000F03CF03CFFFCFFFCF000F000F000F0001A
:10489000F03CF03C3FF03FF0000000000000000062
:1048A0000000000000000000000000000000000008
:1048B000F03CF03C00000000000000003FF03FF042
:1048C000F03CF03CFFFCFFFCF000F000F000F000DA
:1048D000F03CF03C3FF03FF0000000000000000022
:1048E0000000000000000000000000003C003C0050
:1048F0000F000F0003C003C0000000003FF03FF0B6
:10490000F03CF03CFFFCFFFCF000F000F000F00099
:10491000F03CF03C3FF03FF00000000000000000E1
:104920000000000000000000000000000000000087
:104930003C3C3C3C00000000000000000FC00FC0E9
:1049400003C003C003C003C003C003C003C003C04F
:1049500003C003C00FF00FF00000000000000000D3
:1049600000000000000000000000000003C003C0C1
:104970000FF00FF03C3C3C3C000000000FC00FC0AB
:1049800003C003C003C003C003C003C003C003C00F
:1049900003C003C00FF00FF0000000000000000093
:1049A0000000000000000000000000003C003C008F
:1049B0000F000F0003C003C0000000000FC00FC0B5
:1049C00003C003C003C003C003C003C003C003C0CF
:1049D00003C003C00FF00FF0000000000000000053
:1049E000000000000000000000000000F03CF03C6F
:1049F00000000000030003000FC00FC03CF03CF0BB
:104A0000F03CF03CF03CF03CFFFCFFFCF03CF03CA8
:104A1000F03CF03CF03CF03C0000000000000000E6
:104A200000000000000000000FC00FC03CF03CF090
:104A30000FC00FC0000000000FC00FC03CF03CF0E2
:104A4000F03CF03CF03CF03CFFFCFFFCF03CF03C68
:104A5000F03CF03CF03CF03C0000000000000000A6
:104A6000000000000000000003C003C00F000F00A2
:104A70003C003C0000000000FFFCFFFC3C3C3C3CD8
:104A80003C003C003FF03FF03C003C003C003C0060
:104A90003C3C3C3CFFFCFFFC000000000000000030
:104AA0000000000000000000000000000000000006
:104AB000000000000000000000000000F0F0F0F036
:104AC0003F3C3F3C0F3C0F3C3FFC3FFCF3C0F3C07E
:104AD000F3C0F3C03CFC3CFC000000000000000000
:104AE00000000000000000000000000000000000C6
:104AF0000FFC0FFC3CF03CF0F0F0F0F0F0F0F0F0C8
:104B0000FFFCFFFCF0F0F0F0F0F0F0F0F0F0F0F06F
:104B1000F0F0F0F0F0FCF0FC0000000000000000FD
:104B2000000000000000000000000000030003007F
:104B30000FC00FC03CF03CF0000000003FF03FF021
:104B4000F03CF03CF03CF03CF03CF03CF03CF03C05
:104B5000F03CF03C3FF03FF000000000000000009F
:104B60000000000000000000000000000000000045
:104B7000F03CF03C00000000000000003FF03FF07F
:104B8000F03CF03CF03CF03CF03CF03CF03CF03CC5
:104B9000F03CF03C3FF03FF000000000000000005F
:104BA0000000000000000000000000003C003C008D
:104BB0000F000F0003C003C0000000003FF03FF0F3
:104BC000F03CF03CF03CF03CF03CF03CF03CF03C85
:104BD000F03CF03C3FF03FF000000000000000001F
:104BE0000000000000000000000000000F000F00A7
:104BF0003FC03FC0F0F0F0F000000000F0F0F0F037
:104C0000F0F0F0F0F0F0F0F0F0F0F0F0F0F0F0F0A4
:104C1000F0F0F0F03F3C3F3C0000000000000000DE
:104C20000000000000000000000000003C003C000C
:104C30000F000F0003C003C000000000F0F0F0F010
:104C4000F0F0F0F0F0F0F0F0F0F0F0F0F0F0F0F064
:104C5000F0F0F0F03F3C3F3C00000000000000009E
:104C60000000000000000000000000000000000044
:104C7000F03CF03C0000000000000000F03CF03C84
:104C8000F03CF03CF03CF03CF03CF03CF03CF03CC4
:104C9000F03CF03C3FFC3FFC003C003C00F000F0EE
:104CA0003FC03FC00000000000000000F03CF03CAE
:104CB000000000003FF03FF0F03CF03CF03CF03CE6
:104CC000F03CF03CF03CF03CF03CF03CF03CF03C84
:104CD000F03CF03C3FF03FF000000000000000001E
:104CE000000000000000000000000000F03CF03C6C
:104CF00000000000F03CF03CF03CF03CF03CF03CAC
:104D0000F03CF03CF03CF03CF03CF03CF03CF03C43
:104D1000F03CF03C3FF03FF00000000000000000DD
:104D200000000000000000000000000003C003C0FD
:104D300003C003C00FF00FF03C3C3C3C3C003C0087
:104D40003C003C003C003C003C3C3C3C0FF00FF085
:104D500003C003C003C003C0000000000000000047
:104D60000000000000000000000000000FC00FC0A5
:104D70003CF03CF03C303C303C003C00FF00FF008D
:104D80003C003C003C003C003C003C003C003C0043
:104D9000FC3CFC3CFFF0FFF00000000000000000C5
:104DA0000000000000000000000000000000000003
:104DB0003C3C3C3C3C3C3C3C0FF00FF003C003C08F
:104DC0003FFC3FFC03C003C03FFC3FFC03C003C0EB
:104DD00003C003C003C003C00000000000000000C7
:104DE000000000000000000000000000FFC0FFC045
:104DF000F0F0F0F0F0F0F0F0FFC0FFC0F030F03075
:104E0000F0F0F0F0F3FCF3FCF0F0F0F0F0F0F0F084
:104E1000F0F0F0F0F03CF03C00000000000000007A
:104E200000000000000000000000000000FC00FC8A
:104E300003CF03CF03C003C003C003C003C003C03C
:104E40003FFC3FFC03C003C003C003C003C003C05A
:104E500003C003C003C003C0F3C0F3C03F003F0062
:104E600000000000000000000000000003C003C0BC
:104E70000F000F003C003C00000000003FC03FC09E
:104E800000F000F03FF03FF0F0F0F0F0F0F0F0F064
:104E9000F0F0F0F03F3C3F3C00000000000000005C
:104EA00000000000000000000000000000F000F022
:104EB00003C003C00F000F00000000000FC00FC0B0
:104EC00003C003C003C003C003C003C003C003C0CA
:104ED00003C003C00FF00FF000000000000000004E
:104EE00000000000000000000000000003C003C03C
:104EF0000F000F003C003C00000000003FF03FF0BE
:104F0000F03CF03CF03CF03CF03CF03CF03CF03C41
:104F1000F03CF03C3FF03FF00000000000000000DB
:104F200000000000000000000000000003C003C0FB
:104F30000F000F003C003C0000000000F0F0F0F01B
:104F4000F0F0F0F0F0F0F0F0F0F0F0F0F0F0F0F061
:104F5000F0F0F0F03F3C3F3C00000000000000009B
:104F60000000000000000000000000000000000041
:104F70003F3C3F3CF3F0F3F000000000F3F0F3F0AF
:104F80003C3C3C3C3C3C3C3C3C3C3C3C3C3C3C3C61
:104F90003C3C3C3C3C3C3C3C000000000000000031
:104FA00000000000000000003F3C3F3CF3F0F3F045
:104FB00000000000F03CF03CFC3CFC3CFF3CFF3CB3
:104FC000FFFCFFFCF3FCF3FCF0FCF0FCF03CF03CDD
:104FD000F03CF03CF03CF03C000000000000000021
:104FE0000000000000000000000000000FF00FF0C3
:104FF0003CF03CF03CF03CF00FFC0FFC00000000EB
:105000003FFC3FFC0000000000000000000000002A
:105010000000000000000000000000000000000090
:105020000000000000000000000000000FC00FC0E2
:105030003CF03CF03CF03CF00FC00FC00000000022
:105040003FF03FF000000000000000000000000002
:105050000000000000000000000000000000000050
:105060000000000000000000000000000000000040
:105070000F000F000F000F00000000000F000F00D6
:105080000F001F003E007C00F800F000F03CF03CF8
:10509000F03CF87C7FF83FF00000000000000000CA
:1050A0000000000000000000000000000000000000
:1050B00000000000000000000000000000000000F0
:1050C000FFFCFFFCF000F000F000F000F000F0004A
:1050D000F000F000000000000000000000000000F0
:1050E00000000000000000000000000000000000C0
:1050F00000000000000000000000000000000000B0
:10510000FFFCFFFC003C003C003C003C003C003C41
:10511000003C003C00000000000000000000000017
:10512000000000000000000000000000F000F0009F
:10513000F000F000F00CF00CF03CF03CF0F0F0F07F
:1051400003C003C00F000F003C003C00F3F0F3F07D
:10515000C03CC03C00F000F003C003C00FFC0FFCDB
:10516000000000000000000000000000F000F0005F
:10517000F000F000F00CF00CF03CF03CF0F0F0F03F
:1051800003C003C00F000F003C3C3C3CF0FCF0FCB3
:10519000C3FCC3FC0FFC0FFC003C003C003C003C8B
:1051A00000000000000000000000000000000000FF
:1051B00003C003C003C003C00000000003C003C05D
:1051C00003C007E007E007E00FF00FF00FF00FF06B
:1051D0000FF00FF007E003C0000000000000000027
:1051E00000000000000000000000000000000000BF
:1051F0000000000000000000000000000E1C1E3C2B
:105200003C7878F0F1E0F1E078F03C781E3C0E1C40
:10521000000000000000000000000000000000008E
:10522000000000000000000000000000000000007E
:10523000000000000000000000000000E1C0F1E0FC
:1052400078F03C781E3C1E3C3C7878F0F1E0E1C000
:10525000000000000000000000000000000000004E
:105260000000000000000000030303033030303072
:105270000303030330303030030303033030303096
:105280000303030330303030030303033030303086
:105290000303030330303030030303033030303076
:1052A000030303033030303033333333CCCCCCCC36
:1052B00033333333CCCCCCCC33333333CCCCCCCCF6
:1052C00033333333CCCCCCCC33333333CCCCCCCCE6
:1052D00033333333CCCCCCCC33333333CCCCCCCCD6
:1052E00033333333CCCCCCCCF3F3F3F33F3F3F3FFA
:1052F000F3F3F3F33F3F3F3FF3F3F3F33F3F3F3F1E
:10530000F3F3F3F33F3F3F3FF3F3F3F33F3F3F3F0D
:10531000F3F3F3F33F3F3F3FF3F3F3F33F3F3F3FFD
:10532000F3F3F3F33F3F3F3F03C003C003C003C0A9
:1053300003C003C003C003C003C003C003C003C055
:1053400003C003C003C003C003C003C003C003C045
:1053500003C003C003C003C003C003C003C003C035
:1053600003C003C003C003C003C003C003C003C025
:1053700003C003C003C003C003C003C003C003C015
:1053800003C003C0FFC0FFC003C003C003C003C00D
:1053900003C003C003C003C003C003C003C003C0F5
:1053A00003C003C003C003C003C003C003C003C0E5
:1053B00003C003C003C003C003C003C0FFC0FFC0DD
:1053C00003C003C0FFC0FFC003C003C003C003C0CD
:1053D00003C003C003C003C003C003C003C003C0B5
:1053E00003C003C003C003C00F3C0F3C0F3C0F3C85
:1053F0000F3C0F3C0F3C0F3C0F3C0F3C0F3C0F3C55
:105400000F3C0F3CFF3CFF3C0F3C0F3C0F3C0F3C64
:105410000F3C0F3C0F3C0F3C0F3C0F3C0F3C0F3C34
:105420000F3C0F3C0F3C0F3C000000000000000050
:10543000000000000000000000000000000000006C
:1054400000000000FFFCFFFC0F3C0F3C0F3C0F3C3A
:105450000F3C0F3C0F3C0F3C0F3C0F3C0F3C0F3CF4
:105460000F3C0F3C0F3C0F3C000000000000000010
:10547000000000000000000000000000FFC0FFC0AE
:1054800003C003C0FFC0FFC003C003C003C003C00C
:1054900003C003C003C003C003C003C003C003C0F4
:1054A00003C003C003C003C00F3C0F3C0F3C0F3CC4
:1054B0000F3C0F3C0F3C0F3C0F3C0F3CFF3CFF3CB4
:1054C000003C003CFF3CFF3C0F3C0F3C0F3C0F3CC2
:1054D0000F3C0F3C0F3C0F3C0F3C0F3C0F3C0F3C74
:1054E0000F3C0F3C0F3C0F3C0F3C0F3C0F3C0F3C64
:1054F0000F3C0F3C0F3C0F3C0F3C0F3C0F3C0F3C54
:105500000F3C0F3C0F3C0F3C0F3C0F3C0F3C0F3C43
:105510000F3C0F3C0F3C0F3C0F3C0F3C0F3C0F3C33
:105520000F3C0F3C0F3C0F3C00000000000000004F
:10553000000000000000000000000000FFFCFFFC75
:10554000003C003CFF3CFF3C0F3C0F3C0F3C0F3C41
:105550000F3C0F3C0F3C0F3C0F3C0F3C0F3C0F3CF3
:105560000F3C0F3C0F3C0F3C0F3C0F3C0F3C0F3CE3
:105570000F3C0F3C0F3C0F3C0F3C0F3CFF3CFF3CF3
:10558000003C003CFFFCFFFC0000000000000000AD
:10559000000000000000000000000000000000000B
:1055A00000000000000000000F3C0F3C0F3C0F3CCF
:1055B0000F3C0F3C0F3C0F3C0F3C0F3C0F3C0F3C93
:1055C0000F3C0F3CFFFCFFFC00000000000000004F
:1055D00000000000000000000000000000000000CB
:1055E000000000000000000003C003C003C003C0AF
:1055F00003C003C003C003C003C003C0FFC0FFC09B
:1056000003C003C0FFC0FFC0000000000000000096
:10561000000000000000000000000000000000008A
:10562000000000000000000000000000000000007A
:10563000000000000000000000000000000000006A
:1056400000000000FFC0FFC003C003C003C003C0D0
:1056500003C003C003C003C003C003C003C003C032
:1056600003C003C003C003C003C003C003C003C022
:1056700003C003C003C003C003C003C003C003C012
:1056800003C003C003FF03FF000000000000000090
:10569000000000000000000000000000000000000A
:1056A000000000000000000003C003C003C003C0EE
:1056B00003C003C003C003C003C003C003C003C0D2
:1056C00003C003C0FFFFFFFF000000000000000058
:1056D00000000000000000000000000000000000CA
:1056E00000000000000000000000000000000000BA
:1056F00000000000000000000000000000000000AA
:1057000000000000FFFFFFFF03C003C003C003C091
:1057100003C003C003C003C003C003C003C003C071
:1057200003C003C003C003C003C003C003C003C061
:1057300003C003C003C003C003C003C003C003C051
:1057400003C003C003FF03FF03C003C003C003C0C3
:1057500003C003C003C003C003C003C003C003C031
:1057600003C003C003C003C000000000000000002D
:105770000000000000000000000000000000000029
:1057800000000000FFFFFFFF00000000000000001D
:105790000000000000000000000000000000000009
:1057A000000000000000000003C003C003C003C0ED
:1057B00003C003C003C003C003C003C003C003C0D1
:1057C00003C003C0FFFFFFFF03C003C003C003C04B
:1057D00003C003C003C003C003C003C003C003C0B1
:1057E00003C003C003C003C003C003C003C003C0A1
:1057F00003C003C003C003C003C003C003FF03FF13
:1058000003C003C003FF03FF03C003C003C003C002
:1058100003C003C003C003C003C003C003C003C070
:1058200003C003C003C003C00F3C0F3C0F3C0F3C40
:105830000F3C0F3C0F3C0F3C0F3C0F3C0F3C0F3C10
:105840000F3C0F3C0F3F0F3F0F3C0F3C0F3C0F3CFA
:105850000F3C0F3C0F3C0F3C0F3C0F3C0F3C0F3CF0
:105860000F3C0F3C0F3C0F3C0F3C0F3C0F3C0F3CE0
:105870000F3C0F3C0F3C0F3C0F3C0F3C0F3F0F3FCA
:105880000F000F000FFF0FFF0000000000000000DE
:105890000000000000000000000000000000000008
:1058A00000000000000000000000000000000000F8
:1058B0000000000000000000000000000FFF0FFFCC
:1058C0000F000F000F3F0F3F0F3C0F3C0F3C0F3CF2
:1058D0000F3C0F3C0F3C0F3C0F3C0F3C0F3C0F3C70
:1058E0000F3C0F3C0F3C0F3C0F3C0F3C0F3C0F3C60
:1058F0000F3C0F3C0F3C0F3C0F3C0F3CFF3FFF3F6A
:1059000000000000FFFFFFFF00000000000000009B
:105910000000000000000000000000000000000087
:105920000000000000000000000000000000000077
:10593000000000000000000000000000FFFFFFFF6B
:1059400000000000FF3FFF3F0F3C0F3C0F3C0F3CAF
:105950000F3C0F3C0F3C0F3C0F3C0F3C0F3C0F3CEF
:105960000F3C0F3C0F3C0F3C0F3C0F3C0F3C0F3CDF
:105970000F3C0F3C0F3C0F3C0F3C0F3C0F3F0F3FC9
:105980000F000F000F3F0F3F0F3C0F3C0F3C0F3C31
:105990000F3C0F3C0F3C0F3C0F3C0F3C0F3C0F3CAF
:1059A0000F3C0F3C0F3C0F3C0000000000000000CB
:1059B000000000000000000000000000FFFFFFFFEB
:1059C00000000000FFFFFFFF0000000000000000DB
:1059D00000000000000000000000000000000000C7
:1059E00000000000000000000F3C0F3C0F3C0F3C8B
:1059F0000F3C0F3C0F3C0F3C0F3C0F3CFF3FFF3F69
:105A000000000000FF3FFF3F0F3C0F3C0F3C0F3CEE
:105A10000F3C0F3C0F3C0F3C0F3C0F3C0F3C0F3C2E
:105A20000F3C0F3C0F3C0F3C03C003C003C003C03E
:105A300003C003C003C003C003C003C0FFFFFFFFD8
:105A400000000000FFFFFFFF00000000000000005A
:105A50000000000000000000000000000000000046
:105A600000000000000000000F3C0F3C0F3C0F3C0A
:105A70000F3C0F3C0F3C0F3C0F3C0F3C0F3C0F3CCE
:105A80000F3C0F3CFFFFFFFF000000000000000084
:105A90000000000000000000000000000000000006
:105AA00000000000000000000000000000000000F6
:105AB000000000000000000000000000FFFFFFFFEA
:105AC00000000000FFFFFFFF03C003C003C003C0CE
:105AD00003C003C003C003C003C003C003C003C0AE
