:020000040800F2
:1000000098C401209D010008CB110008E70F0008EB
:10001000C9110008A90200088315000800000000AB
:10002000000000000000000000000000EF110008C8
:10003000AB02000800000000ED110008F1110008FB
:10004000B7010008B7010008B7010008B7010008B0
:10005000B7010008B7010008B7010008B7010008A0
:10006000B7010008B7010008B7010008B701000890
:10007000B7010008B7010008B7010008B701000880
:10008000B7010008B7010008B7010008B701000870
:10009000B7010008B7010008B7010008B701000860
:1000A000B7010008C9120008B7010008B70100082D
:1000B000B7010008B7010008B7010008B701000840
:1000C000B7010008B7010008B7010008B701000830
:1000D000B7010008B7010008B7010008B701000820
:1000E000B7010008B7010008B7010008B701000810
:1000F000B7010008B7010008B7010008B701000800
:10010000B7010008B7010008B7010008B7010008EF
:10011000B7010008B7010008B7010008B7010008DF
:10012000B7010008B7010008B7010008B7010008CF
:10013000B7010008B7010008B7010008B7010008BF
:10014000B7010008B7010008B7010008B7010008AF
:10015000B7010008B7010008B7010008B70100089F
:10016000B7010008B7010008B7010008B70100088F
:10017000B7010008B7010008B7010008000000003F
:10018000B7010008B7010008DFF80CD000F07AF8DA
:1001900000480047B118000898C40120064880476D
:1001A00006480047FEE7FEE7FEE7FEE7FEE7FEE75C
:1001B000FEE7FEE7FEE7FEE775120008890100088A
:1001C0002DE9F05F0546002092469B46884606468C
:1001D000814640241BE0284641464746224600F01F
:1001E00041F853465A46C01A914110D31146184659
:1001F000224600F028F82D1A67EB01084F462246E8
:100200000120002100F01FF817EB00094E41201ECD
:10021000A4F10104DFDC484631462A464346BDE8E6
:10022000F09FD2B201E000F8012B491EFBD27047CB
:100230000022F6E710B513460A4604461946FFF7B2
:10024000F0FF204610BD202A04DB203A00FA02F11C
:10025000002070479140C2F1200320FA03F31943B4
:1002600090407047202A04DB203A21FA02F0002156
:10027000704721FA02F3D040C2F1200291400843B6
:1002800019467047064C074D06E0E06840F0010350
:1002900094E8070098471034AC42F6D3FFF778FF94
:1002A00090210608B0210608FEE770472DE9F84FB7
:1002B000DFF87CB100224FF001084FF0030A4FF045
:1002C0000F090BF1040E00BF0B6808FA02F423407B
:1002D000A3426ED14D68022D01D0122D0ED1D5084A
:1002E00000EB850CDCF820505607F70E09FA07F6EC
:1002F000B5430E69BE402E43CCF820600668550019
:100300000F790AFA05FC07F0030726EA0C06AF404E
:10031000374307604E68012E05D0022E03D0112E00
:1003200001D0122E0ED18668CF6826EA0C06AF40A7
:10033000374387604668A6430C79C4F300149440A1
:1003400034434460C6688C6826EA0C06AC403443EB
:10035000C4604C68E40065D5364C256845F480459A
:100360002560246822F0030504F480440094324C94
:100370002E19D6F8084895072F0F09FA07F5AC4350
:100380002E4DA84201D1002524E02D4DA84201D1D7
:1003900001251FE02B4DA84201D102251AE02A4D6C
:1003A000A84201D1032515E0284DA84202D1042519
:1003B00010E037E0264DA84201D105250AE0254D81
:1003C000A84201D1062505E0234DA84201D1072509
:1003D00000E00825BD402543C6F80858DBF800407A
:1003E0005D464E689C43F60300D51C432C60DEF846
:1003F000004075464E689C43B60300D51C432C60F4
:100400000B4D08352C684E689C43F60200D51C4302
:100410002C60074D0C352C684E689C43B60200D505
:100420001C432C60521C102AFFF44EAFBDE8F88F1D
:10043000003C0140443802400030014000000240CE
:100440000004024000080240000C0240001002407C
:100450000014024000180240001C02400AB18161F1
:1004600070470904FBE700000148806870470000FE
:100470000C000020024881680278114481607047B6
:100480000C0000200B4810B5016841F400710160B8
:10049000016841F480610160016841F4807101608C
:1004A000032000F06DF8002000F006F800F024F8BA
:1004B000002010BD003C024070B50D4D04464FF4C5
:1004C0007A712878B1FBF0F00A490968B1FBF0F0C5
:1004D00000F0BEFA48B9102C07D200222146501E67
:1004E00000F02EF800206C6070BD012070BD00008F
:1004F0000C000020180000200A4808B5016841F4EB
:1005000080410160006800F4804000900548001FB1
:10051000016841F080510160006800F08050009057
:1005200008BD00004438024000F01F020121914044
:100530004009800000F1E020C0F800117047000081
:10054000F0B40E4B1B680C46C3F30223C3F107053E
:10055000042D00D90425191D072901D2002300E02C
:10056000DB1E012606FA05F1491E214099409E40F6
:10057000761E16403143F0BC00F028BE0CED00E0C2
:10058000064900F0070208684FF6FF03184040EAEA
:100590000220034A10430860704700000CED00E0A1
:1005A0000000FA052DE9F0470E46050065D0DFF89A
:1005B0001481D8F80000F7B200F00F00B04207D263
:1005C00088F80070D8F8000000F00F00B04254D155
:1005D00028683D4C810712D5400703D5206840F4B8
:1005E000E05020602878000703D5206840F4604080
:1005F00020602068A96820F0F00008432060287877
:10060000C0072DD0304968680839012812D0022867
:1006100013D0032811D00968890700292DDA216831
:1006200021F0030101432160FFF71EFF814641F2E3
:10063000883A0EE009688903EFE709688901ECE769
:10064000FFF712FFA0EB0901514502D90320BDE8D5
:10065000F0872068696800F00C00B0EB810FEFD1E3
:10066000D8F80010404601F00F01B14207D90770D9
:10067000006800F00F00B04201D00120E7E72878C1
:10068000400705D52068E96820F4E0500843206061
:100690002878000706D52068296920F4604040EAE0
:1006A000C100206000F016F82168084AC1F3031168
:1006B000515CC840064908600020FFF7FDFE00209D
:1006C000C5E70000003C02400838024080210608CF
:1006D00018000020154810B5006810F00C021448EE
:1006E00013D04110042A0FD0082A0ED10F4C241F1A
:1006F0002268236802F03F025B0207D52068C0F33E
:100700008810A0FB010106E0084610BD2168C1F376
:100710008811A1FB00010023FFF752FD2168C1F3FE
:100720000141491C4900B0FBF1F010BD08380240FE
:100730000024F4002DE9F84F050076D02878DFF882
:10074000F8B2BE4CC00749D0DBF800105846C1F3E0
:100750008101012908D00068C0F3810002280AD174
:10076000201D0068400206D52068800336D56868E1
:100770000028E2D032E06868B0F5803F10D0B0F5D4
:10078000A02F206810D020F480302060206820F452
:10079000802020606868A0B1FFF766FE06460CE086
:1007A000206840F48030F4E740F480202060F7E7D0
:1007B000FFF75AFE801B642873D820688003F7D5A2
:1007C0000CE0FFF751FE064605E000BFFFF74CFEC8
:1007D000801B6428F0D820688003F7D42878DFF8DD
:1007E000608280074FF000093ED5DBF800105846C4
:1007F00011F00C0F09D00068C0F3810002280BD162
:100800008D48001F0068400206D42068800715D577
:10081000E868012809D111E0E868B8B10120C8F8FA
:100820000000FFF721FE064605E002E1FFF71CFE8F
:10083000801B0228C0D820688007F7D52068296966
:1008400020F0F80040EAC10020600DE0C8F80090F8
:10085000FFF70AFE064604E0FFF706FE801B0228AB
:100860001FD820688007F7D42878000722D5724E59
:10087000744869696C3671B101210160FFF7F4FDBC
:10088000074604E0FFF7F0FDC01B022809D83068D6
:100890008007F7D50EE0C0F80090FFF7E5FD0746AA
:1008A00005E083E0FFF7E0FDC01B02287ED830683A
:1008B0008007F7D42878400768D5DFF87CA10027A7
:1008C0000AF1380ADAF80000C0000BD4DAF8001098
:1008D00041F08051CAF80010DAF80000012700F05A
:1008E00080500090584E3068C00510D4306840F4F5
:1008F00080703060FFF7B8FD009005E0FFF7B4FDB1
:100900000099401A022851D83068C005F6D54A4EE1
:10091000A868683601280FD00528306810D020F06C
:1009200001003060306820F004003060A868B8B181
:10093000FFF79AFD00900FE0306840F00100F4E707
:1009400040F004003060F7E7FFF78EFD0099411A90
:1009500041F28830814264D830688007F4D50EE0D7
:10096000FFF782FD009007E0FFF77EFD0099411A36
:1009700041F28830814254D830688007F4D42FB1D6
:10098000DAF8001021F08051CAF80010A869C0B34D
:10099000DBF80010C1F3810102294AD00228484641
:1009A00007D0C8F86000FFF75FFD00E039E00546BA
:1009B0003AE04746C8F86000FFF756FD064604E0F7
:1009C000FFF752FD801B02282BD820688001F7D446
:1009D000D5E907010843A96A1C4A490802EB01410D
:1009E0006A6A41EA8211084395F82C1040EA0161D5
:1009F0001148001F016001203866FFF735FD0546EC
:100A000005E014E0FFF730FD401B022809D82068FC
:100A10008001F7D50BE000BFFFF726FD401B022841
:100A200002D90320BDE8F88F20688001F4D40020AB
:100A3000F8E70120F6E700000838024000380240DD
:100A400000004742800E4742007000400000FFFF58
:100A500010B5401EB0F1807F01D3012010BD4FF0D2
:100A6000E02460610F21601700F0B0FB0020A0615E
:100A700007202061002010BD7047704730B590F806
:100A80003820012A20D0012280F83820022380F863
:100A9000393003685C6824F070045C6003685C684B
:100AA0000D682C435C6003689C6824F080049C60A3
:100AB00003689C6849680C439C6080F839200021D9
:100AC00080F83810084630BD022030BD10B5040053
:100AD00003D094F8390010B107E0012010BD0020C8
:100AE00084F83800204600F00DF8022084F8390020
:100AF000211D206800F0EEFB012084F83900002061
:100B000010BD000008B500681149884212D1114893
:100B1000016841F0010101600068002200F001005D
:100B2000009011461920FFF70BFDBDE80840192081
:100B3000FFF7FABCB0F1804F09D10648001F0168E9
:100B400041F001010160006800F00100009008BD63
:100B50000000014044380240022180F83910016849
:100B60000A6842F001020A60012180F83910002071
:100B700070470168CA6842F00102CA6000680168F3
:100B800041F0010101600020704770B5044690F803
:100B90003800012817D0012584F83850022084F845
:100BA00039002068826822F0770222F47F42826056
:100BB0000868502837D00DDC202859D005DC88B3D0
:100BC000102841D151E0022070BD302853D0402878
:100BD0003AD13FE060282ED070280BD0B0F5805F6E
:100BE00003D0B0F5005F2FD110E02068816821F0BC
:100BF000070115E0CB68D1E90121206800F0D5FBA1
:100C00002168886840F0770088601DE0CB68D1E9F2
:100C10000121206800F0C9FB2068816841F480410F
:100C2000816011E01EE0CA684968206800F086FC17
:100C30005021206806E0CA684968206800F08FFCEF
:100C40006021206800F0BBFB84F83950002084F854
:100C5000380070BDCA684968206800F06FFC402108
:100C60002068EFE700212068ECE710212068E9E721
:100C700020212068E6E730212068E3E7704770B55F
:100C80000446006801694FF00005C943890715D47F
:100C9000C168C943890711D4E91E0161012020768A
:100CA000206880698007204602D0FFF7E7FF04E054
:100CB00000F0C0F8204600F042F92576206801696E
:100CC000C943490717D4C168C943490713D46FF012
:100CD00004010161022020762068806910F4407FC1
:100CE000204602D0FFF7CAFF04E000F0A3F8204638
:100CF00000F025F9257620680169C943090716D453
:100D0000C168C943090712D46FF0080101610420CA
:100D100020762068C0698007204602D0FFF7AEFF2A
:100D200004E000F087F8204600F009F925762068F5
:100D30000169C943C90617D4C168C943C90613D498
:100D40006FF010010161082020762068C06910F45E
:100D5000407F204602D0FFF791FF04E000F06AF8E0
:100D6000204600F0ECF8257620680169C943C907E0
:100D700008D1C168C943C90704D1891E0161204651
:100D800000F0FAF820680169C943090609D4C1686E
:100D9000C943090605D46FF0800101612046FFF7C1
:100DA0006BFE20680169C943490609D4C168C9437B
:100DB000490605D46FF040010161204600F012F9A8
:100DC00020680169C94389060BD4C168C9438906F3
:100DD00007D46FF0200101612046BDE87040FFF7A5
:100DE0004CBE70BD10B586B0044614216846FFF7AE
:100DF0001FFA2068B0F1804F16D10C48002102681C
:100E000042F001020260006800F00100059020201D
:100E100000900220CDE901010320039001200490FD
:100E200069460348FFF742FA06B010BD3038024069
:100E300000000240704770B5044690F838000D4637
:100E400001280DD0012684F83860022084F839008A
:100E500042B1042A18D0082A2AD00C2A4DD139E0F0
:100E6000022070BD206800F0B3FA2068816941F06B
:100E7000080181612068816921F004018161206895
:100E800081692A69114311E0206800F0CDFA2068D9
:100E9000816941F4006181612068816921F4806188
:100EA0008161206881692A6941EA0221816124E027
:100EB000206800F0EBFA2068C16941F00801C161C7
:100EC0002068C16921F00401C1612068C1692A69F3
:100ED000114311E0206800F009FB2068C16941F46A
:100EE0000061C1612068C16921F48061C16120682D
:100EF000C1692A6941EA0221C16184F83960002090
:100F000084F8380070BD10B5040003D094F839009F
:100F100010B107E0012010BD002084F83800204601
:100F200000F00CF8022084F83900211D206800F040
:100F3000D1F9012084F83900002010BD70477047B6
:100F400010B504460068012200F024FA0849206820
:100F5000884202D00749884203D1416C41F40041E4
:100F600041642068016841F001010160002010BD6A
:100F70000000014000040140F0B50068134DA84294
:100F800022D11349134E144C0A78002002F00F03AB
:100F900006EBC326C2F3021206EB0226375C27607B
:100FA000276847F040072760401CFF28F6DD0B4804
:100FB000446944F010044461094C34F81220EA6298
:100FC00043610878401C0870F0BD0000000001403B
:100FD000080000201CC00020140C02400000024049
:100FE0002C8F01087047FEE72DE9F843884602EB95
:100FF00008010EB219180FB204464FF000090FE0B5
:10100000454609E000231A4621462846CDF80090BF
:1010100000F00AF86D1C2DB2B542F3DB641C24B25B
:10102000BC42EDDBBDE8F88330B57F28039C10DCC3
:101030003F290EDC00280CDB00290ADB054D05EBFF
:10104000C1110A5408444FF480410B5400F500408C
:10105000047030BD1C0000202DE9F04186B0142141
:101060006846FFF7E5F823480024016841F00401D1
:101070000160016801F004010591016841F08001FF
:101080000160016801F080010591016841F00101F2
:101090000160016801F001010591016841F008015A
:1010A00001600068144F00F00800059000221F2125
:1010B0003846FFF7D3F9DFF8448000227F2140460D
:1010C000FFF7CCF91F2001250326CDE90005CDE966
:1010D000024669463846FFF7E9F87F20CDE900056A
:1010E000CDE9024669464046FFF7E0F806B0BDE8A4
:1010F000F08100003038024000000240000C024045
:1011000010B586B000241248009401940294039410
:1011100004940E490594016005214160102181600D
:101120002821C0E903144461FFF7D0FC4FF480503C
:10113000009069460648FFF728FD049404A9044876
:101140000594FFF79BFC06B010BD000000000140B5
:101150001CC0012010B58EB0002407940894099497
:101160000A940B941C2168460C94FFF761F815480B
:101170004FF08041C0E900146421C0E902410461DC
:10118000FFF7A4FC4FF48050079007A90D48FFF724
:10119000FCFC0C48FFF7B7FE0B940BA909480C9414
:1011A000FFF76CFC6020CDE9000402940022694640
:1011B00004480494FFF73FFE0248FFF713FE0EB009
:1011C00010BD000058C00120FEE770470907090E56
:1011D000002806DA00F00F0000F1E02080F8141D6E
:1011E000704700F1E02080F80014704770477047A6
:1011F000FFF740B930B593B030216846FFF718F8D3
:1012000014210CA8FFF714F818480025016841F0D4
:1012100080510160006800F080501190144801680E
:1012200041F4804101600068022400F48040119084
:1012300001200090000401908001CDE9064008AA39
:101240000420A82182E813000B906846FFF772FA89
:101250000CA90F2081E831004FF4A0500F9010909E
:1012600005210CA8FFF79EF913B030BD40380240AD
:10127000007000401048016841F4700101600F489F
:10128000016841F0010101600C4A0021083211603F
:1012900002680B4B1A400260031D0A4A1A6002687A
:1012A00022F48022026005480C3001600249580691
:1012B000803908607047000088ED00E00038024087
:1012C000FFFFF6FE103000240148FFF7D8BC0000F5
:1012D0001CC00120F0B50268234B244D244E254F3D
:1012E000254C4FF0804C984209D0604507D0A84269
:1012F00005D0B04203D0B84201D0A04204D122F0C0
:10130000700E4A6842EA0E0298421BD0604519D01E
:10131000A84217D0B04215D0B84213D0A04211D085
:10132000164DA8420ED0164DA8420BD0154DA8421E
:1013300008D0154DA84205D0144DA84202D0144D36
:10134000A84203D122F44075CA682A4302608A6821
:10135000C2620A688262984201D0A04201D1096942
:10136000016301214161F0BD000001400004004023
:1013700000080040000C0040000401400040014013
:10138000004401400048014000180040001C00409B
:101390000020004010B50123046A8B409C43046286
:1013A000036A8A401343036210BD10B5846842EAA1
:1013B000032224F47F440A432243826010BD8268E2
:1013C00022F070020A4342F007018160704700007A
:1013D00030B5026A22F001020262026A436884693F
:1013E0000D6824F07304254322F002048A68224326
:1013F0000B4CA04202D00B4CA0420BD122F00804AF
:10140000CA6823F4407322434C6922F004021C434F
:101410008B6923434360856149684163026230BD43
:10142000000001400004014030B5026A22F01002C1
:101430000262026A436884690D6824F4E64444EA5F
:1014400005248D6822F0200242EA05120D4DA842C3
:1014500002D00D4DA8420ED1CD6822F0800242EAA2
:1014600005124D6923F4406343EA85038D6922F038
:10147000400243EA850343608461496881630262F4
:1014800030BD0000000001400004014030B5026A98
:1014900022F480720262036A4268C46923F4007312
:1014A00024F073050C682C438D6843EA05230D4D29
:1014B000A84202D00C4DA8420ED1CD6823F400639F
:1014C00043EA05234D6922F4405242EA05128D6930
:1014D00023F4806342EA05124260C4614968C16333
:1014E000036230BD000001400004014030B5026AD3
:1014F00022F480520262046A4268C3690D6823F4D0
:10150000E64343EA05238D6824F4005444EA053495
:10151000084DA84202D0084DA84204D14D6922F4DA
:10152000804242EA85124260C361496801640462F4
:1015300030BD0000000001400004014010B5036A06
:10154000046A24F001040462846924F0F00444EA8B
:10155000021423F00A020A438461026210BD10B52E
:10156000036A23F0100303628369046A23F470435F
:1015700043EA023224F0A00343EA011182610162CE
:1015800010BDFEE702E008C8121F08C1002AFAD108
:1015900070477047002001E001C1121F002AFBD1F3
:1015A00070472DE9FF4F002617468246984635467C
:1015B000DDF834B012E00198002428440FFA80F9D5
:1015C00009E004EB0A003BF81620494600B200F09F
:1015D00009F8641C761CBC42F3DB6D1C4545EADB54
:1015E000BDE8FF8F38B5D30AC3EB431303EB0313F6
:1015F0001733C3F38714C2F3451302F01F02C2EB83
:10160000421202EB021203EB4305173205EB0323F0
:10161000C2F3871221330092C3F387132246FFF7E8
:1016200003FD38BD2DE9FF4F0024DFF87CE2A14621
:101630009E49002501F5004301EBC4210122284603
:101640000EEBC41703EBC42A039103E0002001E072
:1016500080287BDA039901EB052101F800903B5CBF
:101660001340029301D001230B543B1893F800C898
:101670001CEA020CCDF804C005D011F800C04CF0F3
:10168000020C01F800C003F5804696F8008018EAC5
:10169000020805D011F800C04CF0040C01F800C09D
:1016A00096F80068164005D011F800C04CF0080C00
:1016B00001F800C003F5004393F800C01CEA020CD7
:1016C000CDF800C005D011F800C04CF0100C01F8A6
:1016D00000C093F8003813405FEA030B03D00B5CA3
:1016E00043F020030B54802875DA0AEB052303F836
:1016F0000090DDF808C0BCF1000F03D04FF0010CE2
:1017000003F800C0DDF804C0BCF1000F05D013F8E9
:1017100000C04CF0020C03F800C0B8F1000F05D077
:1017200013F800C04CF0040C03F800C01EB11E5C9E
:1017300046F008061E54009E1EB11E5C46F01006C0
:101740001E54BBF1000F7CD19BE0FFE7C4F13F03C7
:101750000EEBC318C0F1800301F8009018F803C025
:101760001CEA020F03D04FF0010C01F800C0C4F1D5
:101770002F0C0EEBCC1C1CF80360164203D00E5C41
:1017800046F002060E5498444FF4804616F808605E
:10179000164203D00E5C46F004060E5463444FF428
:1017A0008046F65C164203D00E5C46F008060E54E6
:1017B0004FF4004616F80860164203D00E5C46F05F
:1017C00010060E5403F500431B78134203D00B5C44
:1017D00043F020030B540AEB0523C4F13F0C0EEB3E
:1017E000CC1BC0F1800603F800901BF806C01CEA71
:1017F000020F03D04FF0010C03F800C0C4F12F0812
:101800000EEBC81818F806C01CEA020F05D013F832
:1018100000C04CF0020C03F800C0B3444FF4804CFD
:101820001CF80BC01CEA020F05D013F800C04CF0E6
:10183000040C03F800C046444FF4804C1CF806C06A
:1018400000E01AE01CEA020F05D013F800C04CF0CB
:10185000080C03F800C04FF4004C1CF80BC01CEA45
:10186000020F05D013F800C04CF0100C03F800C0B4
:1018700006F500463678164203D01E5C46F0200678
:101880001E54401C00B2FF287FF7E2AE50006D1CD2
:101890002DB202B2082DFFF6D9AE641C24B2102C72
:1018A000FFF6C6AEBDE8FF8F1C0000201CC0002064
:1018B00008B5FEF7E7FDFFF79DFCFFF7CDFBFFF74F
:1018C0001FFCFFF747FC1348FFF753F911483C3062
:1018D000FFF742F90F4800213C30FFF731FB0D497B
:1018E0000A203C31096848630B4D00242023402224
:1018F000102120460095FFF754FE641C802C00D96F
:101900000024FFF78FFE0021402380220846FFF7C6
:101910006BFBEBE71CC001203C90010800000000BD
:1019200000000000000000003FF03FF0F03CF03C01
:10193000F03CF03CF3FCF3FCF3FCF3FCF3FCF3FCB5
:10194000F3F0F3F0F000F0003FF03FF00000000093
:101950000000000000000000000000000000000087
:10196000000000001FF83FFC700EE007CC33CC33C2
:10197000C003C003C003C003CC33CE73C7E3C3C3EB
:10198000C003C003E007700E3FFC1FF8000000001A
:101990000000000000000000000000000000000047
:1019A000000000001FF83FFC7FFEFFFFF3CFF3CFE6
:1019B000FFFFFFFFFFFFFFFFF3CFF18FF81FFC3F9B
:1019C000FFFFFFFFFFFF7FFE3FFC1FF8000000004E
:1019D0000000000000000000000000000000000007
:1019E00000000000000000000000000038707CF8DB
:1019F000FFFCFFFCFFFCFFFCFFFCFFFC7FF87FF817
:101A00003FF01FE00FC0078003000000000000004F
:101A100000000000000000000000000000000000C6
:101A2000000000000000000000000000030007802C
:101A30000FC01FE03FF07FF8FFFCFFFC7FF83FF096
:101A40001FE00FC00780030000000000000000003E
:101A50000000000000000000000000000000000086
:101A6000000000000000000003C003C00FF00FF0F2
:101A70000FF00FF0FC3FFC3FFC3FFC3FFC3FFC3F06
:101A800003C003C003C003C00FF00FF0000000004C
:101A90000000000000000000000000000000000046
:101AA0000000000000000000018003C007E00FF00C
:101AB0001FF83FFC7FFEFFFFFFFFFFFFFFFF7FFEE2
:101AC0003BDC03C003C003C00FF00FF000000000B8
:101AD0000000000000000000000000000000000006
:101AE00000000000000000000000000000000000F6
:101AF0000000000003C007E00FF00FF00FF00FF040
:101B000007E003C00000000000000000000000002B
:101B1000000000000000000000000000FFFFFFFFC9
:101B2000FFFFFFFFFFFFFFFFFFFFFFFFFFFFFFFFC5
:101B3000FFFFFFFFFC3FF81FF00FF00FF00FF00F5B
:101B4000F81FFC3FFFFFFFFFFFFFFFFFFFFFFFFF4F
:101B5000FFFFFFFFFFFFFFFFFFFFFFFF0000000091
:101B60000000000000000000000000000000000075
:101B70000FF01FF83C3C381C300C300C300C300C93
:101B8000381C3C3C1FF80FF0000000000000000073
:101B9000000000000000000000000000FFFFFFFF49
:101BA000FFFFFFFFFFFFFFFFFFFFFFFFFFFFFFFF45
:101BB000F81FF00FE3C7C7E3CFF3CFF3CFF3CFF3B3
:101BC000C7E3E3C7F00FF81FFFFFFFFFFFFFFFFFB3
:101BD000FFFFFFFFFFFFFFFFFFFFFFFF0000000011
:101BE0000000000003FC03FC007C00FC01FC03EC93
:101BF00007CC0F8C3FC07FE0F9F0F0F0F0F0F0F090
:101C0000F0F0F0F0F0F0F9F07FE03FC000000000ED
:101C100000000000000000000000000000000000C4
:101C2000000000000FF01FF83E7C3C3C3C3C3C3C7C
:101C30003C3C3C3C3C3C3E7C1FF80FF003C003C0E6
:101C40003FFC3FFC03C003C003C003C00000000012
:101C50000000000000000000000000000000000084
:101C6000000000000FFF0FFF0F0F0F0F0FFF0FFF00
:101C70000F000F000F000F000F000F000F000F00EC
:101C80003F003F00FF00FF00FC00FC0000000000E0
:101C90000000000000000000000000000000000044
:101CA000000000003FFF3FFF3C0F3C0F3FFF3FFFA6
:101CB0003C0F3C0F3C0F3C0F3C0F3C0F3C0F3C0FCC
:101CC0003C3F3C3FFC3FFC3FFC3CFC3CF000F00058
:101CD0000000000000000000000000000000000004
:101CE000000000000000000003C003C003C003C0E8
:101CF000F3CFFBDF1FF80FF0FC3FFC3F0FF01FF8A6
:101D0000FBDFF3CF03C003C003C003C0000000002B
:101D100000000000000000000000000000000000C3
:101D20008000C000E000F000F800FC00FE00FF00B2
:101D3000FF80FFC0FFFCFFFCFFC0FF80FF00FE0034
:101D4000FC00F800F000E000C0008000000000008F
:101D50000000000000000000000000000000000083
:101D60000004000C001C003C007C00FC01FC03FC97
:101D700007FC0FFCFFFCFFFC0FFC07FC03FC01FC55
:101D800000FC007C003C001C000C00040000000073
:101D90000000000000000000000000000000000043
:101DA00000000000018003C007E00FF01FF83FFCB7
:101DB00003C003C003C003C003C003C03FFC1FF83F
:101DC0000FF007E003C001800000000000000000E9
:101DD0000000000000000000000000000000000003
:101DE000000000003C3C3C3C3C3C3C3C3C3C3C3C23
:101DF0003C3C3C3C3C3C3C3C3C3C3C3C3C3C3C3C23
:101E0000000000003C3C3C3C3C3C3C3C00000000F2
:101E100000000000000000000000000000000000C2
:101E2000000000003FFF7FFFFBCFF3CFF3CFF3CFE6
:101E3000F3CFFBCF7FCF3FCF03CF03CF03CF03CF72
:101E400003CF03CF03CF03CF03CF03CF00000000A6
:101E50000000000000000000000000000000000082
:101E60003FF03FF0F03CF03C3C003C000FC00FC0A6
:101E70003CF03CF0F03CF03CF03CF03C3CF03CF002
:101E80000FC00FC000F000F0F03CF03C3FF03FF01E
:101E90000000000000000000000000000000000042
:101EA0000000000000000000000000000000000032
:101EB000000000000000000000000000FFFCFFFC2C
:101EC000FFFCFFFCFFFCFFFCFFFCFFFC0000000030
:101ED0000000000000000000000000000000000002
:101EE00000000000018003C007E00FF01FF83FFC76
:101EF00003C003C003C003C003C003C03FFC1FF8FE
:101F00000FF007E003C001803FFC3FFC0000000031
:101F100000000000000000000000000000000000C1
:101F200000000000018003C007E00FF01FF83FFC35
:101F300003C003C003C003C003C003C003C003C089
:101F400003C003C003C003C003C003C000000000FF
:101F50000000000000000000000000000000000081
:101F60000000000003C003C003C003C003C003C0DF
:101F700003C003C003C003C003C003C003C003C049
:101F80003FFC1FF80FF007E003C0018000000000D5
:101F90000000000000000000000000000000000041
:101FA0000000000000000000000000000000000031
:101FB00001C000E000700038FFFCFFFC003800703A
:101FC00000E001C000000000000000000000000070
:101FD0000000000000000000000000000000000001
:101FE00000000000000000000000000000000000F1
:101FF0000E001C0038007000FFFCFFFC7000380071
:102000001C000E00000000000000000000000000A6
:1020100000000000000000000000000000000000C0
:1020200000000000000000000000000000000000B0
:1020300000000000F000F000F000F000F000F00000
:10204000FFFCFFFC0000000000000000000000009A
:102050000000000000000000000000000000000080
:102060000000000000000000000000000000000070
:102070000840186038707878FFFCFFFC787838707A
:102080001860084000000000000000000000000090
:102090000000000000000000000000000000000040
:1020A000000000000000000000000000030003002A
:1020B000078007800FC00FC01FE01FE03FF03FF018
:1020C0007FF87FF8FFFCFFFC00000000000000002C
:1020D0000000000000000000000000000000000000
:1020E000000000000000000000000000FFFCFFFCFA
:1020F0007FF87FF83FF03FF01FE01FE00FC00FC0F8
:1021000007800780030003000000000000000000BB
:1021100000000000000000000000000000000000BF
:1021200000000000000000000000000000000000AF
:10213000000000000000000000000000000000009F
:10214000000000000000000000000000000000008F
:10215000000000000000000000000000000000007F
:102160000000000003C007E00FF00FF00FF00FF0C9
:102170000FF00FF007E007E007E003C003C003C063
:102180000000000003C003C003C003C00000000043
:10219000000000000000000000000000000000003F
:1021A0003C3C3C3C3C3C3C3C3C3C1C380C30000047
:1021B000000000000000000000000000000000001F
:1021C000000000000000000000000000000000000F
:1021D00000000000000000000000000000000000FF
:1021E00000000000000000003CF03CF03CF03CF03F
:1021F000FFFCFFFC3CF03CF03CF03CF03CF03CF0E1
:10220000FFFCFFFC3CF03CF03CF03CF00000000028
:1022100000000000000000000000000007800780B0
:10222000078007803FF07FF8F87CF03CF01CF0005E
:10223000F000F8007FF03FF8007C003C003C003CE0
:10224000003CE03CF03CF87C7FF83FF007800780E2
:102250000780078000000000000000000000000070
:1022600000000000000000007878FC78CCF0CCF092
:10227000FDE079E003C003C0078007800F000F0076
:102280001E781EFC3CCC3CCC78FC7878000000002A
:10229000000000000000000000000000000000003E
:1022A000000000000FC01FE03CF03CF03CF03CF0B0
:1022B0001DE01FC03F1C7FBCFBF8F1F0F0F0F0E028
:1022C000F0E0F0E0F0F0F9F07FF83F3C00000000B3
:1022D00000000000000000000000000000000000FE
:1022E0000F000F000F001F003E003C000000000028
:1022F00000000000000000000000000000000000DE
:1023000000000000000000000000000000000000CD
:1023100000000000000000000000000000000000BD
:1023200000000000007000F001E003C0078007809B
:102330000F000F000F000F000F000F000F000F0025
:102340000780078003C001E000F00070000000007B
:10235000000000000000000000000000000000007D
:10236000000000000E000F00078003C001E001E044
:1023700000F000F000F000F000F000F000F000F0DD
:1023800001E001E003C007800F000E000000000024
:10239000000000000000000000000000000000003D
:1023A000000000000000000000000000000000002D
:1023B00038703CF01FE00FC07FF8FFFC7FF80FC0C3
:1023C0001FE03CF03870000000000000000000003A
:1023D00000000000000000000000000000000000FD
:1023E00000000000000000000000000000000000ED
:1023F00007800780078007807FF87FF87FF80780D5
:102400000780078007800000000000000000000037
:1024100000000000000000000000000000000000BC
:1024200000000000000000000000000000000000AC
:10243000000000000000000000000000000000009C
:102440000000000003C003C003C007C00F800F00DE
:10245000000000000000000000000000000000007C
:10246000000000000000000000000000000000006C
:102470000000000000000000FFFCFFFCFFFC00006B
:10248000000000000000000000000000000000004C
:10249000000000000000000000000000000000003C
:1024A000000000000000000000000000000000002C
:1024B000000000000000000000000000000000001C
:1024C0000000000003C003C003C003C00000000000
:1024D00000000000000000000000000000000000FC
:1024E00000000000003C003C0078007800F000F0A4
:1024F00001E001E003C003C0078007800F000F0068
:102500001E001E003C003C0078007800F000F00047
:1025100000000000000000000000000000000000BB
:10252000000000001FE03FF07CF8F87CF03CF03C3D
:10253000F03CF33CF7BCF7BCF7BCF7BCF33CF03C19
:10254000F03CF03CF87C7CF83FF01FE0000000001D
:10255000000000000000000000000000000000007B
:102560000000000003C007C00FC01FC03FC003C071
:1025700003C003C003C003C003C003C003C003C043
:1025800003C003C003C003C03FFC3FFC00000000C9
:10259000000000000000000000000000000000003B
:1025A000000000003FF07FF8F87CF03CE03C003C8D
:1025B000007C00F801F003E007C00F801F003E0020
:1025C0007C00F800F03CF03CFFFCFFFC0000000049
:1025D00000000000000000000000000000000000FB
:1025E000000000003FF07FF8F87CF03C003C003C2D
:1025F000003C00780FF00FF00078003C003C003CFD
:10260000003C003CF03CF87C7FF83FF0000000000C
:1026100000000000000000000000000000000000BA
:102620000000000000F001F003F007F00FF01FF0D1
:102630003EF07CF0F8F0F0F0FFFCFFFC00F000F062
:1026400000F000F000F000F003FC03FC00000000CC
:10265000000000000000000000000000000000007A
:1026600000000000FFFCFFFCF000F000F000F000B4
:10267000F000F000FFF0FFF8007C003C003C003C64
:10268000003C003CF03CF87C7FF83FF0000000008C
:10269000000000000000000000000000000000003A
:1026A000000000000FF01FF03E007C00F800F0007A
:1026B000F000F000FFF0FFF8F87CF03CF03CF03C5C
:1026C000F03CF03CF03CF87C7FF83FF0000000006C
:1026D00000000000000000000000000000000000FA
:1026E00000000000FFFCFFFCF03CF03C003C003C24
:1026F000007C00F801F003E007C00F800F000F001E
:102700000F000F000F000F000F000F00000000006F
:1027100000000000000000000000000000000000B9
:10272000000000003FF07FF8F87CF03CF03CF03C0B
:10273000F03C78783FF03FF07878F03CF03CF03CAB
:10274000F03CF03CF03CF87C7FF83FF000000000EB
:102750000000000000000000000000000000000079
:10276000000000003FF07FF8F87CF03CF03CF03CCB
:10277000F03CF87C7FFC3FFC003C003C003C003C13
:10278000003C007C00F801F03FE03FC0000000008A
:102790000000000000000000000000000000000039
:1027A00000000000000000000000000003C003C0A3
:1027B00003C003C000000000000000000000000093
:1027C00003C003C003C003C00000000000000000FD
:1027D00000000000000000000000000000000000F9
:1027E00000000000000000000000000003C003C063
:1027F00003C003C000000000000000000000000053
:102800000000000003C003C003C007C00F800F001A
:1028100000000000000000000000000000000000B8
:102820000000000000000000003C007C00F801F007
:1028300003E007C00F801F003E003E001F000F8016
:1028400007C003E001F000F8007C003C000000003D
:102850000000000000000000000000000000000078
:102860000000000000000000000000000000000068
:102870000000FFFCFFFCFFFC000000000000FFFC6C
:10288000FFFCFFFC00000000000000000000000052
:102890000000000000000000000000000000000038
:1028A00000000000000000003C003E001F000F8000
:1028B00007C003E001F000F8007C007C00F801F0A4
:1028C00003E007C00F801F003E003C000000000036
:1028D00000000000000000000000000000000000F8
:1028E000000000003FF07FF8F87CF03CF03CF03C4A
:1028F000003C007C00F801F003E003C003C003C00B
:102900000000000003C003C003C003C000000000BB
:1029100000000000000000000000000000000000B7
:1029200000000000000000003FF07FF8F87CF03C61
:10293000F03CF03CF1FCF3FCF3FCF3FCF3FCF3FCA7
:10294000F3F0F1F0F000F8007FF03FF0000000003D
:102950000000000000000000000000000000000077
:1029600000000000030007800FC01FE03FF07CF86C
:10297000F87CF03CF03CF03CFFFCFFFCF03CF03C11
:10298000F03CF03CF03CF03CF03CF03C000000003F
:102990000000000000000000000000000000000037
:1029A00000000000FFF0FFF83C7C3C3C3C3C3C3C21
:1029B0003C3C3C783FF03FF03C783C3C3C3C3C3C71
:1029C0003C3C3C3C3C3C3C7CFFF8FFF00000000001
:1029D00000000000000000000000000000000000F7
:1029E000000000001FF03FF87C7CF83CF01CF00079
:1029F000F000F000F000F000F000F000F000F00057
:102A0000F000F01CF83C7C7C3FF81FF00000000058
:102A100000000000000000000000000000000000B6
:102A200000000000FFC0FFE03CF03C783C783C3CFC
:102A30003C3C3C3C3C3C3C3C3C3C3C3C3C3C3C3CD6
:102A40003C3C3C783C783CF0FFE0FFC000000000DC
:102A50000000000000000000000000000000000076
:102A600000000000FFFCFFFC3C3C3C1C3C0C3C001C
:102A70003CC03CC03FC03FC03CC03CC03C003C00F0
:102A80003C003C0C3C1C3C3CFFFCFFFC00000000FC
:102A90000000000000000000000000000000000036
:102AA00000000000FFFCFFFC3C3C3C1C3C0C3C00DC
:102AB0003CC03CC03FC03FC03CC03CC03C003C00B0
:102AC0003C003C003C003C00FF00FF000000000018
:102AD00000000000000000000000000000000000F6
:102AE000000000001FF03FF87C7CF83CF01CF00078
:102AF000F000F000F000F000F1FCF1FCF03CF03CE4
:102B0000F03CF03CF83C7C7C3FFC1FEC00000000FB
:102B100000000000000000000000000000000000B5
:102B200000000000F03CF03CF03CF03CF03CF03C9D
:102B3000F03CF03CFFFCFFFCF03CF03CF03CF03C97
:102B4000F03CF03CF03CF03CF03CF03C000000007D
:102B50000000000000000000000000000000000075
:102B6000000000001FE01FE007800780078007804B
:102B7000078007800780078007800780078007801D
:102B800007800780078007801FE01FE0000000002B
:102B90000000000000000000000000000000000035
:102BA0000000000003FC03FC00F000F000F000F067
:102BB00000F000F000F000F000F000F0F0F0F0F0B5
:102BC000F0F0F0F0F0F0F9F07FE03FC0000000001E
:102BD00000000000000000000000000000000000F5
:102BE00000000000FC3CFC3C3C3C3C3C3C3C3C7C55
:102BF0003CF83DF03FE03FC03FC03FE03DF03CF8D7
:102C00003C7C3C3C3C3C3C3CFC3CFC3C0000000034
:102C100000000000000000000000000000000000B4
:102C200000000000FF00FF003C003C003C003C00B6
:102C30003C003C003C003C003C003C003C003C00B4
:102C40003C003C0C3C1C3C3CFFFCFFFC000000003A
:102C50000000000000000000000000000000000074
:102C600000000000F03CF03CF87CF87CFCFCFCFC34
:102C7000FFFCFFFCFFFCFFFCF7BCF7BCF33CF33CA4
:102C8000F03CF03CF03CF03CF03CF03C000000003C
:102C90000000000000000000000000000000000034
:102CA00000000000F03CF83CF83CFC3CFC3CFE3CE6
:102CB000FE3CFF3CFF3CF7BCF7BCF3FCF3FCF1FC33
:102CC000F1FCF0FCF0FCF07CF07CF03C000000003B
:102CD00000000000000000000000000000000000F4
:102CE000000000003FF07FF8F87CF03CF03CF03C46
:102CF000F03CF03CF03CF03CF03CF03CF03CF03C74
:102D0000F03CF03CF03CF87C7FF83FF00000000025
:102D100000000000000000000000000000000000B3
:102D200000000000FFF0FFF83C7C3C3C3C3C3C3C9D
:102D30003C3C3C7C3FF83FF03C003C003C003C000D
:102D40003C003C003C003C00FF00FF000000000095
:102D50000000000000000000000000000000000073
:102D6000000000003FF07FF8F87CF03CF03CF03CC5
:102D7000F03CF03CF03CF03CF03CF03CF03CF03CF3
:102D8000F33CF3BCF3FCF9FC7FF83FF000E000F00B
:102D9000007C003C0000000000000000000000007B
:102DA00000000000FFF0FFF83C7C3C3C3C3C3C3C1D
:102DB0003C3C3C7C3FF83FF03FE03DF03CF83C7C45
:102DC0003C3C3C3C3C3C3C3CFC3CFC3C00000000B3
:102DD00000000000000000000000000000000000F3
:102DE000000000003FF07FF8F87CF03CF03CF03C45
:102DF000F00078003F000FC003F00078003C003C7A
:102E0000F03CF03CF03CF87C7FF83FF00000000024
:102E100000000000000000000000000000000000B2
:102E200000000000FFFCFFFCFFFCC78CC78C078084
:102E3000078007800780078007800780078007805A
:102E400007800780078007801FE01FE00000000068
:102E50000000000000000000000000000000000072
:102E600000000000F03CF03CF03CF03CF03CF03C5A
:102E7000F03CF03CF03CF03CF03CF03CF03CF03CF2
:102E8000F03CF03CF03CF87C7FF83FF000000000A4
:102E90000000000000000000000000000000000032
:102EA00000000000F03CF03CF03CF03CF03CF03C1A
:102EB000F03CF03CF03CF03CF03CF03CF03CF87C6A
:102EC0007CF83FF01FE00FC0078003000000000007
:102ED00000000000000000000000000000000000F2
:102EE00000000000F03CF03CF03CF03CF03CF03CDA
:102EF000F03CF03CF33CF33CF33CF7BCF7BCFFFC8C
:102F0000FFFCFFFC7CF87CF8387038700000000093
:102F100000000000000000000000000000000000B1
:102F200000000000F03CF03C787878783CF03CF011
:102F30001FE01FE00FC00FC00FC00FC01FE01FE059
:102F40003CF03CF078787878F03CF03C00000000F1
:102F50000000000000000000000000000000000071
:102F6000000000003C3C3C3C3C3C3C3C3C3C3C3C91
:102F70003C3C3E7C1FF80FF007E003C003C003C0D9
:102F800003C003C003C003C00FF00FF00000000037
:102F90000000000000000000000000000000000031
:102FA00000000000FFFCFFFCF03CE03CC03C007C6B
:102FB00000F801F003E007C00F801F003E007C0016
:102FC000F800F00CF01CF03CFFFCFFFC00000000DF
:102FD00000000000000000000000000000000000F1
:102FE000000000000FF00FF00F000F000F000F00A7
:102FF0000F000F000F000F000F000F000F000F0059
:103000000F000F000F000F000FF00FF00000000086
:1030100000000000000000000000000000000000B0
:1030200000000000F000F000780078003C003C0058
:103030001E001E000F000F000780078003C003C0A2
:1030400001E001E000F000F000780078003C003C76
:103050000000000000000000000000000000000070
:10306000000000000FF00FF000F000F000F000F0A2
:1030700000F000F000F000F000F000F000F000F0D0
:1030800000F000F000F000F00FF00FF00000000082
:1030900000000000000000000000000003000780A6
:1030A0000FC01FE03CF07878F03CE01C000000000E
:1030B0000000000000000000000000000000000010
:1030C0000000000000000000000000000000000000
:1030D00000000000000000000000000000000000F0
:1030E00000000000000000000000000000000000E0
:1030F00000000000000000000000000000000000D0
:1031000000000000000000000000000000000000BF
:10311000FFFFFFFF000000000000000000000000B3
:103120000F000F000F000F8007C003C00000000059
:10313000000000000000000000000000000000008F
:10314000000000000000000000000000000000007F
:10315000000000000000000000000000000000006F
:10316000000000000000000000000000000000005F
:103170003FC03FE001F000F03FF07FF0F8F0F0F0EA
:10318000F0F0F0F0F0F0F9F07FFC3F3C00000000C0
:10319000000000000000000000000000000000002F
:1031A00000000000FC00FC003C003C003C003C0037
:1031B0003F803FE03FF03CF83C7C3C3C3C3C3C3CAE
:1031C0003C3C3C3C3C3C3C7C3FF83FF00000000079
:1031D00000000000000000000000000000000000EF
:1031E00000000000000000000000000000000000DF
:1031F0003FF07FF8F87CF03CF000F000F000F000C9
:10320000F000F000F03CF87C7FF83FF00000000098
:1032100000000000000000000000000000000000AE
:103220000000000003F003F000F000F000F000F0F8
:103230000FF01FF03CF078F0F0F0F0F0F0F0F0F06C
:10324000F0F0F0F0F0F079F03FFC1F3C00000000DF
:10325000000000000000000000000000000000006E
:10326000000000000000000000000000000000005E
:103270003FF07FF8F87CF03CF03CFFFCFFFCF000F6
:10328000F000F000F03CF87C7FF83FF00000000018
:10329000000000000000000000000000000000002E
:1032A000000000000FC01FE03FF03CF03C703C000D
:1032B0003C003C00FF00FF003C003C003C003C00A8
:1032C0003C003C003C003C00FF00FF000000000010
:1032D00000000000000000000000000000000000EE
:1032E00000000000000000000000000000000000DE
:1032F0003F3C7FFCF9F0F0F0F0F0F0F0F0F0F0F08F
:10330000F0F0F0F0F0F0F8F07FF03FF000F000F0B7
:10331000F0F0F9F07FE03FC0000000000000000086
:1033200000000000FC00FC003C003C003C003C00B5
:103330003CF03FF83FFC3F3C3C3C3C3C3C3C3C3C94
:103340003C3C3C3C3C3C3C3CFC3CFC3C000000002D
:10335000000000000000000000000000000000006D
:103360000000000007800780078007800000000041
:103370001F801F80078007800780078007800780E5
:1033800007800780078007801FE01FE00000000023
:10339000000000000000000000000000000000002D
:1033A00000000000003C003C003C003C000000002D
:1033B00000FC00FC003C003C003C003C003C003CAD
:1033C000003C003C003C003C003C003C3C3C3C3CA5
:1033D0003C3C3E7C1FF80FF00000000000000000A5
:1033E00000000000FC00FC003C003C003C003C00F5
:1033F0003C3C3C7C3CF83DF03FE03FC03FC03FE000
:103400003DF03CF83C7C3C3CFC3CFC3C00000000BB
:1034100000000000000000000000000000000000AC
:10342000000000001F801F80078007800780078042
:103430000780078007800780078007800780078054
:1034400007800780078007801FE01FE00000000062
:10345000000000000000000000000000000000006C
:10346000000000000000000000000000000000005C
:10347000FCF0FFF8FFFCFFFCF33CF33CF33CF33CB7
:10348000F33CF33CF33CF33CF03CF03C0000000028
:10349000000000000000000000000000000000002C
:1034A000000000000000000000000000000000001C
:1034B000F3F0FFF83E7C3C3C3C3C3C3C3C3C3C3C20
:1034C0003C3C3C3C3C3C3C3C3C3C3C3C000000002C
:1034D00000000000000000000000000000000000EC
:1034E00000000000000000000000000000000000DC
:1034F0003FF07FF8F87CF03CF03CF03CF03CF03CD6
:10350000F03CF03CF03CF87C7FF83FF0000000001D
:1035100000000000000000000000000000000000AB
:10352000000000000000000000000000000000009B
:10353000F3F0FFF83E7C3C3C3C3C3C3C3C3C3C3C9F
:103540003C3C3C3C3C3C3C7C3FF83FF03C003C007D
:103550003C003C00FF00FF000000000000000000F5
:10356000000000000000000000000000000000005B
:103570003F3C7FFCF9F0F0F0F0F0F0F0F0F0F0F00C
:10358000F0F0F0F0F0F0F8F07FF03FF000F000F035
:1035900000F000F003FC03FC00000000000000004D
:1035A000000000000000000000000000000000001B
:1035B000F3F0FFF83F7C3E3C3C3C3C3C3C003C0094
:1035C0003C003C003C003C00FF00FF00000000000D
:1035D00000000000000000000000000000000000EB
:1035E00000000000000000000000000000000000DB
:1035F0003FF07FF8F07CF03C78003E001F8007E051
:1036000001F00078F03CF83C7FF83FF0000000004B
:1036100000000000000000000000000000000000AA
:10362000000000000100030007000F000F000F0062
:10363000FFF0FFF00F000F000F000F000F000F0052
:103640000F000F000F1C0FBC07F803F00000000074
:10365000000000000000000000000000000000006A
:10366000000000000000000000000000000000005A
:10367000F0F0F0F0F0F0F0F0F0F0F0F0F0F0F0F04A
:10368000F0F0F0F0F0F0F9F07FFC3F3C00000000BB
:10369000000000000000000000000000000000002A
:1036A000000000000000000000000000000000001A
:1036B0003C3C3C3C3C3C3C3C3C3C3C3C3C3C3C3C4A
:1036C0003E7C1FF80FF007E003C0018000000000FF
:1036D00000000000000000000000000000000000EA
:1036E00000000000000000000000000000000000DA
:1036F000F03CF03CF03CF03CF33CF33CF33CF7BCDA
:10370000F7BCFFFCFFFCFFFC7CF8387000000000F9
:1037100000000000000000000000000000000000A9
:103720000000000000000000000000000000000099
:10373000F03CF87C7CF83FF01FE00FC00FC00FC0DA
:103740000FC01FE03FF07CF8F87CF03C0000000068
:103750000000000000000000000000000000000069
:103760000000000000000000000000000000000059
:10377000F03CF03CF03CF03CF03CF03CF03CF03CE9
:10378000F03CF03CF03CF83C7FFC3FFC003C007C13
:1037900000F801F0FFE0FFC00000000000000000A2
:1037A0000000000000000000000000000000000019
:1037B000FFFCFFFCF0F8F1F003E007C00F801F00F2
:1037C0003E007C00F83CF03CFFFCFFFC00000000E9
:1037D00000000000000000000000000000000000E9
:1037E0000000000000FC01FC03E003C003C003C0B4
:1037F00003C007803F003F00078003C003C003C031
:1038000003C003C003C003E001FC00FC0000000093
:1038100000000000000000000000000000000000A8
:103820000000000003C003C003C003C003C003C006
:1038300003C003C00000000003C003C003C003C0F6
:1038400003C003C003C003C003C003C000000000E6
:103850000000000000000000000000000000000068
:10386000000000003F003F8007C003C003C003C04A
:1038700003C001E000FC00FC01E003C003C003C082
:1038800003C003C003C007C03F803F00000000002A
:103890000000000000000000000000000000000028
:1038A000000000003C1C7F3CFFFCF3F8E0F000004F
:1038B0000000000000000000000000000000000008
:1038C00000000000000000000000000000000000F8
:1038D00000000000000000000000000000000000E8
:1038E000000000000000000000000000030007804E
:1038F0000FC01FE03FF07CF8F87CF03CF03CF03C5F
:10390000F03CF03CFFFCFFFC000000000000000069
:1039100000000000000000000000000000000000A7
:10392000000000000FF00FF03C3C3C3CF00CF00CB1
:10393000F000F000F000F000F000F000F00CF00CEF
:103940003C3C3C3C0FF00FF000F000F0003C003C31
:103950003FF03FF000000000000000000000000009
:1039600000000000F0F0F0F0000000000000000097
:10397000F0F0F0F0F0F0F0F0F0F0F0F0F0F0F0F047
:10398000F0F0F0F0F0F0F0F03F3C3F3C00000000C1
:103990000000000000000000000000000000000027
:1039A00000F000F003C003C00F000F000000000093
:1039B0003FF03FF0F03CF03CFFFCFFFCF000F0007B
:1039C000F000F000F03CF03C3FF03FF00000000061
:1039D00000000000000000000000000000000000E7
:1039E000030003000FC00FC03CF03CF000000000DB
:1039F0003FC03FC000F000F03FF03FF0F0F0F0F0CB
:103A0000F0F0F0F0F0F0F0F03F3C3F3C0000000040
:103A100000000000000000000000000000000000A6
:103A200000000000F0F0F0F00000000000000000D6
:103A30003FC03FC000F000F03FF03FF0F0F0F0F08A
:103A4000F0F0F0F0F0F0F0F03F3C3F3C0000000000
:103A50000000000000000000000000000000000066
:103A60003C003C000F000F0003C003C0000000003A
:103A70003FC03FC000F000F03FF03FF0F0F0F0F04A
:103A8000F0F0F0F0F0F0F0F03F3C3F3C00000000C0
:103A90000000000000000000000000000000000026
:103AA0000FC00FC03CF03CF00FC00FC00000000082
:103AB0003FC03FC000F000F03FF03FF0F0F0F0F00A
:103AC000F0F0F0F0F0F0F0F03F3C3F3C0000000080
:103AD00000000000000000000000000000000000E6
:103AE0000000000000000000000000000FF00FF0D8
:103AF0003C3C3C3C3C003C003C003C003C3C3C3CF6
:103B00000FF00FF000F000F0003C003C0FF00FF061
:103B100000000000000000000000000000000000A5
:103B2000030003000FC00FC03CF03CF00000000099
:103B30003FF03FF0F03CF03CFFFCFFFCF000F000F9
:103B4000F000F000F03CF03C3FF03FF000000000DF
:103B50000000000000000000000000000000000065
:103B600000000000F03CF03C0000000000000000FD
:103B70003FF03FF0F03CF03CFFFCFFFCF000F000B9
:103B8000F000F000F03CF03C3FF03FF0000000009F
:103B90000000000000000000000000000000000025
:103BA0003C003C000F000F0003C003C000000000F9
:103BB0003FF03FF0F03CF03CFFFCFFFCF000F00079
:103BC000F000F000F03CF03C3FF03FF0000000005F
:103BD00000000000000000000000000000000000E5
:103BE000000000003C3C3C3C0000000000000000E5
:103BF0000FC00FC003C003C003C003C003C003C095
:103C000003C003C003C003C00FF00FF000000000AA
:103C100000000000000000000000000000000000A4
:103C200003C003C00FF00FF03C3C3C3C0000000020
:103C30000FC00FC003C003C003C003C003C003C054
:103C400003C003C003C003C00FF00FF0000000006A
:103C50000000000000000000000000000000000064
:103C60003C003C000F000F0003C003C00000000038
:103C70000FC00FC003C003C003C003C003C003C014
:103C800003C003C003C003C00FF00FF0000000002A
:103C90000000000000000000000000000000000024
:103CA000F03CF03C00000000030003000FC00FC018
:103CB0003CF03CF0F03CF03CF03CF03CFFFCFFFC06
:103CC000F03CF03CF03CF03CF03CF03C00000000EC
:103CD0000000000000000000000000000FC00FC046
:103CE0003CF03CF00FC00FC0000000000FC00FC040
:103CF0003CF03CF0F03CF03CF03CF03CFFFCFFFCC6
:103D0000F03CF03CF03CF03CF03CF03C00000000AB
:103D100000000000000000000000000003C003C01D
:103D20000F000F003C003C0000000000FFFCFFFC07
:103D30003C3C3C3C3C003C003FF03FF03C003C0045
:103D40003C003C003C3C3C3CFFFCFFFC0000000015
:103D50000000000000000000000000000000000063
:103D60000000000000000000000000000000000053
:103D7000F0F0F0F03F3C3F3C0F3C0F3C3FFC3FFC81
:103D8000F3C0F3C0F3C0F3C03CFC3CFC00000000F7
:103D90000000000000000000000000000000000023
:103DA000000000000FFC0FFC3CF03CF0F0F0F0F0E5
:103DB000F0F0F0F0FFFCFFFCF0F0F0F0F0F0F0F0CD
:103DC000F0F0F0F0F0F0F0F0F0FCF0FC000000009B
:103DD00000000000000000000000000000000000E3
:103DE000030003000FC00FC03CF03CF000000000D7
:103DF0003FF03FF0F03CF03CF03CF03CF03CF03C5D
:103E0000F03CF03CF03CF03C3FF03FF000000000A4
:103E100000000000000000000000000000000000A2
:103E200000000000F03CF03C00000000000000003A
:103E30003FF03FF0F03CF03CF03CF03CF03CF03C1C
:103E4000F03CF03CF03CF03C3FF03FF00000000064
:103E50000000000000000000000000000000000062
:103E60003C003C000F000F0003C003C00000000036
:103E70003FF03FF0F03CF03CF03CF03CF03CF03CDC
:103E8000F03CF03CF03CF03C3FF03FF00000000024
:103E90000000000000000000000000000000000022
:103EA0000F000F003FC03FC0F0F0F0F00000000036
:103EB000F0F0F0F0F0F0F0F0F0F0F0F0F0F0F0F002
:103EC000F0F0F0F0F0F0F0F03F3C3F3C000000007C
:103ED00000000000000000000000000000000000E2
:103EE0003C003C000F000F0003C003C000000000B6
:103EF000F0F0F0F0F0F0F0F0F0F0F0F0F0F0F0F0C2
:103F0000F0F0F0F0F0F0F0F03F3C3F3C000000003B
:103F100000000000000000000000000000000000A1
:103F200000000000F03CF03C000000000000000039
:103F3000F03CF03CF03CF03CF03CF03CF03CF03C21
:103F4000F03CF03CF03CF03C3FFC3FFC003C003CD3
:103F500000F000F03FC03FC0000000000000000083
:103F6000F03CF03C000000003FF03FF0F03CF03C43
:103F7000F03CF03CF03CF03CF03CF03CF03CF03CE1
:103F8000F03CF03CF03CF03C3FF03FF00000000023
:103F90000000000000000000000000000000000021
:103FA000F03CF03C00000000F03CF03CF03CF03C09
:103FB000F03CF03CF03CF03CF03CF03CF03CF03CA1
:103FC000F03CF03CF03CF03C3FF03FF000000000E3
:103FD00000000000000000000000000000000000E1
:103FE00003C003C003C003C00FF00FF03C3C3C3CD7
:103FF0003C003C003C003C003C003C003C3C3C3C69
:104000000FF00FF003C003C003C003C000000000A6
:1040100000000000000000000000000000000000A0
:104020000FC00FC03CF03CF03C303C303C003C004A
:10403000FF00FF003C003C003C003C003C003C001A
:104040003C003C00FC3CFC3CFFF0FFF000000000AA
:104050000000000000000000000000000000000060
:10406000000000003C3C3C3C3C3C3C3C0FF00FF072
:1040700003C003C03FFC3FFC03C003C03FFC3FFC48
:1040800003C003C003C003C003C003C0000000009E
:104090000000000000000000000000000000000020
:1040A000FFC0FFC0F0F0F0F0F0F0F0F0FFC0FFC094
:1040B000F030F030F0F0F0F0F3FCF3FCF0F0F0F062
:1040C000F0F0F0F0F0F0F0F0F03CF03C0000000018
:1040D00000000000000000000000000000000000E0
:1040E00000FC00FC03CF03CF03C003C003C003C028
:1040F00003C003C03FFC3FFC03C003C003C003C0B8
:1041000003C003C003C003C003C003C0F3C0F3C0B7
:104110003F003F0000000000000000000000000021
:1041200003C003C00F000F003C003C000000000073
:104130003FC03FC000F000F03FF03FF0F0F0F0F083
:10414000F0F0F0F0F0F0F0F03F3C3F3C00000000F9
:10415000000000000000000000000000000000005F
:1041600000F000F003C003C00F000F0000000000CB
:104170000FC00FC003C003C003C003C003C003C00F
:1041800003C003C003C003C00FF00FF00000000025
:10419000000000000000000000000000000000001F
:1041A00003C003C00F000F003C003C0000000000F3
:1041B0003FF03FF0F03CF03CF03CF03CF03CF03C99
:1041C000F03CF03CF03CF03C3FF03FF000000000E1
:1041D00000000000000000000000000000000000DF
:1041E00003C003C00F000F003C003C0000000000B3
:1041F000F0F0F0F0F0F0F0F0F0F0F0F0F0F0F0F0BF
:10420000F0F0F0F0F0F0F0F03F3C3F3C0000000038
:10421000000000000000000000000000000000009E
:10422000000000003F3C3F3CF3F0F3F000000000D2
:10423000F3F0F3F03C3C3C3C3C3C3C3C3C3C3C3CE8
:104240003C3C3C3C3C3C3C3C3C3C3C3C000000009E
:104250000000000000000000000000003F3C3F3C68
:10426000F3F0F3F000000000F03CF03CFC3CFC3CC0
:10427000FF3CFF3CFFFCFFFCF3FCF3FCF0FCF0FC1C
:10428000F03CF03CF03CF03CF03CF03C0000000026
:10429000000000000000000000000000000000001E
:1042A0000FF00FF03CF03CF03CF03CF00FFC0FFC4A
:1042B000000000003FFC3FFC000000000000000088
:1042C00000000000000000000000000000000000EE
:1042D00000000000000000000000000000000000DE
:1042E0000FC00FC03CF03CF03CF03CF00FC00FC0E2
:1042F000000000003FF03FF0000000000000000060
:1043000000000000000000000000000000000000AD
:10431000000000000000000000000000000000009D
:10432000000000000F000F000F000F000000000051
:104330000F000F000F001F003E007C00F800F0008F
:10434000F03CF03CF03CF87C7FF83FF000000000CF
:10435000000000000000000000000000000000005D
:10436000000000000000000000000000000000004D
:1043700000000000FFFCFFFCF000F000F000F00087
:10438000F000F000F000F00000000000000000006D
:10439000000000000000000000000000000000001D
:1043A000000000000000000000000000000000000D
:1043B00000000000FFFCFFFC003C003C003C003C17
:1043C000003C003C003C003C0000000000000000FD
:1043D00000000000000000000000000000000000DD
:1043E000F000F000F000F000F00CF00CF03CF03CBD
:1043F000F0F0F0F003C003C00F000F003C003C00E1
:10440000F3F0F3F0C03CC03C00F000F003C003C088
:104410000FFC0FFC00000000000000000000000086
:10442000F000F000F000F000F00CF00CF03CF03C7C
:10443000F0F0F0F003C003C00F000F003C3C3C3C28
:10444000F0FCF0FCC3FCC3FC0FFC0FFC003C003C88
:10445000003C003C000000000000000000000000E4
:104460000000000003C003C003C003C00000000040
:1044700003C003C003C007E007E007E00FF00FF040
:104480000FF00FF00FF00FF007E003C00000000086
:10449000000000000000000000000000000000001C
:1044A000000000000000000000000000000000000C
:1044B0000E1C1E3C3C7878F0F1E0F1E078F03C789E
:1044C0001E3C0E1C00000000000000000000000068
:1044D00000000000000000000000000000000000DC
:1044E00000000000000000000000000000000000CC
:1044F000E1C0F1E078F03C781E3C1E3C3C7878F05E
:10450000F1E0E1C000000000000000000000000039
:10451000000000000000000000000000030303038F
:1045200030303030030303033030303003030303F3
:1045300030303030030303033030303003030303E3
:1045400030303030030303033030303003030303D3
:104550003030303003030303303030303333333303
:10456000CCCCCCCC33333333CCCCCCCC3333333353
:10457000CCCCCCCC33333333CCCCCCCC3333333343
:10458000CCCCCCCC33333333CCCCCCCC3333333333
:10459000CCCCCCCC33333333CCCCCCCCF3F3F3F323
:1045A0003F3F3F3FF3F3F3F33F3F3F3FF3F3F3F37B
:1045B0003F3F3F3FF3F3F3F33F3F3F3FF3F3F3F36B
:1045C0003F3F3F3FF3F3F3F33F3F3F3FF3F3F3F35B
:1045D0003F3F3F3FF3F3F3F33F3F3F3F03C003C091
:1045E00003C003C003C003C003C003C003C003C0B3
:1045F00003C003C003C003C003C003C003C003C0A3
:1046000003C003C003C003C003C003C003C003C092
:1046100003C003C003C003C003C003C003C003C082
:1046200003C003C003C003C003C003C003C003C072
:1046300003C003C003C003C0FFC0FFC003C003C06A
:1046400003C003C003C003C003C003C003C003C052
:1046500003C003C003C003C003C003C003C003C042
:1046600003C003C003C003C003C003C003C003C032
:10467000FFC0FFC003C003C0FFC0FFC003C003C032
:1046800003C003C003C003C003C003C003C003C012
:1046900003C003C003C003C003C003C00F3C0F3CF2
:1046A0000F3C0F3C0F3C0F3C0F3C0F3C0F3C0F3CB2
:1046B0000F3C0F3C0F3C0F3CFF3CFF3C0F3C0F3CC2
:1046C0000F3C0F3C0F3C0F3C0F3C0F3C0F3C0F3C92
:1046D0000F3C0F3C0F3C0F3C0F3C0F3C0000000018
:1046E00000000000000000000000000000000000CA
:1046F0000000000000000000FFFCFFFC0F3C0F3C2E
:104700000F3C0F3C0F3C0F3C0F3C0F3C0F3C0F3C51
:104710000F3C0F3C0F3C0F3C0F3C0F3C00000000D7
:104720000000000000000000000000000000000089
:10473000FFC0FFC003C003C0FFC0FFC003C003C071
:1047400003C003C003C003C003C003C003C003C051
:1047500003C003C003C003C003C003C00F3C0F3C31
:104760000F3C0F3C0F3C0F3C0F3C0F3C0F3C0F3CF1
:10477000FF3CFF3C003C003CFF3CFF3C0F3C0F3C3F
:104780000F3C0F3C0F3C0F3C0F3C0F3C0F3C0F3CD1
:104790000F3C0F3C0F3C0F3C0F3C0F3C0F3C0F3CC1
:1047A0000F3C0F3C0F3C0F3C0F3C0F3C0F3C0F3CB1
:1047B0000F3C0F3C0F3C0F3C0F3C0F3C0F3C0F3CA1
:1047C0000F3C0F3C0F3C0F3C0F3C0F3C0F3C0F3C91
:1047D0000F3C0F3C0F3C0F3C0F3C0F3C0000000017
:1047E00000000000000000000000000000000000C9
:1047F000FFFCFFFC003C003CFF3CFF3C0F3C0F3C3F
:104800000F3C0F3C0F3C0F3C0F3C0F3C0F3C0F3C50
:104810000F3C0F3C0F3C0F3C0F3C0F3C0F3C0F3C40
:104820000F3C0F3C0F3C0F3C0F3C0F3C0F3C0F3C30
:10483000FF3CFF3C003C003CFFFCFFFC0000000094
:104840000000000000000000000000000000000068
:104850000000000000000000000000000F3C0F3CC2
:104860000F3C0F3C0F3C0F3C0F3C0F3C0F3C0F3CF0
:104870000F3C0F3C0F3C0F3CFFFCFFFC0000000016
:104880000000000000000000000000000000000028
:1048900000000000000000000000000003C003C092
:1048A00003C003C003C003C003C003C003C003C0F0
:1048B000FFC0FFC003C003C0FFC0FFC00000000076
:1048C00000000000000000000000000000000000E8
:1048D00000000000000000000000000000000000D8
:1048E00000000000000000000000000000000000C8
:1048F0000000000000000000FFC0FFC003C003C0B4
:1049000003C003C003C003C003C003C003C003C08F
:1049100003C003C003C003C003C003C003C003C07F
:1049200003C003C003C003C003C003C003C003C06F
:1049300003C003C003C003C003FF03FF0000000067
:104940000000000000000000000000000000000067
:1049500000000000000000000000000003C003C0D1
:1049600003C003C003C003C003C003C003C003C02F
:1049700003C003C003C003C0FFFFFFFF000000002F
:104980000000000000000000000000000000000027
:104990000000000000000000000000000000000017
:1049A0000000000000000000000000000000000007
:1049B0000000000000000000FFFFFFFF03C003C075
:1049C00003C003C003C003C003C003C003C003C0CF
:1049D00003C003C003C003C003C003C003C003C0BF
:1049E00003C003C003C003C003C003C003C003C0AF
:1049F00003C003C003C003C003FF03FF03C003C021
:104A000003C003C003C003C003C003C003C003C08E
:104A100003C003C003C003C003C003C00000000004
:104A20000000000000000000000000000000000086
:104A30000000000000000000FFFFFFFF000000007A
:104A40000000000000000000000000000000000066
:104A500000000000000000000000000003C003C0D0
:104A600003C003C003C003C003C003C003C003C02E
:104A700003C003C003C003C0FFFFFFFF03C003C0A8
:104A800003C003C003C003C003C003C003C003C00E
:104A900003C003C003C003C003C003C003C003C0FE
:104AA00003C003C003C003C003C003C003C003C0EE
:104AB00003FF03FF03C003C003FF03FF03C003C0E2
:104AC00003C003C003C003C003C003C003C003C0CE
:104AD00003C003C003C003C003C003C00F3C0F3CAE
:104AE0000F3C0F3C0F3C0F3C0F3C0F3C0F3C0F3C6E
:104AF0000F3C0F3C0F3C0F3C0F3F0F3F0F3C0F3C58
:104B00000F3C0F3C0F3C0F3C0F3C0F3C0F3C0F3C4D
:104B10000F3C0F3C0F3C0F3C0F3C0F3C0F3C0F3C3D
:104B20000F3C0F3C0F3C0F3C0F3C0F3C0F3C0F3C2D
:104B30000F3F0F3F0F000F000FFF0FFF000000009F
:104B40000000000000000000000000000000000065
:104B50000000000000000000000000000000000055
:104B60000000000000000000000000000000000045
:104B70000FFF0FFF0F000F000F3F0F3F0F3C0F3CC9
:104B80000F3C0F3C0F3C0F3C0F3C0F3C0F3C0F3CCD
:104B90000F3C0F3C0F3C0F3C0F3C0F3C0F3C0F3CBD
:104BA0000F3C0F3C0F3C0F3C0F3C0F3C0F3C0F3CAD
:104BB000FF3FFF3F00000000FFFFFFFF000000007D
:104BC00000000000000000000000000000000000E5
:104BD00000000000000000000000000000000000D5
:104BE00000000000000000000000000000000000C5
:104BF000FFFFFFFF00000000FF3FFF3F0F3C0F3CA7
:104C00000F3C0F3C0F3C0F3C0F3C0F3C0F3C0F3C4C
:104C10000F3C0F3C0F3C0F3C0F3C0F3C0F3C0F3C3C
:104C20000F3C0F3C0F3C0F3C0F3C0F3C0F3C0F3C2C
:104C30000F3F0F3F0F000F000F3F0F3F0F3C0F3C88
:104C40000F3C0F3C0F3C0F3C0F3C0F3C0F3C0F3C0C
:104C50000F3C0F3C0F3C0F3C0F3C0F3C0000000092
:104C60000000000000000000000000000000000044
:104C7000FFFFFFFF00000000FFFFFFFF000000003C
:104C80000000000000000000000000000000000024
:104C90000000000000000000000000000F3C0F3C7E
:104CA0000F3C0F3C0F3C0F3C0F3C0F3C0F3C0F3CAC
:104CB000FF3FFF3F00000000FF3FFF3F0F3C0F3C66
:104CC0000F3C0F3C0F3C0F3C0F3C0F3C0F3C0F3C8C
:104CD0000F3C0F3C0F3C0F3C0F3C0F3C03C003C08C
:104CE00003C003C003C003C003C003C003C003C0AC
:104CF000FFFFFFFF00000000FFFFFFFF00000000BC
:104D000000000000000000000000000000000000A3
:104D10000000000000000000000000000F3C0F3CFD
:104D20000F3C0F3C0F3C0F3C0F3C0F3C0F3C0F3C2B
:104D30000F3C0F3C0F3C0F3CFFFFFFFF000000004B
:104D40000000000000000000000000000000000063
:104D50000000000000000000000000000000000053
:104D60000000000000000000000000000000000043
:104D7000FFFFFFFF00000000FFFFFFFF03C003C0B5
:104D800003C003C003C003C003C003C003C003C00B
:104D900003C003C003C003C003C003C00000000081
:104DA0000000000000000000000000000000000003
:104DB0000000000000000000FFFFFFFF0F3C0F3C61
:104DC0000F3C0F3C0F3C0F3C0F3C0F3C0F3C0F3C8B
:104DD0000F3C0F3C0F3C0F3C0F3C0F3C0F3C0F3C7B
:104DE0000F3C0F3C0F3C0F3C0F3C0F3C0F3C0F3C6B
:104DF0000F3C0F3C0F3C0F3C0FFF0FFF000000006B
:104E000000000000000000000000000000000000A2
:104E100000000000000000000000000003C003C00C
:104E200003C003C003C003C003C003C003C003C06A
:104E300003FF03FF03C003C003FF03FF00000000E4
:104E40000000000000000000000000000000000062
:104E50000000000000000000000000000000000052
:104E60000000000000000000000000000000000042
:104E700003FF03FF03C003C003FF03FF03C003C01E
:104E800003C003C003C003C003C003C003C003C00A
:104E900003C003C003C003C003C003C00000000080
:104EA0000000000000000000000000000000000002
:104EB00000000000000000000FFF0FFF0F3C0F3C40
:104EC0000F3C0F3C0F3C0F3C0F3C0F3C0F3C0F3C8A
:104ED0000F3C0F3C0F3C0F3C0F3C0F3C0F3C0F3C7A
:104EE0000F3C0F3C0F3C0F3C0F3C0F3C0F3C0F3C6A
:104EF0000F3C0F3C0F3C0F3CFFFFFFFF0F3C0F3CF4
:104F00000F3C0F3C0F3C0F3C0F3C0F3C0F3C0F3C49
:104F10000F3C0F3C0F3C0F3C0F3C0F3C03C003C049
:104F200003C003C003C003C003C003C003C003C069
:104F3000FFFFFFFF03C003C0FFFFFFFF03C003C06D
:104F400003C003C003C003C003C003C003C003C049
:104F500003C003C003C003C003C003C003C003C039
:104F600003C003C003C003C003C003C003C003C029
:104F700003C003C003C003C0FFC0FFC000000000A7
:104F80000000000000000000000000000000000021
:104F90000000000000000000000000000000000011
:104FA0000000000000000000000000000000000001
:104FB000000000000000000003FF03FF03C003C067
:104FC00003C003C003C003C003C003C003C003C0C9
:104FD00003C003C003C003C003C003C0FFFFFFFF43
:104FE000FFFFFFFFFFFFFFFFFFFFFFFFFFFFFFFFD1
:104FF000FFFFFFFFFFFFFFFFFFFFFFFFFFFFFFFFC1
:10500000FFFFFFFFFFFFFFFFFFFFFFFFFFFFFFFFB0
:10501000FFFFFFFFFFFFFFFFFFFFFFFF000000009C
:105020000000000000000000000000000000000080
:105030000000000000000000FFFFFFFFFFFFFFFF78
:10504000FFFFFFFFFFFFFFFFFFFFFFFFFFFFFFFF70
:10505000FFFFFFFFFFFFFFFFFFFFFFFFFF00FF005E
:10506000FF00FF00FF00FF00FF00FF00FF00FF0048
:10507000FF00FF00FF00FF00FF00FF00FF00FF0038
:10508000FF00FF00FF00FF00FF00FF00FF00FF0028
:10509000FF00FF00FF00FF00FF00FF0000FF00FF18
:1050A00000FF00FF00FF00FF00FF00FF00FF00FF08
:1050B00000FF00FF00FF00FF00FF00FF00FF00FFF8
:1050C00000FF00FF00FF00FF00FF00FF00FF00FFE8
:1050D00000FF00FF00FF00FF00FF00FFFFFFFFFFDA
:1050E000FFFFFFFFFFFFFFFFFFFFFFFFFFFFFFFFD0
:1050F000FFFFFFFFFFFFFFFF0000000000000000B8
:10510000000000000000000000000000000000009F
:10511000000000000000000000000000000000008F
:10512000000000000000000000000000000000007F
:105130003F3C3F3CF3F0F3F0F3C0F3C0F3C0F3C0E7
:10514000F3C0F3C0F3F0F3F03F3C3F3C000000003D
:10515000000000000000000000000000000000004F
:10516000000000003FC07FE0F9F0F0F0F0F0F0F058
:10517000F0F0F1E0F3C0F3E0F1F0F0F8F07CF03C97
:10518000F03CF03CF03CF07CF0F8F0F00000000067
:10519000000000000000000000000000000000000F
:1051A00000000000FFFCFFFCF03CF03CF03CF03C59
:1051B000F000F000F000F000F000F000F000F0006F
:1051C000F000F000F000F000F000F000000000003F
:1051D00000000000000000000000000000000000CF
:1051E000000000000000000000000000FFFCFFFCC9
:1051F0003CF03CF03CF03CF03CF03CF03CF03CF04F
:105200003CF03CF03CF03CF03CF03CF00000000096
:10521000000000000000000000000000000000008E
:105220000000000000000000FFFCFFFCF03CF83C28
:105230007C003E001F000F8007C007C00F801F00CA
:105240003E007C00F83CF03CFFFCFFFC000000004E
:10525000000000000000000000000000000000004E
:10526000000000000000000000000000000000003E
:105270003FFC3FFCF3C0F3C0F3C0F3C0F3C0F3C086
:10528000F3C0F3C0F3C0F3C03F003F0000000000D4
:10529000000000000000000000000000000000000E
:1052A0000000000000000000000000003C3C3C3C0E
:1052B0003C3C3C3C3C3C3C3C3C3C3C3C3C3C3C3C2E
:1052C0003FF03FF03C003C003C003C00F000F000B0
:1052D00000000000000000000000000000000000CE
:1052E0000000000000000000000000003F3C3F3CC8
:1052F000F3F0F3F003C003C003C003C003C003C056
:1053000003C003C003C003C003C003C0000000000B
:10531000000000000000000000000000000000008D
:1053200000000000000000003FFC3FFC03C003C081
:105330000FF00FF03C3C3C3C3C3C3C3C3C3C3C3C9F
:105340000FF00FF003C003C03FFC3FFC0000000063
:10535000000000000000000000000000000000004D
:1053600000000000000000000FC00FC03CF03CF047
:10537000F03CF03CF03CF03CFFFCFFFCF03CF03C2F
:10538000F03CF03C3CF03CF00FC00FC000000000CF
:10539000000000000000000000000000000000000D
:1053A000000000000FC00FC03CF03CF0F03CF03CAF
:1053B000F03CF03CF03CF03C3CF03CF03CF03CF08D
:1053C0003CF03CF03CF03CF0FCFCFCFC000000003D
:1053D00000000000000000000000000000000000CD
:1053E0000000000003FC03FC0F000F0003C003C01B
:1053F00000F000F00FFC0FFC3C3C3C3C3C3C3C3CD7
:105400003C3C3C3C3C3C3C3C0FF00FF000000000BE
:10541000000000000000000000000000000000008C
:10542000000000000000000000000000000000007C
:105430003FFC3FFCF3CFF3CFF3CFF3CFF3CFF3CF6A
:105440003FFC3FFC000000000000000000000000E6
:10545000000000000000000000000000000000004C
:105460000000000000000000000F000F003C003CA6
:105470003FFC3FFCF3CFF3CFF3CFF3CFFF0FFF0F92
:105480003FFC3FFC3C003C00F000F000000000004E
:10549000000000000000000000000000000000000C
:1054A0000000000003F003F00F000F003C003C0080
:1054B0003C003C003FF03FF03C003C003C003C0026
:1054C0003C003C000F000F0003F003F00000000060
:1054D00000000000000000000000000000000000CC
:1054E00000000000000000003FF03FF0F03CF03C06
:1054F000F03CF03CF03CF03CF03CF03CF03CF03C4C
:10550000F03CF03CF03CF03CF03CF03C0000000093
:10551000000000000000000000000000000000008B
:10552000000000000000000000000000FFFCFFFC85
:105530000000000000000000FFFCFFFC0000000075
:1055400000000000FFFCFFFC000000000000000065
:10555000000000000000000000000000000000004B
:10556000000000000000000000000000078007802D
:10557000078007807FF87FF87FF807800780078023
:10558000078000000000FFFCFFFCFFFC00000000A3
:10559000000000000000000000000000000000000B
:1055A0000000000000003E001F000F8007C003E065
:1055B00001F000F800F801F003E007C00F801F00C1
:1055C0003E00000000007FF87FF87FF80000000038
:1055D00000000000000000000000000000000000CB
:1055E00000000000000001F003E007C00F801F0072
:1055F0003E007C007C003E001F000F8007C003E0DF
:1056000001F0000000007FF87FF87FF80000000044
:10561000000000000000000000000000000000008A
:105620000000000000FC01FE03CF03CF03CF03CF37
:1056300003C003C003C003C003C003C003C003C052
:1056400003C003C003C003C003C003C003C003C042
:1056500003C003C003C003C003C003C003C003C032
:1056600003C003C003C003C003C003C003C003C022
:1056700003C003C003C003C003C003C0F3C0F3C032
:10568000F3C0F3C0F3C0F3C07F803F000000000010
:10569000000000000000000000000000000000000A
:1056A00000000000000000000000000007800780EC
:1056B0000780078000000000FFFCFFFCFFFC0000EB
:1056C00000000780078007800780000000000000BE
:1056D00000000000000000000000000000000000CA
:1056E00000000000000000000000000000000000BA
:1056F0003F3C3F3CF3F0F3F0000000003F3C3F3CF8
:10570000F3F0F3F0000000000000000000000000D3
:105710000000000000000000000000000000000089
:105720000FC01FE03CF03CF03CF03CF01FE00FC02D
:105730000000000000000000000000000000000069
:105740000000000000000000000000000000000059
:105750000000000000000000000000000000000049
:105760000000000000000000000000000000000039
:10577000000000000000000003C003C003C003C01D
:105780000000000000000000000000000000000019
:105790000000000000000000000000000000000009
:1057A00000000000000000000000000000000000F9
:1057B00000000000000000000000000003C003C063
:1057C00000000000000000000000000000000000D9
:1057D00000000000000000000000000000000000C9
:1057E00000FF00FF00F000F000F000F000F000F01B
:1057F00000F000F000F000F0FCF0FCF03CF03CF0B9
:105800003CF03CF00FF00FF003F003F0000000005C
:105810000000000000000000000000000000000088
:10582000F3C0F7E03EF03CF03CF03CF03CF03CF0E4
:105830003CF03CF03CF03CF00000000000000000B8
:105840000000000000000000000000000000000058
:105850000000000000000000000000000000000048
:105860003F003F00F3C0F3C00F000F003C003C00BE
:10587000F0C0F0C0FFC0FFC000000000000000004A
:105880000000000000000000000000000000000018
:105890000000000000000000000000000000000008
:1058A0000000000000000000000000003FF03FF09A
:1058B0003FF03FF03FF03FF03FF03FF03FF03FF070
:1058C0003FF03FF03FF03FF000000000000000001C
:1058D00000000000000000000000000000000000C8
:1058E00000000000000000000000000000000000B8
:1058F00000000000000000000000000000000000A8
:105900000000000000000000000000000000000097
:1059100000000000000000000000000000003C66E5
:105920006666663C0000003C66FFFFFFFF663C00C9
:105930003C66FFFFFFFFFFFF663C66ACACAC6666F3
:10594000ACACAC66663333663C3C663333666600AB
:1059500000660000660000666600006600006600E3
:10596000006666000066000066000066660000666D
:1059700000006600006666000066000066000066C3
:10598000663737663C3C6637376666B7B7B76666D4
:10599000B7B7B7663C66FFFFFFFFFFFF663C003C02
:1059A00066FFFFFFFF663C0000003C666666663CE3
:1059B00000000000000000000000000000000000E7
:1059C00000000000000000000000000000000000D7
:1059D00000000000000000000000000000000000C7
:1059E00000000000001F1F000000001F1F0000A497
:1059F000A400000000A4A40000FFFF00000000FFBE
:105A0000FF0000FFFF00000000FFFF0000FFFF009D
:105A1000000000FFFF0000FFFF00000000FFFF008C
:105A200000FFFFFF0000FFFFFF000000EDEDEDEDC8
:105A3000EDED00000000006F6F6F6F0000000000D0
:105A40000000000000000000000000000000000056
:105A50000000000000787878780000000000F8F876
:105A6000F8F8F8F8000000FFFFFF0000FFFFFF005C
:105A700000FFFF00000000FFFF0000FFFF0000002C
:105A800000FFFF0000FFFF00000000FFFF0000F725
:105A9000F700000000F7F700008F8F000000008F74
:105AA0008F00001B1B000000001B1B0000000000FB
:105AB00000000000000000000000000000000000E6
:105AC00000000000000000000000000000000000D6
:105AD00000000000000000000000000000000000C6
