:020000040800F2
:10000000C04400200101000867130008171200080F
:10001000651300086D010008F316000800000000D9
:100020000000000000000000000000005B15000858
:100030006F01000800000000091400085D150008A9
:100040001B0100081B0100081B0100081B01000820
:100050001B0100081B0100081B0100081B01000810
:100060001B0100081B0100081B0100081B01000800
:100070001B0100081B0100081B0100081B010008F0
:100080001B0100081B0100081B0100081B010008E0
:100090001B0100081B0100081B0100081B010008D0
:1000A0001B010008111600081B0100081B010008B5
:1000B0001B0100081B0100081B0100081B010008B0
:1000C0001B0100081B0100081B0100081B010008A0
:1000D0001B0100081B0100081B0100081B01000890
:1000E0001B0100081B0100081B010008DFF80CD0F1
:1000F00000F02AF8004800477D170008C04400209F
:100100000648804706480047FEE7FEE7FEE7FEE7B1
:10011000FEE7FEE7FEE7FEE7FEE7FEE7C91500089B
:10012000ED000008D2B201E000F8012B491EFBD21D
:1001300070470022F6E710B513460A4604461946F2
:10014000FFF7F0FF204610BD064C074D06E0E068C3
:1001500040F0010394E8070098471034AC42F6D30E
:10016000FFF7C8FF68E2000888E20008FEE7704772
:100170002DE9F84FDFF890A100220AF1040B144694
:1001800001274FF00F090BF1040E00BF0B6807FAAF
:1001900004F52B40AB4274D1DFF870C14E68A6EB7A
:1001A0000C0866452BD00DDC032E34D005DC36B3AD
:1001B000012E19D0022E2FD11BE0112E16D0122E97
:1001C0002AD119E0B8F5881F19D006DCB8F5803FB0
:1001D00015D0B8F5801F1FD111E0B8F5001F0ED063
:1001E000B8F5041F18D10AE0CA6815E0CA68121DE4
:1001F00012E0CA6808320FE0CA680C320CE08A6864
:100200002AB1012A4FF0080203D0456104E004221C
:1002100002E0056100E00022FF2B01D8064601E064
:1002200000F104064FEA840501D9A5F12005D6F8AE
:1002300000C009FA05F82CEA080C02FA05F54CEAA8
:10024000050CC6F800C04D68ED0057D5304DAE69BD
:1002500046F00106AE61AD6924F0030605F0010524
:1002600000952C4D06EB050CDCF80850A6074FEA6C
:10027000167809FA08F6B543274EB04202D1002697
:1002800010E03BE0254EB04201D101260AE0244EA9
:10029000B04201D1022605E0224EB04201D1032630
:1002A00000E0042606FA08F62E43CCF808604D68F4
:1002B000DAF80060ED03554601D51E4300E09E4389
:1002C0002E604D68DBF80060AD035D4601D51E432E
:1002D00000E09E432E604D68DEF80060ED0275463A
:1002E00001D51E4300E09E432E604D68AD020E4DC9
:1002F0002E6801D51E4300E09E432E60641C102C26
:10030000FFF444AFBDE8F88F000401400000111075
:10031000001002400000014000080140000C0140B4
:1003200000100140001401400C0401400AB10161B9
:1003300070470904FBE7000001488068704700002F
:100340005C00002002488168027811448160704797
:100350005C000020074810B5016841F01001016001
:10036000032000F073F8002000F006F800F024F8F5
:10037000002010BD0020024070B50D4D04464FF422
:100380007A712878B1FBF0F00A490968B1FBF0F006
:1003900000F0B5FC48B9102C07D200222146501EAF
:1003A00000F034F800206C6070BD012070BD0000CA
:1003B0005C000020680000200C4808B5816941F00D
:1003C00001018161816901F001010091C16941F080
:1003D0008051C161C06900F08050009004484168BC
:1003E00021F0E06141F00071416008BD0010024061
:1003F0000000014000F01F020121914040098000EF
:1004000000F1E020C0F8001170470000F0B40E4B7E
:100410001B680C46C3F30223C3F10705042D00D962
:100420000425191D072901D2002300E0DB1E012647
:1004300006FA05F1491E214099409E40761E16405D
:100440003143F0BC00F090BF0CED00E0064900F035
:10045000070208684FF6FF03184040EA0220034AEB
:1004600010430860704700000CED00E00000FA0542
:10047000014901200862704700000E4210B529A40E
:1004800001461DCC86B08DE81D002AA02A4C0068CC
:1004900004900020012923D002293AD010291DD12F
:1004A00061682268D20119D5C1F38342C9031DF8DE
:1004B000020009D5616804AAC1F34041515C1F4A9A
:1004C000B2FBF1F1484301E01D494843616849022C
:1004D00004D440005FF00301B0FBF1F006B010BDA2
:1004E000226AC2F30121012903D1920701D5C80371
:1004F000F4E7022905D1626A920702D549F6404025
:10050000ECE70329EAD121688903E7D54FF22440BB
:10051000E4E700F043F96168C1F38131491C490007
:10052000DAE7000002030405060708090A0B0C0DB0
:100530000E0F1010010200000010024000127A009D
:1005400000093D002DE9F84305460078354CC00709
:1005500054D0E0690026C00008D4E06940F0805023
:10056000E061E069012600F0805000902E480168AB
:10057000C90512D40168804641F480710160FFF71B
:10058000DBFE074605E000BFFFF7D6FEC01B642870
:1005900023D8D8F80000C005F6D5206A10F44070C2
:1005A00021D0A98801F4407181421CD0206A1F49E2
:1005B000012220F440700A6000220A602062C00715
:1005C00011D0FFF7B9FE074641F2883808E000BFB6
:1005D000FFF7B2FEC11B414502D90320BDE8F883F5
:1005E000206A8007F4D5206A696820F440700843C7
:1005F00020621EB1E06920F08050E0612878800719
:1006000005D56068A96820F44040084360602878F8
:10061000C00605D56068E96820F480000843606082
:100620000020DBE70010024000700040400442421E
:100630002DE9F047DFF8548105460E46D8F8000052
:1006400000F00700B0420CD2D8F8001021F00701EA
:100650003143C8F80010D8F8000000F00700B0429D
:100660006FD128684A4C810712D5400703D56068CE
:1006700040F4E06060602878000703D5606840F4CB
:10068000605060606068A96820F0F0000843606016
:100690002878C00744D06868012816D0216802284D
:1006A00016D0890700294CDA616821F00301014363
:1006B0006160FFF741FE6968074641F28830012911
:1006C0000ED00229814618D026E021688903E9E787
:1006D0008901E7E7FFF730FEC11B494501D918E062
:1006E00081466068C0F381000128F3D118E000BFA3
:1006F000FFF722FEC11B49450BD86068C0F381009B
:100700000228F5D10CE000BFFFF716FEC11B4945DA
:1007100002D90320BDE8F087606810F00C0FF3D118
:10072000D8F80010404601F00701B1420BD901682A
:1007300021F0070131430160006800F00700B0427A
:1007400001D00120E6E72878400705D56068E96810
:1007500020F4E060084360602878000706D56068F0
:10076000296920F4605040EAC100606000F026F87A
:100770006168084AC1F30311515CC840064908602A
:100780000020FFF7F9FD0020C4E700000020024030
:100790000010024050E200086800002004480549AB
:1007A00000684968044AC1F3C221515CC8407047DF
:1007B000680000200010024060E2000812A185B02D
:1007C0000FC98DE80F0014A0144A00680490516806
:1007D000134801F00C03042B10D0082B0ED1C1F3E9
:1007E0008343C9031DF803000AD5516804AAC1F365
:1007F0004041515C0A4A5043B0FBF1F005B07047EC
:1008000008494843FAE700000203040506070809FF
:100810000A0B0C0D0E0F1010010200000010024018
:1008200000127A0000093D002DE9F84F04460078D7
:10083000B94DC00748D06868C0F38100012807D0CF
:100840006868C0F38100022809D16868C00306D532
:100850002868800338D5606800286FD034E060686D
:10086000B0F5803F0BD010B1B0F5A02F11D02868A3
:1008700020F480302860286820F4802002E0286876
:1008800040F480302860606888B1FFF755FD064667
:1008900009E0286840F480202860F0E7FFF74CFD6D
:1008A000801B642875D828688003F7D50CE0FFF713
:1008B00043FD064605E000BFFFF73EFD801B6428B0
:1008C000F0D828688003F7D42078944E80074FF042
:1008D00001094FF000083BD5686810F00C0F07D0F5
:1008E0006868C0F38100022809D16868C00306D493
:1008F0002868800714D5206901281FD110E02069DD
:10090000B0B1C6F80090FFF717FD074605E000BF3D
:10091000FFF712FDC01B0228C4D828688007F7D54E
:100920002868616920F0F80040EAC10028600FE003
:10093000C6F80080FFF700FD074606E0E9E000BFCB
:10094000FFF7FAFCC01B022823D828688007F7D4D9
:10095000207800072CD57248A169D9B1C0F8009061
:10096000FFF7EAFC074604E0FFF7E6FCC01B02289D
:100970000FD8686A8007F7D56A484FF4FA510068C3
:10098000B0FBF1F0009000BF0098411E0091FAD238
:100990000EE080E0C0F80080FFF7CEFC074604E0E0
:1009A000FFF7CAFCC01B022875D8686A8007F7D415
:1009B0002078400760D5E8690027C00008D4E869BE
:1009C00040F08050E861E869012700F08050009015
:1009D00055480168C90513D40168834641F4807104
:1009E0000160FFF7A9FC824606E000BFFFF7A4FC08
:1009F000A0EB0A0064284ED8DBF80000C005F5D54E
:100A0000E06801280AD008B1052813D0286A20F030
:100A100001002862286A20F0040002E0286A40F001
:100A200001002862E06841F2883B98B1FFF784FC3E
:100A300082460BE0286A40F004002862EEE700BF1F
:100A4000FFF77AFCA0EB0A0159455AD8286A8007BB
:100A5000F6D50CE0FFF770FC824605E0FFF76CFC72
:100A6000A0EB0A0159454CD8286A8007F6D41FB17B
:100A7000E86920F08050E861E06988B36968C1F3F3
:100A80008101022945D00228C6F8608004D0FFF712
:100A900053FC044638E034E0FFF74EFC074604E020
:100AA000FFF74AFCC01B02282BD828688001F7D426
:100AB000206AB0F5803F05D16868A16820F4003055
:100AC00008436860D4E908010843696821F4741197
:100AD00008436860C6F86090FFF72EFC044606E005
:100AE00015E000BFFFF728FC001B022809D8286882
:100AF0008001F7D50BE000BFFFF71EFC001B0228AA
:100B000002D90320BDE8F88F28688001F4D40020C2
:100B1000F8E70120F6E70000001002400000424222
:100B200080044242680000200070004070B504005C
:100B300003D0607C002610B105E0012070BD267452
:100B4000204600F043F802206074204600F0BAF816
:100B5000042578BB204600F061FC58BB2068416842
:100B600021F007014160A06820B11748016821F019
:100B7000010101601448001F0168A26821F460713E
:100B8000114301606068411C04D10120FFF776FC2D
:100B900080B1401E21688A6822F00F0242EA1042AA
:100BA0008A602168CA6860F30F02CA60204600F0BC
:100BB0004FFC08B16574C0E7E67301206073A07351
:100BC0006074002070BD0000306C004008B5006803
:100BD000084988420DD1FFF74BFC0748C16941F035
:100BE0000061C161C069054900F00060009001200A
:100BF000086008BD00280040001002403C0442424A
:100C00002DE9F0410D4604003BD0C5B3207C0128FE
:100C10003AD04FF0010884F8108002206074E87820
:100C200072B300F0F2FBE073687800F0EEFB6073E3
:100C3000A87800F0EAFBA073C2B2617BE07B00F011
:100C400039FC20732870204600F024FC4FF46161C9
:100C5000B0FBF1F1002518292DD91822B1FBF2F1D2
:100C6000A1EB011101EB4101C1EB011100EBC11638
:100C70003146204600F05DFC0427C8B90BE000E0D7
:100C800004E00120BDE8F0810220FBE7E073687812
:100C90006073A878CFE7204600F0F5FB411C0AD02E
:100CA000B04208D206490144204600F02EFC10B1A3
:100CB00067742574E5E784F8118025740020E1E766
:100CC0008051010070B504000AD02068416821F00D
:100CD00008014160FFF730FB05464FF47A7608E0E3
:100CE000012070BDFFF728FB401BB04201D9032053
:100CF00070BD206840680007F4D5002070BD10B5B5
:100D0000401EB0F1807F01D3012010BD4FF0E024E0
:100D100060610F21601700F027FB0020A061072011
:100D20002061002010BD7047704730B590F83C201E
:100D3000012A20D0012280F83C20022380F83D3097
:100D400003685C6824F070045C6003685C680D688C
:100D50002C435C6003689C6824F080049C600368FA
:100D60009C6849680C439C6080F83D20002180F815
:100D70003C10084630BD022030BD10B5040003D041
:100D800094F83D0010B107E0012010BD002084F868
:100D90003C00204600F00CF8022084F83D00211DA4
:100DA000206800F03BFC012084F83D00002010BDCD
:100DB00008B500680B49884212D10B48816941F49B
:100DC000006181618069002200F40060009011469A
:100DD0001920FFF71BFBBDE808401920FFF70ABBED
:100DE00008BD0000002C0140001002400168CA68E4
:100DF00042F00102CA600068016841F0010101602F
:100E00000020704770B5044690F83C00012817D0C8
:100E1000012584F83C50022084F83D002068826857
:100E200022F0770222F47F4282600868502837D08F
:100E30000DDC202859D005DC88B3102841D151E0C1
:100E4000022070BD302853D040283AD13FE06028BE
:100E50002ED070280BD0B0F5805F03D0B0F5005FC6
:100E60002FD110E02068816821F0070115E0CB68E0
:100E7000D1E90121206800F007FC2168886840F072
:100E8000770088601DE0CB68D1E90121206800F07F
:100E9000FBFB2068816841F48041816011E01EE025
:100EA000CA684968206800F001FC5021206806E00B
:100EB000CA684968206800F00AFC6021206800F0D8
:100EC000EDFB84F83D50002084F83C0070BDCA68FA
:100ED0004968206800F0EAFB40212068EFE7002124
:100EE0002068ECE710212068E9E720212068E6E788
:100EF00030212068E3E7704770B504460068016957
:100F00004FF00005C943890715D4C168C943890753
:100F100011D4E91E016101202077206880698007D3
:100F2000204602D0FFF7E7FF04E000F098F82046E3
:100F300000F096F8257720680169C943490717D45E
:100F4000C168C943490713D46FF00401016102204D
:100F500020772068806910F4407F204602D0FFF798
:100F6000CAFF04E000F07BF8204600F079F825770E
:100F700020680169C943090716D4C168C943090734
:100F800012D46FF008010161042020772068C06945
:100F90008007204602D0FFF7AEFF04E000F05FF8C4
:100FA000204600F05DF8257720680169C943C9062D
:100FB00017D4C168C943C90613D46FF01001016189
:100FC000082020772068C06910F4407F204602D0B6
:100FD000FFF791FF04E000F042F8204600F040F8EF
:100FE000257720680169C943C90708D1C168C94389
:100FF000C90704D1891E0161204600F033F820683A
:101000000169C943090609D4C168C943090605D461
:101010006FF0800101612046FFF785FE20680169BD
:10102000C943490609D4C168C943490605D46FF0CC
:1010300040010161204600F0EDF820680169C943D4
:1010400089060BD4C168C943890607D46FF0200113
:1010500001612046BDE87040FFF766BE70BD704775
:10106000704700002DE9F0470068644988427DD14F
:10107000DFF88CA163480022BAF80670BAF80C10A9
:10108000BAF80840914602605F4B03EB072C03E07F
:10109000C0F80090802A33DA3CF812600E4203D088
:1010A000056845F4007505600CEB420505F58055B3
:1010B0002D880D4205D0D0F8008048F48068C0F833
:1010C0000080264205D0D0F8008048F08008C0F8A3
:1010D0000080254205D0D0F8008048F48078C0F820
:1010E000008016EAC12F03D0066846F0200606608D
:1010F00015EAC12F3ED0056845F04005056039E08E
:10110000C7F13F0503EB0525C2F17F0635F8165000
:101110000D4205D0D0F8008048F40078C0F8008077
:10112000C7F12F0803EB082838F816600E4205D0E7
:10113000D0F8008048F48068C0F80080254205D0CF
:10114000D0F8008048F08008C0F80080264205D022
:10115000D0F8008048F48078C0F8008015EAC12FEC
:1011600003D0056845F02005056000E044E016EA7C
:10117000C12FC0D1056845F008050560521CFF2A43
:1011800086DD2248BAF80A10544630F811001B498F
:101190002C3108601B4D01220C3D10212846FFF721
:1011A000C5F81B49E0880860002210212846FFF797
:1011B000BDF8E088401C80B2E08010281CD1A4F863
:1011C000069061894FF6FF73491C8AB26281A1893A
:1011D000484603EA4101A181258903EA45032381A9
:1011E000B3F5806F01D920232381102901D9012172
:1011F000A181082A00D16081BDE8F087002C014060
:10120000000000200C0C0140C000002040E200085B
:101210000C0801407047FEE730B53F29039C11D808
:101220007F280FD803F01C0502F0F80242EA53129F
:10123000054BED0045EAD40403EB012144EA022208
:1012400021F8102030BD0000C00000203F2906D842
:101250007F2804D8024B03EB012121F810207047AE
:10126000C00000202DE9F04385B0002425480094FB
:10127000019402940394816941F0100181618169B4
:1012800001F010010491816941F0200181618169BF
:1012900001F020010491816941F0040181618169BB
:1012A00001F004010491816941F0080181618069C4
:1012B000DFF8548000F00800049000220F2140461F
:1012C000FFF734F8DFF844904FF4FF670022394607
:1012D0004846FFF72BF80F2001250326CDE900052E
:1012E000CDE9024669464046FEF742FF0097039665
:1012F000CDE9015469464846FEF73AFF05B0BDE81E
:10130000F08300000010024000080140000C014082
:1013100010B586B0002412480094019402940394FE
:1013200004940E490594C0E900141021816028211D
:10133000C0E9031444618461FFF71FFD4FF480503E
:10134000009069460648FFF75DFD049404A904482F
:101350000594FFF7EAFC06B010BD0000002C014028
:1013600080000020FEE770470907090E002806DA12
:1013700000F00F0000F1E02080F8141D704700F12C
:10138000E02080F800147047014AD1811082704734
:1013900000000020F8B51A4D07460026288A304480
:1013A0007F2828DC0024E88920447F2820DC297855
:1013B00040F265425143134AC0B202EB8101C7EBD0
:1013C0004712C2EB072201EB420106EB860201EB5A
:1013D00042010A1992F82C31009392F896300A5D76
:1013E000297C3144C9B2FFF717FF641C0A2CDADBF1
:1013F000761C0F2ED2DBE8890B30E881F8BD0000A7
:1014000000000020F08B00087047010901EB81010A
:1014100000F00F0000EB4100C0B2704770B5044609
:10142000FEF78AFF05464FF47A7606E0FEF784FF62
:10143000401BB04201D9032070BD2068406880067F
:10144000F4D52068416841F010014160002070BD72
:1014500070B504460068416821F010014160FEF754
:101460006BFF05464FF47A7607E000BFFEF764FF96
:10147000401BB04201D9032070BD2068406880063F
:10148000F4D5002070BD0168086A496A89B241EA52
:1014900000407047006881698AB2C1698BB2816976
:1014A00089B28A4203D0C06961F31F40704743EAA2
:1014B00002407047F0B56424C1EBC1030927A500C1
:1014C000072603EB01130329B3FBF7F100F5FA60DC
:1014D000114401440AD2401EB0FBF4F201EB90012A
:1014E000B0FBF5F0891A0844001D08E0B0FBF4F2E7
:1014F00001EB9001B0FBF5F0891A0844801CB0FBA9
:10150000F6F106FB1100C0B2F0BD70B50D460646FF
:101510000024FFF783FF48B93168280C086231685E
:10152000A8B248623046FFF793FF00B1012420467D
:1015300070BD70B50D4606460024FFF76FFF48B931
:101540003168280C88613168A8B2C8613046FFF75D
:101550007FFF00B10124204670BD7047FEF7F2BE48
:1015600070B594B028216846FEF7E3FD14210AA85F
:10157000FEF7DFFD00240F940520009001A91094D0
:10158000119412944FF48030012581E83100022635
:101590000495CDE907604FF4E01009906846FFF725
:1015A00043F90F20CDE90A06A802CDE90C4002213B
:1015B0000AA80E94FFF73CF82802CDE90F500FA8B7
:1015C000FEF7C0FF14B070BD0D48016841F0010185
:1015D000016041680B4A1140416001680A4A1140AC
:1015E0000160016821F480210160416821F4FE015D
:1015F00041604FF41F0181600449C00308607047D7
:10160000001002400000FFF8FFFFF6FE08ED00E0CA
:101610000148FFF771BC000080000020F0B50268AF
:10162000164B174C174D4FF08047984205D0B842E3
:1016300003D0A04201D0A84203D122F070064A682C
:101640003243984205D0B84203D0A04201D0A8420C
:1016500003D122F44074CA68224322F080044A690C
:10166000224302608A68C2620A688262984201D19B
:101670000969016301214161F0BD0000002C0140B6
:10168000000400400008004010B5846842EA0322CC
:1016900024F47F440A432243826010BD826822F012
:1016A00070020A4342F007018160704710B5036A77
:1016B000046A24F001040462846924F0F00444EA1A
:1016C000021423F00A020A438461026210BD10B5BD
:1016D000036A23F0100303628369046A23F47043EE
:1016E00043EA023224F0A00343EA0111826101625D
:1016F00010BDFEE702E008C8121F08C1002AFAD197
:1017000070477047002001E001C1121F002AFBD181
:10171000704700002DE9FF4F002682469846174685
:101720003546DDF834B013E00198002405EB0009DC
:101730000BE000BF04EB0A003BF8162009F0FF01A4
:10174000C0B2FFF783FD641C761CBC42F2DB6D1C4B
:101750004545E9DBBDE8FF8F30B51446FFF714FEC1
:101760000A25B4FBF5F0FFF715FEB4FBF5F005FB19
:101770001040BDE83040FFF70DBE000008B5FEF791
:10178000E9FDFFF7EDFEFFF76DFDFFF7C1FD1B481B
:10179000194901604FF0FF3141604FF48071816061
:1017A000FFF7C4F907208DF802000C208DF8010026
:1017B00013208DF80300002269461048FFF720FA35
:1017C0000E481430FFF712FB0D4D00242023402259
:1017D000002120460095FFF79DFF09222146202089
:1017E000FFF7BAFF641CE4B2802C00D9002400216A
:1017F000204600F007F8E9E7002800406C000020D0
:1018000040D2000870B500231D46084E0AE00022B1
:1018100006EB032403E000BF24F81250521C8A4256
:10182000FADB5B1C8342F2DB70BD0000C0000020CD
:101830000000000000000000183C3C1818001800D0
:10184000363600000000000036367F367F36360020
:101850000C3E031E301F0C00006333180C6663003F
:101860001C361C6E3B336E000606030000000000B1
:10187000180C0606060C1800060C1818180C0600A2
:1018800000663CFF3C660000000C0C3F0C0C0000A6
:1018900000000000000C0C060000003F00000000EB
:1018A00000000000000C0C006030180C0603010062
:1018B0003E63737B6F673E000C0E0C0C0C0C3F00FC
:1018C0001E33301C06333F001E33301C30331E00E5
:1018D000383C36337F3078003F031F3030331E00F2
:1018E0001C06031F33331E003F3330180C0C0C0052
:1018F0001E33331E33331E001E33333E30180E00AA
:10190000000C0C00000C0C00000C0C00000C0C0671
:10191000180C0603060C180000003F00003F0000F2
:10192000060C1830180C06001E3330180C000C0082
:101930003E637B7B7B031E000C1E33333F3333003F
:101940003F66663E66663F003C66030303663C00F6
:101950001F36666666361F007F46161E16467F00D7
:101960007F46161E16060F003C66030373667C0056
:101970003333333F333333001E0C0C0C0C0C1E007E
:101980007830303033331E006766361E36666700A7
:101990000F06060646667F0063777F7F6B636300F2
:1019A00063676F7B736363001C36636363361C007D
:1019B0003F66663E06060F001E3333333B1E38007B
:1019C0003F66663E366667001E33070E38331E00DC
:1019D0003F2D0C0C0C0C1E003333333333333F00DC
:1019E00033333333331E0C006363636B7F776300E1
:1019F0006363361C1C3663003333331E0C0C1E002D
:101A00007F6331184C667F001E06060606061E0020
:101A100003060C18306040001E18181818181E0015
:101A2000081C36630000000000000000000000FFFA
:101A30000C0C18000000000000001E303E336E0049
:101A40000706063E66663B0000001E3303331E0099
:101A50003830303E33336E0000001E333F031E002B
:101A60001C36060F06060F0000006E33333E301F93
:101A70000706366E666667000C000E0C0C0C1E0026
:101A8000300030303033331E070666361E366700AE
:101A90000E0C0C0C0C0C1E000000337F7F6B6300DF
:101AA00000001F333333330000001E3333331E0076
:101AB00000003B66663E060F00006E33333E307812
:101AC00000003B6E66060F0000003E031E301F0044
:101AD000080C3E0C0C2C18000000333333336E001E
:101AE00000003333331E0C000000636B7F7F360031
:101AF000000063361C36630000003333333E301F72
:101B000000003F190C263F00380C0C070C0C380065
:101B10001818180018181800070C0C380C0C0700BF
:101B20006E3B00000000000000000000000000000C
:101B300000000000000000000000000000000000A5
:101B40000000000000000000000000000000000095
:101B50000000000000000000000000000000000085
:101B60000000000000000000000000000000000075
:101B70000000000000000000000000000000000065
:101B80000000000000000000000000000000000055
:101B90000000000000000000000000000000000045
:101BA0000000000000000000000000000000000035
:101BB0000000000000000000000000000000000025
:101BC0000000000000000000000000000000000015
:101BD0000000000000000000000000000000000005
:101BE00000000000000000000000000000000000F5
:101BF00000000000000000000000000000000000E5
:101C000000000000000000000000000000000000D4
:101C100000000000000000000000000000000000C4
:101C200000000000000000000000000000000000B4
:101C30000000000000000000000000003FF03FF046
:101C4000F03CF03CF03CF03CF3FCF3FCF3FCF3FC28
:101C5000F3FCF3FCF3F0F3F0F000F0003FF03FF0A2
:101C60000000000000000000000000000000000074
:101C700000000000000000001FF83FFC700EE007AD
:101C8000CC33CC33C003C003C003C003CC33CE730A
:101C9000C7E3C3C3C003C003E007700E3FFC1FF8D7
:101CA0000000000000000000000000000000000034
:101CB00000000000000000001FF83FFC7FFEFFFF57
:101CC000F3CFF3CFFFFFFFFFFFFFFFFFF3CFF18F56
:101CD000F81FFC3FFFFFFFFFFFFF7FFE3FFC1FF8E9
:101CE00000000000000000000000000000000000F4
:101CF00000000000000000000000000000000000E4
:101D000038707CF8FFFCFFFCFFFCFFFCFFFCFFFCD5
:101D10007FF87FF83FF01FE00FC00780030000004E
:101D200000000000000000000000000000000000B3
:101D300000000000000000000000000000000000A3
:101D4000030007800FC01FE03FF07FF8FFFCFFFC9F
:101D50007FF83FF01FE00FC0078003000000000085
:101D60000000000000000000000000000000000073
:101D700000000000000000000000000003C003C0DD
:101D80000FF00FF00FF00FF0FC3FFC3FFC3FFC3F6B
:101D9000FC3FFC3F03C003C003C003C00FF00FF0C3
:101DA0000000000000000000000000000000000033
:101DB000000000000000000000000000018003C0DF
:101DC00007E00FF01FF83FFC7FFEFFFFFFFFFFFF64
:101DD000FFFF7FFE3BDC03C003C003C00FF00FF02A
:101DE00000000000000000000000000000000000F3
:101DF00000000000000000000000000000000000E3
:101E0000000000000000000003C007E00FF00FF02A
:101E10000FF00FF007E003C000000000000000001A
:101E200000000000000000000000000000000000B2
:101E3000FFFFFFFFFFFFFFFFFFFFFFFFFFFFFFFFB2
:101E4000FFFFFFFFFFFFFFFFFC3FF81FF00FF00F4A
:101E5000F00FF00FF81FFC3FFFFFFFFFFFFFFFFF3A
:101E6000FFFFFFFFFFFFFFFFFFFFFFFFFFFFFFFF82
:101E70000000000000000000000000000000000062
:101E8000000000000FF01FF83C3C381C300C300CF8
:101E9000300C300C381C3C3C1FF80FF000000000E8
:101EA0000000000000000000000000000000000032
:101EB000FFFFFFFFFFFFFFFFFFFFFFFFFFFFFFFF32
:101EC000FFFFFFFFF81FF00FE3C7C7E3CFF3CFF328
:101ED000CFF3CFF3C7E3E3C7F00FF81FFFFFFFFF18
:101EE000FFFFFFFFFFFFFFFFFFFFFFFFFFFFFFFF02
:101EF000000000000000000003FC03FC007C00FC6C
:101F000001FC03EC07CC0F8C3FC07FE0F9F0F0F050
:101F1000F0F0F0F0F0F0F0F0F0F0F9F07FE03FC01A
:101F200000000000000000000000000000000000B1
:101F300000000000000000000FF01FF83E7C3C3C59
:101F40003C3C3C3C3C3C3C3C3C3C3E7C1FF80FF069
:101F500003C003C03FFC3FFC03C003C003C003C079
:101F60000000000000000000000000000000000071
:101F700000000000000000000FFF0FFF0F0F0F0F09
:101F80000FFF0FFF0F000F000F000F000F000F00DB
:101F90000F000F003F003F00FF00FF00FC00FC00AF
:101FA0000000000000000000000000000000000031
:101FB00000000000000000003FFF3FFF3C0F3C0F0F
:101FC0003FFF3FFF3C0F3C0F3C0F3C0F3C0F3C0FD3
:101FD0003C0F3C0F3C3F3C3FFC3FFC3FFC3CFC3C8F
:101FE000F000F00000000000000000000000000011
:101FF00000000000000000000000000003C003C05B
:1020000003C003C0F3CFFBDF1FF80FF0FC3FFC3F22
:102010000FF01FF8FBDFF3CF03C003C003C003C002
:1020200000000000000000000000000000000000B0
:10203000000000008000C000E000F000F800FC009C
:10204000FE00FF00FF80FFC0FFFCFFFCFFC0FF8021
:10205000FF00FE00FC00F800F000E000C00080007F
:102060000000000000000000000000000000000070
:10207000000000000004000C001C003C007C00FC80
:1020800001FC03FC07FC0FFCFFFCFFFC0FFC07FC42
:1020900003FC01FC00FC007C003C001C000C000464
:1020A0000000000000000000000000000000000030
:1020B0000000000000000000018003C007E00FF0F6
:1020C0001FF83FFC03C003C003C003C003C003C02C
:1020D0003FFC1FF80FF007E003C001800000000084
:1020E00000000000000000000000000000000000F0
:1020F00000000000000000003C3C3C3C3C3C3C3C00
:102100003C3C3C3C3C3C3C3C3C3C3C3C3C3C3C3C0F
:102110003C3C3C3C000000003C3C3C3C3C3C3C3CEF
:1021200000000000000000000000000000000000AF
:1021300000000000000000003FFF7FFFFBCFF3CF57
:10214000F3CFF3CFF3CFFBCF7FCF3FCF03CF03CF7F
:1021500003CF03CF03CF03CF03CF03CF03CF03CFEF
:10216000000000000000000000000000000000006F
:10217000000000003FF03FF0F03CF03C3C003C0031
:102180000FC00FC03CF03CF0F03CF03CF03CF03CA9
:102190003CF03CF00FC00FC000F000F0F03CF03C11
:1021A0003FF03FF0000000000000000000000000D1
:1021B000000000000000000000000000000000001F
:1021C000000000000000000000000000000000000F
:1021D000FFFCFFFCFFFCFFFCFFFCFFFCFFFCFFFC27
:1021E00000000000000000000000000000000000EF
:1021F0000000000000000000018003C007E00FF0B5
:102200001FF83FFC03C003C003C003C003C003C0EA
:102210003FFC1FF80FF007E003C001803FFC3FFCCC
:1022200000000000000000000000000000000000AE
:102230000000000000000000018003C007E00FF074
:102240001FF83FFC03C003C003C003C003C003C0AA
:1022500003C003C003C003C003C003C003C003C066
:10226000000000000000000000000000000000006E
:10227000000000000000000003C003C003C003C052
:1022800003C003C003C003C003C003C003C003C036
:1022900003C003C03FFC1FF80FF007E003C001803C
:1022A000000000000000000000000000000000002E
:1022B000000000000000000000000000000000001E
:1022C0000000000001C000E000700038FFFCFFFCCF
:1022D0000038007000E001C00000000000000000B5
:1022E00000000000000000000000000000000000EE
:1022F00000000000000000000000000000000000DE
:10230000000000000E001C0038007000FFFCFFFC05
:10231000700038001C000E000000000000000000EB
:1023200000000000000000000000000000000000AD
:10233000000000000000000000000000000000009D
:102340000000000000000000F000F000F000F000CD
:10235000F000F000FFFCFFFC0000000000000000A7
:10236000000000000000000000000000000000006D
:10237000000000000000000000000000000000005D
:10238000000000000840186038707878FFFCFFFCFF
:1023900078783870186008400000000000000000E5
:1023A000000000000000000000000000000000002D
:1023B000000000000000000000000000000000001D
:1023C00003000300078007800FC00FC01FE01FE05D
:1023D0003FF03FF07FF87FF8FFFCFFFC00000000BB
:1023E00000000000000000000000000000000000ED
:1023F00000000000000000000000000000000000DD
:10240000FFFCFFFC7FF87FF83FF03FF01FE01FE08C
:102410000FC00FC00780078003000300000000000A
:1024200000000000000000000000000000000000AC
:10243000000000000000000000000000000000009C
:10244000000000000000000000000000000000008C
:10245000000000000000000000000000000000007C
:10246000000000000000000000000000000000006C
:10247000000000000000000003C007E00FF00FF0B4
:102480000FF00FF00FF00FF007E007E007E003C0D8
:1024900003C003C00000000003C003C003C003C0AA
:1024A000000000000000000000000000000000002C
:1024B000000000003C3C3C3C3C3C3C3C3C3C1C3870
:1024C0000C300000000000000000000000000000D0
:1024D00000000000000000000000000000000000FC
:1024E00000000000000000000000000000000000EC
:1024F0000000000000000000000000003CF03CF084
:102500003CF03CF0FFFCFFFC3CF03CF03CF03CF0CD
:102510003CF03CF0FFFCFFFC3CF03CF03CF03CF0BD
:1025200000000000000000000000000000000000AB
:1025300007800780078007803FF07FF8F87CF03C39
:10254000F01CF000F000F8007FF03FF8007C003C49
:10255000003C003C003CE03CF03CF87C7FF83FF065
:10256000078007800780078000000000000000004F
:102570000000000000000000000000007878FC78F7
:10258000CCF0CCF0FDE079E003C003C00780078009
:102590000F000F001E781EFC3CCC3CCC78FC7878F9
:1025A000000000000000000000000000000000002B
:1025B00000000000000000000FC01FE03CF03CF0F5
:1025C0003CF03CF01DE01FC03F1C7FBCFBF8F1F06D
:1025D000F0F0F0E0F0E0F0E0F0F0F9F07FF83F3CF0
:1025E00000000000000000000000000000000000EB
:1025F000000000000F000F000F001F003E003C0015
:1026000000000000000000000000000000000000CA
:1026100000000000000000000000000000000000BA
:1026200000000000000000000000000000000000AA
:102630000000000000000000007000F001E003C096
:10264000078007800F000F000F000F000F000F0022
:102650000F000F000780078003C001E000F000704A
:10266000000000000000000000000000000000006A
:1026700000000000000000000E000F00078003C0F3
:1026800001E001E000F000F000F000F000F000F0E8
:1026900000F000F001E001E003C007800F000E0031
:1026A000000000000000000000000000000000002A
:1026B000000000000000000000000000000000001A
:1026C0000000000038703CF01FE00FC07FF8FFFCF6
:1026D0007FF80FC01FE03CF03870000000000000E1
:1026E00000000000000000000000000000000000EA
:1026F00000000000000000000000000000000000DA
:102700000000000007800780078007807FF87FF8BF
:102710007FF8078007800780078000000000000026
:1027200000000000000000000000000000000000A9
:102730000000000000000000000000000000000099
:102740000000000000000000000000000000000089
:10275000000000000000000003C003C003C007C069
:102760000F800F00000000000000000000000000CB
:102770000000000000000000000000000000000059
:10278000000000000000000000000000FFFCFFFC53
:10279000FFFC00000000000000000000000000003E
:1027A0000000000000000000000000000000000029
:1027B0000000000000000000000000000000000019
:1027C0000000000000000000000000000000000009
:1027D000000000000000000003C003C003C003C0ED
:1027E00000000000000000000000000000000000E9
:1027F0000000000000000000003C003C0078007871
:1028000000F000F001E001E003C003C00780078092
:102810000F000F001E001E003C003C0078007800F6
:10282000F000F000000000000000000000000000C8
:1028300000000000000000001FE03FF07CF8F87C82
:10284000F03CF03CF03CF33CF7BCF7BCF7BCF7BC09
:10285000F33CF03CF03CF03CF87C7CF83FF01FE0AF
:102860000000000000000000000000000000000068
:10287000000000000000000003C007C00FC01FC020
:102880003FC003C003C003C003C003C003C003C0F4
:1028900003C003C003C003C003C003C03FFC3FFC30
:1028A0000000000000000000000000000000000028
:1028B00000000000000000003FF07FF8F87CF03CD2
:1028C000E03C003C007C00F801F003E007C00F8012
:1028D0001F003E007C00F800F03CF03CFFFCFFFCD9
:1028E00000000000000000000000000000000000E8
:1028F00000000000000000003FF07FF8F87CF03C92
:10290000003C003C003C00780FF00FF00078003CE9
:10291000003C003C003C003CF03CF87C7FF83FF081
:1029200000000000000000000000000000000000A7
:10293000000000000000000000F001F003F007F0CC
:102940000FF01FF03EF07CF0F8F0F0F0FFFCFFFC21
:1029500000F000F000F000F000F000F003FC03FCD9
:102960000000000000000000000000000000000067
:102970000000000000000000FFFCFFFCF000F00081
:10298000F000F000F000F000FFF0FFF8007C003CE9
:10299000003C003C003C003CF03CF87C7FF83FF001
:1029A0000000000000000000000000000000000027
:1029B00000000000000000000FF01FF03E007C004F
:1029C000F800F000F000F000FFF0FFF8F87CF03CB9
:1029D000F03CF03CF03CF03CF03CF87C7FF83FF001
:1029E00000000000000000000000000000000000E7
:1029F0000000000000000000FFFCFFFCF03CF03C89
:102A0000003C003C007C00F801F003E007C00F80B0
:102A10000F000F000F000F000F000F000F000F003E
:102A200000000000000000000000000000000000A6
:102A300000000000000000003FF07FF8F87CF03C50
:102A4000F03CF03CF03C78783FF03FF07878F03C98
:102A5000F03CF03CF03CF03CF03CF87C7FF83FF080
:102A60000000000000000000000000000000000066
:102A700000000000000000003FF07FF8F87CF03C10
:102A8000F03CF03CF03CF87C7FFC3FFC003C003C20
:102A9000003C003C003C007C00F801F03FE03FC0FF
:102AA0000000000000000000000000000000000026
:102AB0000000000000000000000000000000000016
:102AC00003C003C003C003C00000000000000000FA
:102AD0000000000003C003C003C003C000000000EA
:102AE00000000000000000000000000000000000E6
:102AF00000000000000000000000000000000000D6
:102B000003C003C003C003C00000000000000000B9
:102B1000000000000000000003C003C003C007C0A5
:102B20000F800F0000000000000000000000000007
:102B3000000000000000000000000000003C007CDD
:102B400000F801F003E007C00F801F003E003E00C8
:102B50001F000F8007C003E001F000F8007C003C7C
:102B60000000000000000000000000000000000065
:102B70000000000000000000000000000000000055
:102B8000000000000000FFFCFFFCFFFC0000000054
:102B90000000FFFCFFFCFFFC000000000000000044
:102BA0000000000000000000000000000000000025
:102BB0000000000000000000000000003C003E009B
:102BC0001F000F8007C003E001F000F8007C007CCC
:102BD00000F801F003E007C00F801F003E003C003A
:102BE00000000000000000000000000000000000E5
:102BF00000000000000000003FF07FF8F87CF03C8F
:102C0000F03CF03C003C007C00F801F003E003C025
:102C100003C003C00000000003C003C003C003C022
:102C200000000000000000000000000000000000A4
:102C30000000000000000000000000003FF07FF8EE
:102C4000F87CF03CF03CF03CF1FCF3FCF3FCF3FCD2
:102C5000F3FCF3FCF3F0F1F0F000F8007FF03FF04C
:102C60000000000000000000000000000000000064
:102C70000000000000000000030007800FC01FE0FC
:102C80003FF07CF8F87CF03CF03CF03CFFFCFFFCB3
:102C9000F03CF03CF03CF03CF03CF03CF03CF03CD4
:102CA0000000000000000000000000000000000024
:102CB0000000000000000000FFF0FFF83C7C3C3CFE
:102CC0003C3C3C3C3C3C3C783FF03FF03C783C3C5E
:102CD0003C3C3C3C3C3C3C3C3C3C3C7CFFF8FFF0FE
:102CE00000000000000000000000000000000000E4
:102CF00000000000000000001FF03FF87C7CF83C62
:102D0000F01CF000F000F000F000F000F000F00027
:102D1000F000F000F000F01CF83C7C7C3FF81FF065
:102D200000000000000000000000000000000000A3
:102D30000000000000000000FFC0FFE03CF03C7815
:102D40003C783C3C3C3C3C3C3C3C3C3C3C3C3C3C87
:102D50003C3C3C3C3C3C3C783C783CF0FFE0FFC0D9
:102D60000000000000000000000000000000000063
:102D70000000000000000000FFFCFFFC3C3C3C1C8D
:102D80003C0C3C003CC03CC03FC03FC03CC03CC0D1
:102D90003C003C003C003C0C3C1C3C3CFFFCFFFC71
:102DA0000000000000000000000000000000000023
:102DB0000000000000000000FFFCFFFC3C3C3C1C4D
:102DC0003C0C3C003CC03CC03FC03FC03CC03CC091
:102DD0003C003C003C003C003C003C00FF00FF008D
:102DE00000000000000000000000000000000000E3
:102DF00000000000000000001FF03FF87C7CF83C61
:102E0000F01CF000F000F000F000F000F1FCF1FC2C
:102E1000F03CF03CF03CF03CF83C7C7C3FFC1FEC90
:102E200000000000000000000000000000000000A2
:102E30000000000000000000F03CF03CF03CF03CE2
:102E4000F03CF03CF03CF03CFFFCFFFCF03CF03C84
:102E5000F03CF03CF03CF03CF03CF03CF03CF03C12
:102E60000000000000000000000000000000000062
:102E700000000000000000001FE01FE00780078046
:102E8000078007800780078007800780078007800A
:102E90000780078007800780078007801FE01FE00A
:102EA0000000000000000000000000000000000022
:102EB000000000000000000003FC03FC00F000F034
:102EC00000F000F000F000F000F000F000F000F082
:102ED000F0F0F0F0F0F0F0F0F0F0F9F07FE03FC04B
:102EE00000000000000000000000000000000000E2
:102EF0000000000000000000FC3CFC3C3C3C3C3C72
:102F00003C3C3C7C3CF83DF03FE03FC03FC03FE0F4
:102F10003DF03CF83C7C3C3C3C3C3C3CFC3CFC3CC0
:102F200000000000000000000000000000000000A1
:102F30000000000000000000FF00FF003C003C001B
:102F40003C003C003C003C003C003C003C003C00A1
:102F50003C003C003C003C0C3C1C3C3CFFFCFFFCAF
:102F60000000000000000000000000000000000061
:102F70000000000000000000F03CF03CF87CF87C11
:102F8000FCFCFCFCFFFCFFFCFFFCFFFCF7BCF7BCFF
:102F9000F33CF33CF03CF03CF03CF03CF03CF03CCB
:102FA0000000000000000000000000000000000021
:102FB0000000000000000000F03CF83CF83CFC3C45
:102FC000FC3CFE3CFE3CFF3CFF3CF7BCF7BCF3FC8A
:102FD000F3FCF1FCF1FCF0FCF0FCF07CF07CF03C4C
:102FE00000000000000000000000000000000000E1
:102FF00000000000000000003FF07FF8F87CF03C8B
:10300000F03CF03CF03CF03CF03CF03CF03CF03C60
:10301000F03CF03CF03CF03CF03CF87C7FF83FF0BA
:1030200000000000000000000000000000000000A0
:103030000000000000000000FFF0FFF83C7C3C3C7A
:103040003C3C3C3C3C3C3C7C3FF83FF03C003C0082
:103050003C003C003C003C003C003C00FF00FF000A
:103060000000000000000000000000000000000060
:1030700000000000000000003FF07FF8F87CF03C0A
:10308000F03CF03CF03CF03CF03CF03CF03CF03CE0
:10309000F03CF03CF33CF3BCF3FCF9FC7FF83FF070
:1030A00000E000F0007C003C000000000000000098
:1030B0000000000000000000FFF0FFF83C7C3C3CFA
:1030C0003C3C3C3C3C3C3C7C3FF83FF03FE03DF02E
:1030D0003CF83C7C3C3C3C3C3C3C3C3CFC3CFC3CB4
:1030E00000000000000000000000000000000000E0
:1030F00000000000000000003FF07FF8F87CF03C8A
:10310000F03CF03CF00078003F000FC003F0007886
:10311000003C003CF03CF03CF03CF87C7FF83FF099
:10312000000000000000000000000000000000009F
:103130000000000000000000FFFCFFFCFFFCC78C4B
:10314000C78C07800780078007800780078007807B
:103150000780078007800780078007801FE01FE047
:10316000000000000000000000000000000000005F
:103170000000000000000000F03CF03CF03CF03C9F
:10318000F03CF03CF03CF03CF03CF03CF03CF03CDF
:10319000F03CF03CF03CF03CF03CF87C7FF83FF039
:1031A000000000000000000000000000000000001F
:1031B0000000000000000000F03CF03CF03CF03C5F
:1031C000F03CF03CF03CF03CF03CF03CF03CF03C9F
:1031D000F03CF87C7CF83FF01FE00FC00780030054
:1031E00000000000000000000000000000000000DF
:1031F0000000000000000000F03CF03CF03CF03C1F
:10320000F03CF03CF03CF03CF33CF33CF33CF7BCCE
:10321000F7BCFFFCFFFCFFFC7CF87CF838703870D2
:10322000000000000000000000000000000000009E
:103230000000000000000000F03CF03C7878787856
:103240003CF03CF01FE01FE00FC00FC00FC00FC0EC
:103250001FE01FE03CF03CF078787878F03CF03CE0
:10326000000000000000000000000000000000005E
:1032700000000000000000003C3C3C3C3C3C3C3C6E
:103280003C3C3C3C3C3C3E7C1FF80FF007E003C05C
:1032900003C003C003C003C003C003C00FF00FF09E
:1032A000000000000000000000000000000000001E
:1032B0000000000000000000FFFCFFFCF03CE03CD0
:1032C000C03C007C00F801F003E007C00F801F0045
:1032D0003E007C00F800F00CF01CF03CFFFCFFFC12
:1032E00000000000000000000000000000000000DE
:1032F00000000000000000000FF00FF00F000F00B2
:103300000F000F000F000F000F000F000F000F0045
:103310000F000F000F000F000F000F000FF00FF055
:10332000000000000000000000000000000000009D
:103330000000000000000000F000F00078007800BD
:103340003C003C001E001E000F000F00078007809D
:1033500003C003C001E001E000F000F00078007855
:10336000003C003C000000000000000000000000E5
:1033700000000000000000000FF00FF000F000F06F
:1033800000F000F000F000F000F000F000F000F0BD
:1033900000F000F000F000F000F000F00FF00FF08F
:1033A000000000000000000000000000000000001D
:1033B000030007800FC01FE03CF07878F03CE01C71
:1033C00000000000000000000000000000000000FD
:1033D00000000000000000000000000000000000ED
:1033E00000000000000000000000000000000000DD
:1033F00000000000000000000000000000000000CD
:1034000000000000000000000000000000000000BC
:1034100000000000000000000000000000000000AC
:1034200000000000FFFFFFFF0000000000000000A0
:10343000000000000F000F000F000F8007C003C046
:10344000000000000000000000000000000000007C
:10345000000000000000000000000000000000006C
:10346000000000000000000000000000000000005C
:10347000000000000000000000000000000000004C
:10348000000000003FC03FE001F000F03FF07FF09F
:10349000F8F0F0F0F0F0F0F0F0F0F9F07FFC3F3CE5
:1034A000000000000000000000000000000000001C
:1034B0000000000000000000FC00FC003C003C009C
:1034C0003C003C003F803FE03FF03CF83C7C3C3C13
:1034D0003C3C3C3C3C3C3C3C3C3C3C7C3FF83FF076
:1034E00000000000000000000000000000000000DC
:1034F00000000000000000000000000000000000CC
:10350000000000003FF07FF8F87CF03CF000F00095
:10351000F000F000F000F000F03CF87C7FF83FF0A5
:10352000000000000000000000000000000000009B
:10353000000000000000000003F003F000F000F0C5
:1035400000F000F00FF01FF03CF078F0F0F0F0F039
:10355000F0F0F0F0F0F0F0F0F0F079F03FFC1F3C0C
:10356000000000000000000000000000000000005B
:10357000000000000000000000000000000000004B
:10358000000000003FF07FF8F87CF03CF03CFFFCCE
:10359000FFFCF000F000F000F03CF87C7FF83FF01A
:1035A000000000000000000000000000000000001B
:1035B00000000000000000000FC01FE03FF03CF0E2
:1035C0003C703C003C003C00FF00FF003C003C0025
:1035D0003C003C003C003C003C003C00FF00FF0085
:1035E00000000000000000000000000000000000DB
:1035F00000000000000000000000000000000000CB
:10360000000000003F3C7FFCF9F0F0F0F0F0F0F03B
:10361000F0F0F0F0F0F0F0F0F0F0F8F07FF03FF0C4
:1036200000F000F0F0F0F9F07FE03FC00000000093
:103630000000000000000000FC00FC003C003C001A
:103640003C003C003CF03FF83FFC3F3C3C3C3C3CF9
:103650003C3C3C3C3C3C3C3C3C3C3C3CFC3CFC3C2A
:10366000000000000000000000000000000000005A
:10367000000000000000000007800780078007802E
:10368000000000001F801F800780078007800780E0
:103690000780078007800780078007801FE01FE002
:1036A000000000000000000000000000000000001A
:1036B0000000000000000000003C003C003C003C1A
:1036C0000000000000FC00FC003C003C003C003C12
:1036D000003C003C003C003C003C003C003C003C0A
:1036E0003C3C3C3C3C3C3E7C1FF80FF000000000A2
:1036F0000000000000000000FC00FC003C003C005A
:103700003C003C003C3C3C7C3CF83DF03FE03FC092
:103710003FC03FE03DF03CF83C7C3C3CFC3CFC3C8A
:103720000000000000000000000000000000000099
:1037300000000000000000001F801F80078007803D
:103740000780078007800780078007800780078041
:103750000780078007800780078007801FE01FE041
:103760000000000000000000000000000000000059
:103770000000000000000000000000000000000049
:1037800000000000FCF0FFF8FFFCFFFCF33CF33C02
:10379000F33CF33CF33CF33CF33CF33CF03CF03CB7
:1037A0000000000000000000000000000000000019
:1037B0000000000000000000000000000000000009
:1037C00000000000F3F0FFF83E7C3C3C3C3C3C3CFD
:1037D0003C3C3C3C3C3C3C3C3C3C3C3C3C3C3C3C29
:1037E00000000000000000000000000000000000D9
:1037F00000000000000000000000000000000000C9
:10380000000000003FF07FF8F87CF03CF03CF03C1A
:10381000F03CF03CF03CF03CF03CF87C7FF83FF0B2
:103820000000000000000000000000000000000098
:103830000000000000000000000000000000000088
:1038400000000000F3F0FFF83E7C3C3C3C3C3C3C7C
:103850003C3C3C3C3C3C3C3C3C3C3C7C3FF83FF0F2
:103860003C003C003C003C00FF00FF00000000006A
:103870000000000000000000000000000000000048
:10388000000000003F3C7FFCF9F0F0F0F0F0F0F0B9
:10389000F0F0F0F0F0F0F0F0F0F0F8F07FF03FF042
:1038A00000F000F000F000F003FC03FC000000005A
:1038B0000000000000000000000000000000000008
:1038C00000000000F3F0FFF83F7C3E3C3C3C3C3CF9
:1038D0003C003C003C003C003C003C00FF00FF0082
:1038E00000000000000000000000000000000000D8
:1038F00000000000000000000000000000000000C8
:10390000000000003FF07FF8F07CF03C78003E00C3
:103910001F8007E001F00078F03CF83C7FF83FF0B2
:103920000000000000000000000000000000000097
:1039300000000000000000000100030007000F006D
:103940000F000F00FFF0FFF00F000F000F000F003F
:103950000F000F000F000F000F1C0FBC07F803F043
:103960000000000000000000000000000000000057
:103970000000000000000000000000000000000047
:1039800000000000F0F0F0F0F0F0F0F0F0F0F0F0F7
:10399000F0F0F0F0F0F0F0F0F0F0F9F07FFC3F3CE8
:1039A0000000000000000000000000000000000017
:1039B0000000000000000000000000000000000007
:1039C000000000003C3C3C3C3C3C3C3C3C3C3C3C27
:1039D0003C3C3C3C3E7C1FF80FF007E003C00180FC
:1039E00000000000000000000000000000000000D7
:1039F00000000000000000000000000000000000C7
:103A000000000000F03CF03CF03CF03CF33CF33CA8
:103A1000F33CF7BCF7BCFFFCFFFCFFFC7CF8387004
:103A20000000000000000000000000000000000096
:103A30000000000000000000000000000000000086
:103A400000000000F03CF87C7CF83FF01FE00FC065
:103A50000FC00FC00FC01FE03FF07CF8F87CF03CB7
:103A60000000000000000000000000000000000056
:103A70000000000000000000000000000000000046
:103A800000000000F03CF03CF03CF03CF03CF03C2E
:103A9000F03CF03CF03CF03CF03CF83C7FFC3FFC60
:103AA000003C007C00F801F0FFE0FFC000000000D7
:103AB0000000000000000000000000000000000006
:103AC00000000000FFFCFFFCF0F8F1F003E007C08D
:103AD0000F801F003E007C00F83CF03CFFFCFFFC28
:103AE00000000000000000000000000000000000D6
:103AF000000000000000000000FC01FC03E003C027
:103B000003C003C003C007803F003F00078003C01D
:103B100003C003C003C003C003C003E001FC00FCFA
:103B20000000000000000000000000000000000095
:103B3000000000000000000003C003C003C003C079
:103B400003C003C003C003C00000000003C003C0E3
:103B500003C003C003C003C003C003C003C003C04D
:103B60000000000000000000000000000000000055
:103B700000000000000000003F003F8007C003C0BD
:103B800003C003C003C001E000FC00FC01E003C06F
:103B900003C003C003C003C003C007C03F803F0091
:103BA0000000000000000000000000000000000015
:103BB00000000000000000003C1C7F3CFFFCF3F80C
:103BC000E0F0000000000000000000000000000025
:103BD00000000000000000000000000000000000E5
:103BE00000000000000000000000000000000000D5
:103BF00000000000000000000000000000000000C5
:103C0000030007800FC01FE03FF07CF8F87CF03C19
:103C1000F03CF03CF03CF03CFFFCFFFC00000000FE
:103C20000000000000000000000000000000000094
:103C300000000000000000000FF00FF03C3C3C3C96
:103C4000F00CF00CF000F000F000F000F000F000DC
:103C5000F00CF00C3C3C3C3C0FF00FF000F000F09E
:103C6000003C003C3FF03FF000000000000000007E
:103C70000000000000000000F0F0F0F00000000084
:103C800000000000F0F0F0F0F0F0F0F0F0F0F0F0F4
:103C9000F0F0F0F0F0F0F0F0F0F0F0F03F3C3F3CEE
:103CA0000000000000000000000000000000000014
:103CB0000000000000F000F003C003C00F000F0080
:103CC000000000003FF03FF0F03CF03CFFFCFFFC48
:103CD000F000F000F000F000F03CF03C3FF03FF06E
:103CE00000000000000000000000000000000000D4
:103CF00000000000030003000FC00FC03CF03CF0C8
:103D0000000000003FC03FC000F000F03FF03FF077
:103D1000F0F0F0F0F0F0F0F0F0F0F0F03F3C3F3C6D
:103D20000000000000000000000000000000000093
:103D30000000000000000000F0F0F0F000000000C3
:103D4000000000003FC03FC000F000F03FF03FF037
:103D5000F0F0F0F0F0F0F0F0F0F0F0F03F3C3F3C2D
:103D60000000000000000000000000000000000053
:103D7000000000003C003C000F000F0003C003C027
:103D8000000000003FC03FC000F000F03FF03FF0F7
:103D9000F0F0F0F0F0F0F0F0F0F0F0F03F3C3F3CED
:103DA0000000000000000000000000000000000013
:103DB000000000000FC00FC03CF03CF00FC00FC06F
:103DC000000000003FC03FC000F000F03FF03FF0B7
:103DD000F0F0F0F0F0F0F0F0F0F0F0F03F3C3F3CAD
:103DE00000000000000000000000000000000000D3
:103DF00000000000000000000000000000000000C3
:103E00000FF00FF03C3C3C3C3C003C003C003C00D4
:103E10003C3C3C3C0FF00FF000F000F0003C003C5C
:103E20000FF00FF000000000000000000000000094
:103E300000000000030003000FC00FC03CF03CF086
:103E4000000000003FF03FF0F03CF03CFFFCFFFCC6
:103E5000F000F000F000F000F03CF03C3FF03FF0EC
:103E60000000000000000000000000000000000052
:103E70000000000000000000F03CF03C00000000EA
:103E8000000000003FF03FF0F03CF03CFFFCFFFC86
:103E9000F000F000F000F000F03CF03C3FF03FF0AC
:103EA0000000000000000000000000000000000012
:103EB000000000003C003C000F000F0003C003C0E6
:103EC000000000003FF03FF0F03CF03CFFFCFFFC46
:103ED000F000F000F000F000F03CF03C3FF03FF06C
:103EE00000000000000000000000000000000000D2
:103EF00000000000000000003C3C3C3C00000000D2
:103F0000000000000FC00FC003C003C003C003C007
:103F100003C003C003C003C003C003C00FF00FF011
:103F20000000000000000000000000000000000091
:103F30000000000003C003C00FF00FF03C3C3C3C0D
:103F4000000000000FC00FC003C003C003C003C0C7
:103F500003C003C003C003C003C003C00FF00FF0D1
:103F60000000000000000000000000000000000051
:103F7000000000003C003C000F000F0003C003C025
:103F8000000000000FC00FC003C003C003C003C087
:103F900003C003C003C003C003C003C00FF00FF091
:103FA0000000000000000000000000000000000011
:103FB00000000000F03CF03C0000000003000300A3
:103FC0000FC00FC03CF03CF0F03CF03CF03CF03C4B
:103FD000FFFCFFFCF03CF03CF03CF03CF03CF03CE3
:103FE00000000000000000000000000000000000D1
:103FF0000FC00FC03CF03CF00FC00FC0000000002D
:104000000FC00FC03CF03CF0F03CF03CF03CF03C0A
:10401000FFFCFFFCF03CF03CF03CF03CF03CF03CA2
:104020000000000000000000000000000000000090
:1040300003C003C00F000F003C003C000000000064
:10404000FFFCFFFC3C3C3C3C3C003C003FF03FF0B4
:104050003C003C003C003C003C3C3C3CFFFCFFFC8A
:104060000000000000000000000000000000000050
:104070000000000000000000000000000000000040
:1040800000000000F0F0F0F03F3C3F3C0F3C0F3CE4
:104090003FFC3FFCF3C0F3C0F3C0F3C03CFC3CFC6E
:1040A0000000000000000000000000000000000010
:1040B00000000000000000000FFC0FFC3CF03CF092
:1040C000F0F0F0F0F0F0F0F0FFFCFFFCF0F0F0F0BA
:1040D000F0F0F0F0F0F0F0F0F0F0F0F0F0FCF0FCC8
:1040E00000000000000000000000000000000000D0
:1040F00000000000030003000FC00FC03CF03CF0C4
:10410000000000003FF03FF0F03CF03CF03CF03CA1
:10411000F03CF03CF03CF03CF03CF03C3FF03FF039
:10412000000000000000000000000000000000008F
:104130000000000000000000F03CF03C0000000027
:10414000000000003FF03FF0F03CF03CF03CF03C61
:10415000F03CF03CF03CF03CF03CF03C3FF03FF0F9
:10416000000000000000000000000000000000004F
:10417000000000003C003C000F000F0003C003C023
:10418000000000003FF03FF0F03CF03CF03CF03C21
:10419000F03CF03CF03CF03CF03CF03C3FF03FF0B9
:1041A000000000000000000000000000000000000F
:1041B000000000000F000F003FC03FC0F0F0F0F023
:1041C00000000000F0F0F0F0F0F0F0F0F0F0F0F0AF
:1041D000F0F0F0F0F0F0F0F0F0F0F0F03F3C3F3CA9
:1041E00000000000000000000000000000000000CF
:1041F000000000003C003C000F000F0003C003C0A3
:1042000000000000F0F0F0F0F0F0F0F0F0F0F0F06E
:10421000F0F0F0F0F0F0F0F0F0F0F0F03F3C3F3C68
:10422000000000000000000000000000000000008E
:104230000000000000000000F03CF03C0000000026
:1042400000000000F03CF03CF03CF03CF03CF03C66
:10425000F03CF03CF03CF03CF03CF03C3FFC3FFCE0
:10426000003C003C00F000F03FC03FC000000000F8
:1042700000000000F03CF03C000000003FF03FF088
:10428000F03CF03CF03CF03CF03CF03CF03CF03CCE
:10429000F03CF03CF03CF03CF03CF03C3FF03FF0B8
:1042A000000000000000000000000000000000000E
:1042B00000000000F03CF03C00000000F03CF03C4E
:1042C000F03CF03CF03CF03CF03CF03CF03CF03C8E
:1042D000F03CF03CF03CF03CF03CF03C3FF03FF078
:1042E00000000000000000000000000000000000CE
:1042F0000000000003C003C003C003C00FF00FF0B4
:104300003C3C3C3C3C003C003C003C003C003C0055
:104310003C3C3C3C0FF00FF003C003C003C003C0A3
:10432000000000000000000000000000000000008D
:10433000000000000FC00FC03CF03CF03C303C30AF
:104340003C003C00FF00FF003C003C003C003C0007
:104350003C003C003C003C00FC3CFC3CFFF0FFF01F
:10436000000000000000000000000000000000004D
:1043700000000000000000003C3C3C3C3C3C3C3C5D
:104380000FF00FF003C003C03FFC3FFC03C003C0AD
:104390003FFC3FFC03C003C003C003C003C003C015
:1043A000000000000000000000000000000000000D
:1043B00000000000FFC0FFC0F0F0F0F0F0F0F0F0FF
:1043C000FFC0FFC0F030F030F0F0F0F0F3FCF3FC91
:1043D000F0F0F0F0F0F0F0F0F0F0F0F0F03CF03C45
:1043E00000000000000000000000000000000000CD
:1043F0000000000000FC00FC03CF03CF03C003C09B
:1044000003C003C003C003C03FFC3FFC03C003C0A4
:1044100003C003C003C003C003C003C003C003C084
:10442000F3C0F3C03F003F000000000000000000A8
:104430000000000003C003C00F000F003C003C0060
:10444000000000003FC03FC000F000F03FF03FF030
:10445000F0F0F0F0F0F0F0F0F0F0F0F03F3C3F3C26
:10446000000000000000000000000000000000004C
:104470000000000000F000F003C003C00F000F00B8
:10448000000000000FC00FC003C003C003C003C082
:1044900003C003C003C003C003C003C00FF00FF08C
:1044A000000000000000000000000000000000000C
:1044B0000000000003C003C00F000F003C003C00E0
:1044C000000000003FF03FF0F03CF03CF03CF03CDE
:1044D000F03CF03CF03CF03CF03CF03C3FF03FF076
:1044E00000000000000000000000000000000000CC
:1044F0000000000003C003C00F000F003C003C00A0
:1045000000000000F0F0F0F0F0F0F0F0F0F0F0F06B
:10451000F0F0F0F0F0F0F0F0F0F0F0F03F3C3F3C65
:10452000000000000000000000000000000000008B
:1045300000000000000000003F3C3F3CF3F0F3F0BF
:1045400000000000F3F0F3F03C3C3C3C3C3C3C3CC5
:104550003C3C3C3C3C3C3C3C3C3C3C3C3C3C3C3C9B
:10456000000000000000000000000000000000004B
:104570003F3C3F3CF3F0F3F000000000F03CF03C27
:10458000FC3CFC3CFF3CFF3CFFFCFFFCF3FCF3FC71
:10459000F0FCF0FCF03CF03CF03CF03CF03CF03C3B
:1045A000000000000000000000000000000000000B
:1045B000000000000FF00FF03CF03CF03CF03CF04D
:1045C0000FFC0FFC000000003FFC3FFC000000005F
:1045D00000000000000000000000000000000000DB
:1045E00000000000000000000000000000000000CB
:1045F000000000000FC00FC03CF03CF03CF03CF06D
:104600000FC00FC0000000003FF03FF000000000AE
:10461000000000000000000000000000000000009A
:10462000000000000000000000000000000000008A
:1046300000000000000000000F000F000F000F003E
:10464000000000000F000F000F001F003E007C0064
:10465000F800F000F03CF03CF03CF87C7FF83FF0D4
:10466000000000000000000000000000000000004A
:10467000000000000000000000000000000000003A
:104680000000000000000000FFFCFFFCF000F00054
:10469000F000F000F000F000F000F000000000007A
:1046A000000000000000000000000000000000000A
:1046B00000000000000000000000000000000000FA
:1046C0000000000000000000FFFCFFFC003C003C7C
:1046D000003C003C003C003C003C003C0000000072
:1046E00000000000000000000000000000000000CA
:1046F00000000000F000F000F000F000F00CF00C02
:10470000F03CF03CF0F0F0F003C003C00F000F00ED
:104710003C003C00F3F0F3F0C03CC03C00F000F083
:1047200003C003C00FFC0FFC0000000000000000ED
:1047300000000000F000F000F000F000F00CF00CC1
:10474000F03CF03CF0F0F0F003C003C00F000F00AD
:104750003C3C3C3CF0FCF0FCC3FCC3FC0FFC0FFCFD
:10476000003C003C003C003C000000000000000059
:10477000000000000000000003C003C003C003C02D
:104780000000000003C003C003C007E007E007E02B
:104790000FF00FF00FF00FF00FF00FF007E003C075
:1047A0000000000000000000000000000000000009
:1047B00000000000000000000000000000000000F9
:1047C000000000000E1C1E3C3C7878F0F1E0F1E0A7
:1047D00078F03C781E3C0E1C000000000000000039
:1047E00000000000000000000000000000000000C9
:1047F00000000000000000000000000000000000B9
:1048000000000000E1C0F1E078F03C781E3C1E3C66
:104810003C7878F0F1E0E1C000000000000000000A
:104820000000000000000000000000000000000088
:1048300003030303303030300303030330303030E0
:1048400003030303303030300303030330303030D0
:1048500003030303303030300303030330303030C0
:1048600003030303303030300303030330303030B0
:1048700033333333CCCCCCCC33333333CCCCCCCC40
:1048800033333333CCCCCCCC33333333CCCCCCCC30
:1048900033333333CCCCCCCC33333333CCCCCCCC20
:1048A00033333333CCCCCCCC33333333CCCCCCCC10
:1048B000F3F3F3F33F3F3F3FF3F3F3F33F3F3F3F68
:1048C000F3F3F3F33F3F3F3FF3F3F3F33F3F3F3F58
:1048D000F3F3F3F33F3F3F3FF3F3F3F33F3F3F3F48
:1048E000F3F3F3F33F3F3F3FF3F3F3F33F3F3F3F38
:1048F00003C003C003C003C003C003C003C003C0A0
:1049000003C003C003C003C003C003C003C003C08F
:1049100003C003C003C003C003C003C003C003C07F
:1049200003C003C003C003C003C003C003C003C06F
:1049300003C003C003C003C003C003C003C003C05F
:1049400003C003C003C003C003C003C0FFC0FFC057
:1049500003C003C003C003C003C003C003C003C03F
:1049600003C003C003C003C003C003C003C003C02F
:1049700003C003C003C003C003C003C003C003C01F
:1049800003C003C0FFC0FFC003C003C0FFC0FFC01F
:1049900003C003C003C003C003C003C003C003C0FF
:1049A00003C003C003C003C003C003C003C003C0EF
:1049B0000F3C0F3C0F3C0F3C0F3C0F3C0F3C0F3C9F
:1049C0000F3C0F3C0F3C0F3C0F3C0F3CFF3CFF3CAF
:1049D0000F3C0F3C0F3C0F3C0F3C0F3C0F3C0F3C7F
:1049E0000F3C0F3C0F3C0F3C0F3C0F3C0F3C0F3C6F
:1049F00000000000000000000000000000000000B7
:104A0000000000000000000000000000FFFCFFFCB0
:104A10000F3C0F3C0F3C0F3C0F3C0F3C0F3C0F3C3E
:104A20000F3C0F3C0F3C0F3C0F3C0F3C0F3C0F3C2E
:104A30000000000000000000000000000000000076
:104A400000000000FFC0FFC003C003C0FFC0FFC0E4
:104A500003C003C003C003C003C003C003C003C03E
:104A600003C003C003C003C003C003C003C003C02E
:104A70000F3C0F3C0F3C0F3C0F3C0F3C0F3C0F3CDE
:104A80000F3C0F3CFF3CFF3C003C003CFF3CFF3C2C
:104A90000F3C0F3C0F3C0F3C0F3C0F3C0F3C0F3CBE
:104AA0000F3C0F3C0F3C0F3C0F3C0F3C0F3C0F3CAE
:104AB0000F3C0F3C0F3C0F3C0F3C0F3C0F3C0F3C9E
:104AC0000F3C0F3C0F3C0F3C0F3C0F3C0F3C0F3C8E
:104AD0000F3C0F3C0F3C0F3C0F3C0F3C0F3C0F3C7E
:104AE0000F3C0F3C0F3C0F3C0F3C0F3C0F3C0F3C6E
:104AF00000000000000000000000000000000000B6
:104B000000000000FFFCFFFC003C003CFF3CFF3CC1
:104B10000F3C0F3C0F3C0F3C0F3C0F3C0F3C0F3C3D
:104B20000F3C0F3C0F3C0F3C0F3C0F3C0F3C0F3C2D
:104B30000F3C0F3C0F3C0F3C0F3C0F3C0F3C0F3C1D
:104B40000F3C0F3CFF3CFF3C003C003CFFFCFFFCEB
:104B50000000000000000000000000000000000055
:104B60000000000000000000000000000000000045
:104B70000F3C0F3C0F3C0F3C0F3C0F3C0F3C0F3CDD
:104B80000F3C0F3C0F3C0F3C0F3C0F3CFFFCFFFC6D
:104B90000000000000000000000000000000000015
:104BA0000000000000000000000000000000000005
:104BB00003C003C003C003C003C003C003C003C0DD
:104BC00003C003C0FFC0FFC003C003C0FFC0FFC0DD
:104BD00000000000000000000000000000000000D5
:104BE00000000000000000000000000000000000C5
:104BF00000000000000000000000000000000000B5
:104C0000000000000000000000000000FFC0FFC026
:104C100003C003C003C003C003C003C003C003C07C
:104C200003C003C003C003C003C003C003C003C06C
:104C300003C003C003C003C003C003C003C003C05C
:104C400003C003C003C003C003C003C003FF03FFCE
:104C50000000000000000000000000000000000054
:104C60000000000000000000000000000000000044
:104C700003C003C003C003C003C003C003C003C01C
:104C800003C003C003C003C003C003C0FFFFFFFF96
:104C90000000000000000000000000000000000014
:104CA0000000000000000000000000000000000004
:104CB00000000000000000000000000000000000F4
:104CC000000000000000000000000000FFFFFFFFE8
:104CD00003C003C003C003C003C003C003C003C0BC
:104CE00003C003C003C003C003C003C003C003C0AC
:104CF00003C003C003C003C003C003C003C003C09C
:104D000003C003C003C003C003C003C003FF03FF0D
:104D100003C003C003C003C003C003C003C003C07B
:104D200003C003C003C003C003C003C003C003C06B
:104D30000000000000000000000000000000000073
:104D4000000000000000000000000000FFFFFFFF67
:104D50000000000000000000000000000000000053
:104D60000000000000000000000000000000000043
:104D700003C003C003C003C003C003C003C003C01B
:104D800003C003C003C003C003C003C0FFFFFFFF95
:104D900003C003C003C003C003C003C003C003C0FB
:104DA00003C003C003C003C003C003C003C003C0EB
:104DB00003C003C003C003C003C003C003C003C0DB
:104DC00003C003C003FF03FF03C003C003FF03FFCF
:104DD00003C003C003C003C003C003C003C003C0BB
:104DE00003C003C003C003C003C003C003C003C0AB
:104DF0000F3C0F3C0F3C0F3C0F3C0F3C0F3C0F3C5B
:104E00000F3C0F3C0F3C0F3C0F3C0F3C0F3F0F3F44
:104E10000F3C0F3C0F3C0F3C0F3C0F3C0F3C0F3C3A
:104E20000F3C0F3C0F3C0F3C0F3C0F3C0F3C0F3C2A
:104E30000F3C0F3C0F3C0F3C0F3C0F3C0F3C0F3C1A
:104E40000F3C0F3C0F3F0F3F0F000F000FFF0FFFF6
:104E50000000000000000000000000000000000052
:104E60000000000000000000000000000000000042
:104E70000000000000000000000000000000000032
:104E8000000000000FFF0FFF0F000F000F3F0F3F4C
:104E90000F3C0F3C0F3C0F3C0F3C0F3C0F3C0F3CBA
:104EA0000F3C0F3C0F3C0F3C0F3C0F3C0F3C0F3CAA
:104EB0000F3C0F3C0F3C0F3C0F3C0F3C0F3C0F3C9A
:104EC0000F3C0F3CFF3FFF3F00000000FFFFFFFFD4
:104ED00000000000000000000000000000000000D2
:104EE00000000000000000000000000000000000C2
:104EF00000000000000000000000000000000000B2
:104F000000000000FFFFFFFF00000000FF3FFF3F29
:104F10000F3C0F3C0F3C0F3C0F3C0F3C0F3C0F3C39
:104F20000F3C0F3C0F3C0F3C0F3C0F3C0F3C0F3C29
:104F30000F3C0F3C0F3C0F3C0F3C0F3C0F3C0F3C19
:104F40000F3C0F3C0F3F0F3F0F000F000F3F0F3F75
:104F50000F3C0F3C0F3C0F3C0F3C0F3C0F3C0F3CF9
:104F60000F3C0F3C0F3C0F3C0F3C0F3C0F3C0F3CE9
:104F70000000000000000000000000000000000031
:104F800000000000FFFFFFFF00000000FFFFFFFF29
:104F90000000000000000000000000000000000011
:104FA0000000000000000000000000000000000001
:104FB0000F3C0F3C0F3C0F3C0F3C0F3C0F3C0F3C99
:104FC0000F3C0F3CFF3FFF3F00000000FF3FFF3F53
:104FD0000F3C0F3C0F3C0F3C0F3C0F3C0F3C0F3C79
:104FE0000F3C0F3C0F3C0F3C0F3C0F3C0F3C0F3C69
:104FF00003C003C003C003C003C003C003C003C099
:1050000003C003C0FFFFFFFF00000000FFFFFFFF22
:105010000000000000000000000000000000000090
:105020000000000000000000000000000000000080
:105030000F3C0F3C0F3C0F3C0F3C0F3C0F3C0F3C18
:105040000F3C0F3C0F3C0F3C0F3C0F3CFFFFFFFFA2
:105050000000000000000000000000000000000050
:105060000000000000000000000000000000000040
:105070000000000000000000000000000000000030
:1050800000000000FFFFFFFF00000000FFFFFFFF28
:1050900003C003C003C003C003C003C003C003C0F8
:1050A00003C003C003C003C003C003C003C003C0E8
:1050B00000000000000000000000000000000000F0
:1050C000000000000000000000000000FFFFFFFFE4
:1050D0000F3C0F3C0F3C0F3C0F3C0F3C0F3C0F3C78
:1050E0000F3C0F3C0F3C0F3C0F3C0F3C0F3C0F3C68
:1050F0000F3C0F3C0F3C0F3C0F3C0F3C0F3C0F3C58
:105100000F3C0F3C0F3C0F3C0F3C0F3C0FFF0FFFC1
:10511000000000000000000000000000000000008F
:10512000000000000000000000000000000000007F
:1051300003C003C003C003C003C003C003C003C057
:1051400003C003C003FF03FF03C003C003FF03FF4B
:10515000000000000000000000000000000000004F
:10516000000000000000000000000000000000003F
:10517000000000000000000000000000000000002F
:105180000000000003FF03FF03C003C003FF03FF91
:1051900003C003C003C003C003C003C003C003C0F7
:1051A00003C003C003C003C003C003C003C003C0E7
:1051B00000000000000000000000000000000000EF
:1051C0000000000000000000000000000FFF0FFFC3
:1051D0000F3C0F3C0F3C0F3C0F3C0F3C0F3C0F3C77
:1051E0000F3C0F3C0F3C0F3C0F3C0F3C0F3C0F3C67
:1051F0000F3C0F3C0F3C0F3C0F3C0F3C0F3C0F3C57
:105200000F3C0F3C0F3C0F3C0F3C0F3CFFFFFFFFE0
:105210000F3C0F3C0F3C0F3C0F3C0F3C0F3C0F3C36
:105220000F3C0F3C0F3C0F3C0F3C0F3C0F3C0F3C26
:1052300003C003C003C003C003C003C003C003C056
:1052400003C003C0FFFFFFFF03C003C0FFFFFFFF5A
:1052500003C003C003C003C003C003C003C003C036
:1052600003C003C003C003C003C003C003C003C026
:1052700003C003C003C003C003C003C003C003C016
:1052800003C003C003C003C003C003C0FFC0FFC00E
:10529000000000000000000000000000000000000E
:1052A00000000000000000000000000000000000FE
:1052B00000000000000000000000000000000000EE
:1052C00000000000000000000000000003FF03FFDA
:1052D00003C003C003C003C003C003C003C003C0B6
:1052E00003C003C003C003C003C003C003C003C0A6
:1052F000FFFFFFFFFFFFFFFFFFFFFFFFFFFFFFFFBE
:10530000FFFFFFFFFFFFFFFFFFFFFFFFFFFFFFFFAD
:10531000FFFFFFFFFFFFFFFFFFFFFFFFFFFFFFFF9D
:10532000FFFFFFFFFFFFFFFFFFFFFFFFFFFFFFFF8D
:10533000000000000000000000000000000000006D
:10534000000000000000000000000000FFFFFFFF61
:10535000FFFFFFFFFFFFFFFFFFFFFFFFFFFFFFFF5D
:10536000FFFFFFFFFFFFFFFFFFFFFFFFFFFFFFFF4D
:10537000FF00FF00FF00FF00FF00FF00FF00FF0035
:10538000FF00FF00FF00FF00FF00FF00FF00FF0025
:10539000FF00FF00FF00FF00FF00FF00FF00FF0015
:1053A000FF00FF00FF00FF00FF00FF00FF00FF0005
:1053B00000FF00FF00FF00FF00FF00FF00FF00FFF5
:1053C00000FF00FF00FF00FF00FF00FF00FF00FFE5
:1053D00000FF00FF00FF00FF00FF00FF00FF00FFD5
:1053E00000FF00FF00FF00FF00FF00FF00FF00FFC5
:1053F000FFFFFFFFFFFFFFFFFFFFFFFFFFFFFFFFBD
:10540000FFFFFFFFFFFFFFFFFFFFFFFF00000000A8
:10541000000000000000000000000000000000008C
:10542000000000000000000000000000000000007C
:10543000000000000000000000000000000000006C
:10544000000000003F3C3F3CF3F0F3F0F3C0F3C03A
:10545000F3C0F3C0F3C0F3C0F3F0F3F03F3C3F3CC4
:10546000000000000000000000000000000000003C
:1054700000000000000000003FC07FE0F9F0F0F005
:10548000F0F0F0F0F0F0F1E0F3C0F3E0F1F0F0F85C
:10549000F07CF03CF03CF03CF03CF07CF0F8F0F0BC
:1054A00000000000000000000000000000000000FC
:1054B0000000000000000000FFFCFFFCF03CF03C9E
:1054C000F03CF03CF000F000F000F000F000F000E4
:1054D000F000F000F000F000F000F000F000F0004C
:1054E00000000000000000000000000000000000BC
:1054F00000000000000000000000000000000000AC
:10550000FFFCFFFC3CF03CF03CF03CF03CF03CF09D
:105510003CF03CF03CF03CF03CF03CF03CF03CF02B
:10552000000000000000000000000000000000007B
:10553000000000000000000000000000FFFCFFFC75
:10554000F03CF83C7C003E001F000F8007C007C005
:105550000F801F003E007C00F83CF03CFFFCFFFC8D
:10556000000000000000000000000000000000003B
:10557000000000000000000000000000000000002B
:10558000000000003FFC3FFCF3C0F3C0F3C0F3C0D9
:10559000F3C0F3C0F3C0F3C0F3C0F3C03F003F005B
:1055A00000000000000000000000000000000000FB
:1055B00000000000000000000000000000000000EB
:1055C0003C3C3C3C3C3C3C3C3C3C3C3C3C3C3C3C1B
:1055D0003C3C3C3C3FF03FF03C003C003C003C008D
:1055E000F000F000000000000000000000000000DB
:1055F00000000000000000000000000000000000AB
:105600003F3C3F3CF3F0F3F003C003C003C003C0D2
:1056100003C003C003C003C003C003C003C003C072
:10562000000000000000000000000000000000007A
:105630000000000000000000000000003FFC3FFCF4
:1056400003C003C00FF00FF03C3C3C3C3C3C3C3CF6
:105650003C3C3C3C0FF00FF003C003C03FFC3FFC60
:10566000000000000000000000000000000000003A
:105670000000000000000000000000000FC00FC08C
:105680003CF03CF0F03CF03CF03CF03CFFFCFFFC1C
:10569000F03CF03CF03CF03C3CF03CF00FC00FC064
:1056A00000000000000000000000000000000000FA
:1056B00000000000000000000FC00FC03CF03CF0F4
:1056C000F03CF03CF03CF03CF03CF03C3CF03CF07A
:1056D0003CF03CF03CF03CF03CF03CF0FCFCFCFCD2
:1056E00000000000000000000000000000000000BA
:1056F000000000000000000003FC03FC0F000F008E
:1057000003C003C000F000F00FFC0FFC3C3C3C3C2D
:105710003C3C3C3C3C3C3C3C3C3C3C3C0FF00FF0BB
:105720000000000000000000000000000000000079
:105730000000000000000000000000000000000069
:10574000000000003FFC3FFCF3CFF3CFF3CFF3CFDB
:10575000F3CFF3CF3FFC3FFC00000000000000004F
:105760000000000000000000000000000000000039
:10577000000000000000000000000000000F000F0B
:10578000003C003C3FFC3FFCF3CFF3CFF3CFF3CF23
:10579000FF0FFF0F3FFC3FFC3C003C00F000F0001F
:1057A00000000000000000000000000000000000F9
:1057B000000000000000000003F003F00F000F00E5
:1057C0003C003C003C003C003FF03FF03C003C0013
:1057D0003C003C003C003C000F000F0003F003F0D5
:1057E00000000000000000000000000000000000B9
:1057F0000000000000000000000000003FF03FF04B
:10580000F03CF03CF03CF03CF03CF03CF03CF03C38
:10581000F03CF03CF03CF03CF03CF03CF03CF03C28
:105820000000000000000000000000000000000078
:105830000000000000000000000000000000000068
:10584000FFFCFFFC0000000000000000FFFCFFFC6C
:105850000000000000000000FFFCFFFC0000000052
:105860000000000000000000000000000000000038
:105870000000000000000000000000000000000028
:1058800007800780078007807FF87FF87FF8078010
:1058900007800780078000000000FFFCFFFCFFFC82
:1058A00000000000000000000000000000000000F8
:1058B000000000000000000000003E001F000F80FC
:1058C00007C003E001F000F800F801F003E007C0B2
:1058D0000F801F003E00000000007FF87FF87FF877
:1058E00000000000000000000000000000000000B8
:1058F0000000000000000000000001F003E007C00D
:105900000F801F003E007C007C003E001F000F80C7
:1059100007C003E001F0000000007FF87FF87FF887
:105920000000000000000000000000000000000077
:10593000000000000000000000FC01FE03CF03CFC8
:1059400003CF03CF03C003C003C003C003C003C021
:1059500003C003C003C003C003C003C003C003C02F
:1059600003C003C003C003C003C003C003C003C01F
:1059700003C003C003C003C003C003C003C003C00F
:1059800003C003C003C003C003C003C003C003C0FF
:10599000F3C0F3C0F3C0F3C0F3C0F3C07F803F0097
:1059A00000000000000000000000000000000000F7
:1059B00000000000000000000000000000000000E7
:1059C000078007800780078000000000FFFCFFFCC5
:1059D000FFFC0000000007800780078007800000B0
:1059E00000000000000000000000000000000000B7
:1059F00000000000000000000000000000000000A7
:105A0000000000003F3C3F3CF3F0F3F000000000DA
:105A10003F3C3F3CF3F0F3F00000000000000000CA
:105A20000000000000000000000000000000000076
:105A3000000000000FC01FE03CF03CF03CF03CF0E8
:105A40001FE00FC000000000000000000000000088
:105A50000000000000000000000000000000000046
:105A60000000000000000000000000000000000036
:105A70000000000000000000000000000000000026
:105A800000000000000000000000000003C003C090
:105A900003C003C000000000000000000000000080
:105AA00000000000000000000000000000000000F6
:105AB00000000000000000000000000000000000E6
:105AC00000000000000000000000000000000000D6
:105AD00003C003C000000000000000000000000040
